{
	"Escrow smart contract.sol": {
		"Escrow": {
			"abi": [
				{
					"inputs": [],
					"stateMutability": "payable",
					"type": "constructor"
				},
				{
					"inputs": [],
					"name": "Deadline",
					"outputs": [
						{
							"internalType": "uint256",
							"name": "",
							"type": "uint256"
						}
					],
					"stateMutability": "view",
					"type": "function"
				},
				{
					"inputs": [],
					"name": "amountPaidInEscrow",
					"outputs": [
						{
							"internalType": "uint256",
							"name": "",
							"type": "uint256"
						}
					],
					"stateMutability": "view",
					"type": "function"
				},
				{
					"inputs": [],
					"name": "buyer",
					"outputs": [
						{
							"internalType": "address",
							"name": "",
							"type": "address"
						}
					],
					"stateMutability": "view",
					"type": "function"
				},
				{
					"inputs": [],
					"name": "currentState",
					"outputs": [
						{
							"internalType": "enum Escrow.contractState",
							"name": "",
							"type": "uint8"
						}
					],
					"stateMutability": "view",
					"type": "function"
				},
				{
					"inputs": [],
					"name": "deposit",
					"outputs": [],
					"stateMutability": "payable",
					"type": "function"
				},
				{
					"inputs": [],
					"name": "escrowAgent",
					"outputs": [
						{
							"internalType": "address",
							"name": "",
							"type": "address"
						}
					],
					"stateMutability": "view",
					"type": "function"
				},
				{
					"inputs": [],
					"name": "escrowAmount",
					"outputs": [
						{
							"internalType": "uint256",
							"name": "",
							"type": "uint256"
						}
					],
					"stateMutability": "view",
					"type": "function"
				},
				{
					"inputs": [],
					"name": "feePercentage",
					"outputs": [
						{
							"internalType": "uint256",
							"name": "",
							"type": "uint256"
						}
					],
					"stateMutability": "view",
					"type": "function"
				},
				{
					"inputs": [],
					"name": "isDispute",
					"outputs": [
						{
							"internalType": "uint256",
							"name": "",
							"type": "uint256"
						}
					],
					"stateMutability": "view",
					"type": "function"
				},
				{
					"inputs": [],
					"name": "seller",
					"outputs": [
						{
							"internalType": "address",
							"name": "",
							"type": "address"
						}
					],
					"stateMutability": "view",
					"type": "function"
				}
			],
			"devdoc": {
				"kind": "dev",
				"methods": {},
				"version": 1
			},
			"evm": {
				"assembly": "    /* \"Escrow smart contract.sol\":87:1304  contract Escrow {... */\n  mstore(0x40, 0x80)\n    /* \"Escrow smart contract.sol\":697:717  contractState.Active */\n  0x00\n    /* \"Escrow smart contract.sol\":682:694  currentState */\n  0x04\n  0x00\n    /* \"Escrow smart contract.sol\":682:717  currentState = contractState.Active */\n  0x0100\n  exp\n  dup2\n  sload\n  dup2\n  0xff\n  mul\n  not\n  and\n  swap1\n  dup4\n  0x02\n  dup2\n  gt\n  iszero\n  tag_3\n  jumpi\n  tag_4\n  tag_5\n  jump\t// in\ntag_4:\ntag_3:\n  mul\n  or\n  swap1\n  sstore\n  pop\n    /* \"Escrow smart contract.sol\":778:788  msg.sender */\n  caller\n    /* \"Escrow smart contract.sol\":764:775  escrowAgent */\n  0x02\n  0x00\n    /* \"Escrow smart contract.sol\":764:788  escrowAgent = msg.sender */\n  0x0100\n  exp\n  dup2\n  sload\n  dup2\n  0xffffffffffffffffffffffffffffffffffffffff\n  mul\n  not\n  and\n  swap1\n  dup4\n  0xffffffffffffffffffffffffffffffffffffffff\n  and\n  mul\n  or\n  swap1\n  sstore\n  pop\n    /* \"Escrow smart contract.sol\":87:1304  contract Escrow {... */\n  jump(tag_6)\n    /* \"#utility.yul\":7:187   */\ntag_5:\n    /* \"#utility.yul\":55:132   */\n  0x4e487b7100000000000000000000000000000000000000000000000000000000\n    /* \"#utility.yul\":52:53   */\n  0x00\n    /* \"#utility.yul\":45:133   */\n  mstore\n    /* \"#utility.yul\":152:156   */\n  0x21\n    /* \"#utility.yul\":149:150   */\n  0x04\n    /* \"#utility.yul\":142:157   */\n  mstore\n    /* \"#utility.yul\":176:180   */\n  0x24\n    /* \"#utility.yul\":173:174   */\n  0x00\n    /* \"#utility.yul\":166:181   */\n  revert\n    /* \"Escrow smart contract.sol\":87:1304  contract Escrow {... */\ntag_6:\n  dataSize(sub_0)\n  dup1\n  dataOffset(sub_0)\n  0x00\n  codecopy\n  0x00\n  return\nstop\n\nsub_0: assembly {\n        /* \"Escrow smart contract.sol\":87:1304  contract Escrow {... */\n      mstore(0x40, 0x80)\n      jumpi(tag_1, lt(calldatasize, 0x04))\n      shr(0xe0, calldataload(0x00))\n      dup1\n      0x995e770b\n      gt\n      tag_12\n      jumpi\n      dup1\n      0x995e770b\n      eq\n      tag_7\n      jumpi\n      dup1\n      0xa001ecdd\n      eq\n      tag_8\n      jumpi\n      dup1\n      0xc6f221aa\n      eq\n      tag_9\n      jumpi\n      dup1\n      0xd0e30db0\n      eq\n      tag_10\n      jumpi\n      dup1\n      0xe1f6c098\n      eq\n      tag_11\n      jumpi\n      jump(tag_1)\n    tag_12:\n      dup1\n      0x08551a53\n      eq\n      tag_2\n      jumpi\n      dup1\n      0x0c3f6acf\n      eq\n      tag_3\n      jumpi\n      dup1\n      0x166573e5\n      eq\n      tag_4\n      jumpi\n      dup1\n      0x47a7846f\n      eq\n      tag_5\n      jumpi\n      dup1\n      0x7150d8ae\n      eq\n      tag_6\n      jumpi\n    tag_1:\n      0x00\n      dup1\n      revert\n        /* \"Escrow smart contract.sol\":146:167  address public seller */\n    tag_2:\n      callvalue\n      dup1\n      iszero\n      tag_13\n      jumpi\n      0x00\n      dup1\n      revert\n    tag_13:\n      pop\n      tag_14\n      tag_15\n      jump\t// in\n    tag_14:\n      mload(0x40)\n      tag_16\n      swap2\n      swap1\n      tag_17\n      jump\t// in\n    tag_16:\n      mload(0x40)\n      dup1\n      swap2\n      sub\n      swap1\n      return\n        /* \"Escrow smart contract.sol\":383:416  contractState public currentState */\n    tag_3:\n      callvalue\n      dup1\n      iszero\n      tag_18\n      jumpi\n      0x00\n      dup1\n      revert\n    tag_18:\n      pop\n      tag_19\n      tag_20\n      jump\t// in\n    tag_19:\n      mload(0x40)\n      tag_21\n      swap2\n      swap1\n      tag_22\n      jump\t// in\n    tag_21:\n      mload(0x40)\n      dup1\n      swap2\n      sub\n      swap1\n      return\n        /* \"Escrow smart contract.sol\":861:882  uint public isDispute */\n    tag_4:\n      callvalue\n      dup1\n      iszero\n      tag_23\n      jumpi\n      0x00\n      dup1\n      revert\n    tag_23:\n      pop\n      tag_24\n      tag_25\n      jump\t// in\n    tag_24:\n      mload(0x40)\n      tag_26\n      swap2\n      swap1\n      tag_27\n      jump\t// in\n    tag_26:\n      mload(0x40)\n      dup1\n      swap2\n      sub\n      swap1\n      return\n        /* \"Escrow smart contract.sol\":257:281  uint public escrowAmount */\n    tag_5:\n      callvalue\n      dup1\n      iszero\n      tag_28\n      jumpi\n      0x00\n      dup1\n      revert\n    tag_28:\n      pop\n      tag_29\n      tag_30\n      jump\t// in\n    tag_29:\n      mload(0x40)\n      tag_31\n      swap2\n      swap1\n      tag_27\n      jump\t// in\n    tag_31:\n      mload(0x40)\n      dup1\n      swap2\n      sub\n      swap1\n      return\n        /* \"Escrow smart contract.sol\":114:135  address  public buyer */\n    tag_6:\n      callvalue\n      dup1\n      iszero\n      tag_32\n      jumpi\n      0x00\n      dup1\n      revert\n    tag_32:\n      pop\n      tag_33\n      tag_34\n      jump\t// in\n    tag_33:\n      mload(0x40)\n      tag_35\n      swap2\n      swap1\n      tag_17\n      jump\t// in\n    tag_35:\n      mload(0x40)\n      dup1\n      swap2\n      sub\n      swap1\n      return\n        /* \"Escrow smart contract.sol\":978:1008  uint public amountPaidInEscrow */\n    tag_7:\n      callvalue\n      dup1\n      iszero\n      tag_36\n      jumpi\n      0x00\n      dup1\n      revert\n    tag_36:\n      pop\n      tag_37\n      tag_38\n      jump\t// in\n    tag_37:\n      mload(0x40)\n      tag_39\n      swap2\n      swap1\n      tag_27\n      jump\t// in\n    tag_39:\n      mload(0x40)\n      dup1\n      swap2\n      sub\n      swap1\n      return\n        /* \"Escrow smart contract.sol\":899:924  uint public feePercentage */\n    tag_8:\n      callvalue\n      dup1\n      iszero\n      tag_40\n      jumpi\n      0x00\n      dup1\n      revert\n    tag_40:\n      pop\n      tag_41\n      tag_42\n      jump\t// in\n    tag_41:\n      mload(0x40)\n      tag_43\n      swap2\n      swap1\n      tag_27\n      jump\t// in\n    tag_43:\n      mload(0x40)\n      dup1\n      swap2\n      sub\n      swap1\n      return\n        /* \"Escrow smart contract.sol\":941:961  uint public Deadline */\n    tag_9:\n      callvalue\n      dup1\n      iszero\n      tag_44\n      jumpi\n      0x00\n      dup1\n      revert\n    tag_44:\n      pop\n      tag_45\n      tag_46\n      jump\t// in\n    tag_45:\n      mload(0x40)\n      tag_47\n      swap2\n      swap1\n      tag_27\n      jump\t// in\n    tag_47:\n      mload(0x40)\n      dup1\n      swap2\n      sub\n      swap1\n      return\n        /* \"Escrow smart contract.sol\":1054:1298  function deposit () external  payable {... */\n    tag_10:\n      tag_48\n      tag_49\n      jump\t// in\n    tag_48:\n      stop\n        /* \"Escrow smart contract.sol\":178:204  address public escrowAgent */\n    tag_11:\n      callvalue\n      dup1\n      iszero\n      tag_50\n      jumpi\n      0x00\n      dup1\n      revert\n    tag_50:\n      pop\n      tag_51\n      tag_52\n      jump\t// in\n    tag_51:\n      mload(0x40)\n      tag_53\n      swap2\n      swap1\n      tag_17\n      jump\t// in\n    tag_53:\n      mload(0x40)\n      dup1\n      swap2\n      sub\n      swap1\n      return\n        /* \"Escrow smart contract.sol\":146:167  address public seller */\n    tag_15:\n      0x01\n      0x00\n      swap1\n      sload\n      swap1\n      0x0100\n      exp\n      swap1\n      div\n      0xffffffffffffffffffffffffffffffffffffffff\n      and\n      dup2\n      jump\t// out\n        /* \"Escrow smart contract.sol\":383:416  contractState public currentState */\n    tag_20:\n      0x04\n      0x00\n      swap1\n      sload\n      swap1\n      0x0100\n      exp\n      swap1\n      div\n      0xff\n      and\n      dup2\n      jump\t// out\n        /* \"Escrow smart contract.sol\":861:882  uint public isDispute */\n    tag_25:\n      sload(0x05)\n      dup2\n      jump\t// out\n        /* \"Escrow smart contract.sol\":257:281  uint public escrowAmount */\n    tag_30:\n      sload(0x03)\n      dup2\n      jump\t// out\n        /* \"Escrow smart contract.sol\":114:135  address  public buyer */\n    tag_34:\n      0x00\n      dup1\n      sload\n      swap1\n      0x0100\n      exp\n      swap1\n      div\n      0xffffffffffffffffffffffffffffffffffffffff\n      and\n      dup2\n      jump\t// out\n        /* \"Escrow smart contract.sol\":978:1008  uint public amountPaidInEscrow */\n    tag_38:\n      sload(0x08)\n      dup2\n      jump\t// out\n        /* \"Escrow smart contract.sol\":899:924  uint public feePercentage */\n    tag_42:\n      sload(0x06)\n      dup2\n      jump\t// out\n        /* \"Escrow smart contract.sol\":941:961  uint public Deadline */\n    tag_46:\n      sload(0x07)\n      dup2\n      jump\t// out\n        /* \"Escrow smart contract.sol\":1054:1298  function deposit () external  payable {... */\n    tag_49:\n        /* \"Escrow smart contract.sol\":1132:1137  buyer */\n      0x00\n      dup1\n      sload\n      swap1\n      0x0100\n      exp\n      swap1\n      div\n      0xffffffffffffffffffffffffffffffffffffffff\n      and\n        /* \"Escrow smart contract.sol\":1118:1137  msg.sender == buyer */\n      0xffffffffffffffffffffffffffffffffffffffff\n      and\n        /* \"Escrow smart contract.sol\":1118:1128  msg.sender */\n      caller\n        /* \"Escrow smart contract.sol\":1118:1137  msg.sender == buyer */\n      0xffffffffffffffffffffffffffffffffffffffff\n      and\n      eq\n        /* \"Escrow smart contract.sol\":1109:1170  require (msg.sender == buyer, \"Only buyer can deposit funds\") */\n      tag_55\n      jumpi\n      mload(0x40)\n      0x08c379a000000000000000000000000000000000000000000000000000000000\n      dup2\n      mstore\n      0x04\n      add\n      tag_56\n      swap1\n      tag_57\n      jump\t// in\n    tag_56:\n      mload(0x40)\n      dup1\n      swap2\n      sub\n      swap1\n      revert\n    tag_55:\n        /* \"Escrow smart contract.sol\":1211:1231  contractState.Active */\n      0x00\n        /* \"Escrow smart contract.sol\":1195:1231  currentState == contractState.Active */\n      0x02\n      dup2\n      gt\n      iszero\n      tag_58\n      jumpi\n      tag_59\n      tag_60\n      jump\t// in\n    tag_59:\n    tag_58:\n        /* \"Escrow smart contract.sol\":1195:1207  currentState */\n      0x04\n      0x00\n      swap1\n      sload\n      swap1\n      0x0100\n      exp\n      swap1\n      div\n      0xff\n      and\n        /* \"Escrow smart contract.sol\":1195:1231  currentState == contractState.Active */\n      0x02\n      dup2\n      gt\n      iszero\n      tag_61\n      jumpi\n      tag_62\n      tag_60\n      jump\t// in\n    tag_62:\n    tag_61:\n      eq\n        /* \"Escrow smart contract.sol\":1187:1285  require(currentState == contractState.Active, \"Contract must be in active state to deposit funds\") */\n      tag_63\n      jumpi\n      mload(0x40)\n      0x08c379a000000000000000000000000000000000000000000000000000000000\n      dup2\n      mstore\n      0x04\n      add\n      tag_64\n      swap1\n      tag_65\n      jump\t// in\n    tag_64:\n      mload(0x40)\n      dup1\n      swap2\n      sub\n      swap1\n      revert\n    tag_63:\n        /* \"Escrow smart contract.sol\":1054:1298  function deposit () external  payable {... */\n      jump\t// out\n        /* \"Escrow smart contract.sol\":178:204  address public escrowAgent */\n    tag_52:\n      0x02\n      0x00\n      swap1\n      sload\n      swap1\n      0x0100\n      exp\n      swap1\n      div\n      0xffffffffffffffffffffffffffffffffffffffff\n      and\n      dup2\n      jump\t// out\n        /* \"#utility.yul\":7:133   */\n    tag_66:\n        /* \"#utility.yul\":44:51   */\n      0x00\n        /* \"#utility.yul\":84:126   */\n      0xffffffffffffffffffffffffffffffffffffffff\n        /* \"#utility.yul\":77:82   */\n      dup3\n        /* \"#utility.yul\":73:127   */\n      and\n        /* \"#utility.yul\":62:127   */\n      swap1\n      pop\n        /* \"#utility.yul\":7:133   */\n      swap2\n      swap1\n      pop\n      jump\t// out\n        /* \"#utility.yul\":139:235   */\n    tag_67:\n        /* \"#utility.yul\":176:183   */\n      0x00\n        /* \"#utility.yul\":205:229   */\n      tag_83\n        /* \"#utility.yul\":223:228   */\n      dup3\n        /* \"#utility.yul\":205:229   */\n      tag_66\n      jump\t// in\n    tag_83:\n        /* \"#utility.yul\":194:229   */\n      swap1\n      pop\n        /* \"#utility.yul\":139:235   */\n      swap2\n      swap1\n      pop\n      jump\t// out\n        /* \"#utility.yul\":241:359   */\n    tag_68:\n        /* \"#utility.yul\":328:352   */\n      tag_85\n        /* \"#utility.yul\":346:351   */\n      dup2\n        /* \"#utility.yul\":328:352   */\n      tag_67\n      jump\t// in\n    tag_85:\n        /* \"#utility.yul\":323:326   */\n      dup3\n        /* \"#utility.yul\":316:353   */\n      mstore\n        /* \"#utility.yul\":241:359   */\n      pop\n      pop\n      jump\t// out\n        /* \"#utility.yul\":365:587   */\n    tag_17:\n        /* \"#utility.yul\":458:462   */\n      0x00\n        /* \"#utility.yul\":496:498   */\n      0x20\n        /* \"#utility.yul\":485:494   */\n      dup3\n        /* \"#utility.yul\":481:499   */\n      add\n        /* \"#utility.yul\":473:499   */\n      swap1\n      pop\n        /* \"#utility.yul\":509:580   */\n      tag_87\n        /* \"#utility.yul\":577:578   */\n      0x00\n        /* \"#utility.yul\":566:575   */\n      dup4\n        /* \"#utility.yul\":562:579   */\n      add\n        /* \"#utility.yul\":553:559   */\n      dup5\n        /* \"#utility.yul\":509:580   */\n      tag_68\n      jump\t// in\n    tag_87:\n        /* \"#utility.yul\":365:587   */\n      swap3\n      swap2\n      pop\n      pop\n      jump\t// out\n        /* \"#utility.yul\":593:773   */\n    tag_60:\n        /* \"#utility.yul\":641:718   */\n      0x4e487b7100000000000000000000000000000000000000000000000000000000\n        /* \"#utility.yul\":638:639   */\n      0x00\n        /* \"#utility.yul\":631:719   */\n      mstore\n        /* \"#utility.yul\":738:742   */\n      0x21\n        /* \"#utility.yul\":735:736   */\n      0x04\n        /* \"#utility.yul\":728:743   */\n      mstore\n        /* \"#utility.yul\":762:766   */\n      0x24\n        /* \"#utility.yul\":759:760   */\n      0x00\n        /* \"#utility.yul\":752:767   */\n      revert\n        /* \"#utility.yul\":779:900   */\n    tag_69:\n        /* \"#utility.yul\":868:869   */\n      0x03\n        /* \"#utility.yul\":861:866   */\n      dup2\n        /* \"#utility.yul\":858:870   */\n      lt\n        /* \"#utility.yul\":848:894   */\n      tag_90\n      jumpi\n        /* \"#utility.yul\":874:892   */\n      tag_91\n      tag_60\n      jump\t// in\n    tag_91:\n        /* \"#utility.yul\":848:894   */\n    tag_90:\n        /* \"#utility.yul\":779:900   */\n      pop\n      jump\t// out\n        /* \"#utility.yul\":906:1049   */\n    tag_70:\n        /* \"#utility.yul\":959:966   */\n      0x00\n        /* \"#utility.yul\":988:993   */\n      dup2\n        /* \"#utility.yul\":977:993   */\n      swap1\n      pop\n        /* \"#utility.yul\":994:1043   */\n      tag_93\n        /* \"#utility.yul\":1037:1042   */\n      dup3\n        /* \"#utility.yul\":994:1043   */\n      tag_69\n      jump\t// in\n    tag_93:\n        /* \"#utility.yul\":906:1049   */\n      swap2\n      swap1\n      pop\n      jump\t// out\n        /* \"#utility.yul\":1055:1198   */\n    tag_71:\n        /* \"#utility.yul\":1119:1128   */\n      0x00\n        /* \"#utility.yul\":1152:1192   */\n      tag_95\n        /* \"#utility.yul\":1186:1191   */\n      dup3\n        /* \"#utility.yul\":1152:1192   */\n      tag_70\n      jump\t// in\n    tag_95:\n        /* \"#utility.yul\":1139:1192   */\n      swap1\n      pop\n        /* \"#utility.yul\":1055:1198   */\n      swap2\n      swap1\n      pop\n      jump\t// out\n        /* \"#utility.yul\":1204:1363   */\n    tag_72:\n        /* \"#utility.yul\":1305:1356   */\n      tag_97\n        /* \"#utility.yul\":1350:1355   */\n      dup2\n        /* \"#utility.yul\":1305:1356   */\n      tag_71\n      jump\t// in\n    tag_97:\n        /* \"#utility.yul\":1300:1303   */\n      dup3\n        /* \"#utility.yul\":1293:1357   */\n      mstore\n        /* \"#utility.yul\":1204:1363   */\n      pop\n      pop\n      jump\t// out\n        /* \"#utility.yul\":1369:1619   */\n    tag_22:\n        /* \"#utility.yul\":1476:1480   */\n      0x00\n        /* \"#utility.yul\":1514:1516   */\n      0x20\n        /* \"#utility.yul\":1503:1512   */\n      dup3\n        /* \"#utility.yul\":1499:1517   */\n      add\n        /* \"#utility.yul\":1491:1517   */\n      swap1\n      pop\n        /* \"#utility.yul\":1527:1612   */\n      tag_99\n        /* \"#utility.yul\":1609:1610   */\n      0x00\n        /* \"#utility.yul\":1598:1607   */\n      dup4\n        /* \"#utility.yul\":1594:1611   */\n      add\n        /* \"#utility.yul\":1585:1591   */\n      dup5\n        /* \"#utility.yul\":1527:1612   */\n      tag_72\n      jump\t// in\n    tag_99:\n        /* \"#utility.yul\":1369:1619   */\n      swap3\n      swap2\n      pop\n      pop\n      jump\t// out\n        /* \"#utility.yul\":1625:1702   */\n    tag_73:\n        /* \"#utility.yul\":1662:1669   */\n      0x00\n        /* \"#utility.yul\":1691:1696   */\n      dup2\n        /* \"#utility.yul\":1680:1696   */\n      swap1\n      pop\n        /* \"#utility.yul\":1625:1702   */\n      swap2\n      swap1\n      pop\n      jump\t// out\n        /* \"#utility.yul\":1708:1826   */\n    tag_74:\n        /* \"#utility.yul\":1795:1819   */\n      tag_102\n        /* \"#utility.yul\":1813:1818   */\n      dup2\n        /* \"#utility.yul\":1795:1819   */\n      tag_73\n      jump\t// in\n    tag_102:\n        /* \"#utility.yul\":1790:1793   */\n      dup3\n        /* \"#utility.yul\":1783:1820   */\n      mstore\n        /* \"#utility.yul\":1708:1826   */\n      pop\n      pop\n      jump\t// out\n        /* \"#utility.yul\":1832:2054   */\n    tag_27:\n        /* \"#utility.yul\":1925:1929   */\n      0x00\n        /* \"#utility.yul\":1963:1965   */\n      0x20\n        /* \"#utility.yul\":1952:1961   */\n      dup3\n        /* \"#utility.yul\":1948:1966   */\n      add\n        /* \"#utility.yul\":1940:1966   */\n      swap1\n      pop\n        /* \"#utility.yul\":1976:2047   */\n      tag_104\n        /* \"#utility.yul\":2044:2045   */\n      0x00\n        /* \"#utility.yul\":2033:2042   */\n      dup4\n        /* \"#utility.yul\":2029:2046   */\n      add\n        /* \"#utility.yul\":2020:2026   */\n      dup5\n        /* \"#utility.yul\":1976:2047   */\n      tag_74\n      jump\t// in\n    tag_104:\n        /* \"#utility.yul\":1832:2054   */\n      swap3\n      swap2\n      pop\n      pop\n      jump\t// out\n        /* \"#utility.yul\":2060:2229   */\n    tag_75:\n        /* \"#utility.yul\":2144:2155   */\n      0x00\n        /* \"#utility.yul\":2178:2184   */\n      dup3\n        /* \"#utility.yul\":2173:2176   */\n      dup3\n        /* \"#utility.yul\":2166:2185   */\n      mstore\n        /* \"#utility.yul\":2218:2222   */\n      0x20\n        /* \"#utility.yul\":2213:2216   */\n      dup3\n        /* \"#utility.yul\":2209:2223   */\n      add\n        /* \"#utility.yul\":2194:2223   */\n      swap1\n      pop\n        /* \"#utility.yul\":2060:2229   */\n      swap3\n      swap2\n      pop\n      pop\n      jump\t// out\n        /* \"#utility.yul\":2235:2413   */\n    tag_76:\n        /* \"#utility.yul\":2375:2405   */\n      0x4f6e6c792062757965722063616e206465706f7369742066756e647300000000\n        /* \"#utility.yul\":2371:2372   */\n      0x00\n        /* \"#utility.yul\":2363:2369   */\n      dup3\n        /* \"#utility.yul\":2359:2373   */\n      add\n        /* \"#utility.yul\":2352:2406   */\n      mstore\n        /* \"#utility.yul\":2235:2413   */\n      pop\n      jump\t// out\n        /* \"#utility.yul\":2419:2785   */\n    tag_77:\n        /* \"#utility.yul\":2561:2564   */\n      0x00\n        /* \"#utility.yul\":2582:2649   */\n      tag_108\n        /* \"#utility.yul\":2646:2648   */\n      0x1c\n        /* \"#utility.yul\":2641:2644   */\n      dup4\n        /* \"#utility.yul\":2582:2649   */\n      tag_75\n      jump\t// in\n    tag_108:\n        /* \"#utility.yul\":2575:2649   */\n      swap2\n      pop\n        /* \"#utility.yul\":2658:2751   */\n      tag_109\n        /* \"#utility.yul\":2747:2750   */\n      dup3\n        /* \"#utility.yul\":2658:2751   */\n      tag_76\n      jump\t// in\n    tag_109:\n        /* \"#utility.yul\":2776:2778   */\n      0x20\n        /* \"#utility.yul\":2771:2774   */\n      dup3\n        /* \"#utility.yul\":2767:2779   */\n      add\n        /* \"#utility.yul\":2760:2779   */\n      swap1\n      pop\n        /* \"#utility.yul\":2419:2785   */\n      swap2\n      swap1\n      pop\n      jump\t// out\n        /* \"#utility.yul\":2791:3210   */\n    tag_57:\n        /* \"#utility.yul\":2957:2961   */\n      0x00\n        /* \"#utility.yul\":2995:2997   */\n      0x20\n        /* \"#utility.yul\":2984:2993   */\n      dup3\n        /* \"#utility.yul\":2980:2998   */\n      add\n        /* \"#utility.yul\":2972:2998   */\n      swap1\n      pop\n        /* \"#utility.yul\":3044:3053   */\n      dup2\n        /* \"#utility.yul\":3038:3042   */\n      dup2\n        /* \"#utility.yul\":3034:3054   */\n      sub\n        /* \"#utility.yul\":3030:3031   */\n      0x00\n        /* \"#utility.yul\":3019:3028   */\n      dup4\n        /* \"#utility.yul\":3015:3032   */\n      add\n        /* \"#utility.yul\":3008:3055   */\n      mstore\n        /* \"#utility.yul\":3072:3203   */\n      tag_111\n        /* \"#utility.yul\":3198:3202   */\n      dup2\n        /* \"#utility.yul\":3072:3203   */\n      tag_77\n      jump\t// in\n    tag_111:\n        /* \"#utility.yul\":3064:3203   */\n      swap1\n      pop\n        /* \"#utility.yul\":2791:3210   */\n      swap2\n      swap1\n      pop\n      jump\t// out\n        /* \"#utility.yul\":3216:3452   */\n    tag_78:\n        /* \"#utility.yul\":3356:3390   */\n      0x436f6e7472616374206d75737420626520696e20616374697665207374617465\n        /* \"#utility.yul\":3352:3353   */\n      0x00\n        /* \"#utility.yul\":3344:3350   */\n      dup3\n        /* \"#utility.yul\":3340:3354   */\n      add\n        /* \"#utility.yul\":3333:3391   */\n      mstore\n        /* \"#utility.yul\":3425:3444   */\n      0x20746f206465706f7369742066756e6473000000000000000000000000000000\n        /* \"#utility.yul\":3420:3422   */\n      0x20\n        /* \"#utility.yul\":3412:3418   */\n      dup3\n        /* \"#utility.yul\":3408:3423   */\n      add\n        /* \"#utility.yul\":3401:3445   */\n      mstore\n        /* \"#utility.yul\":3216:3452   */\n      pop\n      jump\t// out\n        /* \"#utility.yul\":3458:3824   */\n    tag_79:\n        /* \"#utility.yul\":3600:3603   */\n      0x00\n        /* \"#utility.yul\":3621:3688   */\n      tag_114\n        /* \"#utility.yul\":3685:3687   */\n      0x31\n        /* \"#utility.yul\":3680:3683   */\n      dup4\n        /* \"#utility.yul\":3621:3688   */\n      tag_75\n      jump\t// in\n    tag_114:\n        /* \"#utility.yul\":3614:3688   */\n      swap2\n      pop\n        /* \"#utility.yul\":3697:3790   */\n      tag_115\n        /* \"#utility.yul\":3786:3789   */\n      dup3\n        /* \"#utility.yul\":3697:3790   */\n      tag_78\n      jump\t// in\n    tag_115:\n        /* \"#utility.yul\":3815:3817   */\n      0x40\n        /* \"#utility.yul\":3810:3813   */\n      dup3\n        /* \"#utility.yul\":3806:3818   */\n      add\n        /* \"#utility.yul\":3799:3818   */\n      swap1\n      pop\n        /* \"#utility.yul\":3458:3824   */\n      swap2\n      swap1\n      pop\n      jump\t// out\n        /* \"#utility.yul\":3830:4249   */\n    tag_65:\n        /* \"#utility.yul\":3996:4000   */\n      0x00\n        /* \"#utility.yul\":4034:4036   */\n      0x20\n        /* \"#utility.yul\":4023:4032   */\n      dup3\n        /* \"#utility.yul\":4019:4037   */\n      add\n        /* \"#utility.yul\":4011:4037   */\n      swap1\n      pop\n        /* \"#utility.yul\":4083:4092   */\n      dup2\n        /* \"#utility.yul\":4077:4081   */\n      dup2\n        /* \"#utility.yul\":4073:4093   */\n      sub\n        /* \"#utility.yul\":4069:4070   */\n      0x00\n        /* \"#utility.yul\":4058:4067   */\n      dup4\n        /* \"#utility.yul\":4054:4071   */\n      add\n        /* \"#utility.yul\":4047:4094   */\n      mstore\n        /* \"#utility.yul\":4111:4242   */\n      tag_117\n        /* \"#utility.yul\":4237:4241   */\n      dup2\n        /* \"#utility.yul\":4111:4242   */\n      tag_79\n      jump\t// in\n    tag_117:\n        /* \"#utility.yul\":4103:4242   */\n      swap1\n      pop\n        /* \"#utility.yul\":3830:4249   */\n      swap2\n      swap1\n      pop\n      jump\t// out\n\n    auxdata: 0xa2646970667358221220bb83cd7cacd23566a08ede052cacaa161f35fc7008dc572e34076bb567bb51a864736f6c63430008180033\n}\n",
				"bytecode": {
					"linkReferences": {},
					"object": "60806040525f60045f6101000a81548160ff0219169083600281111561002857610027610072565b5b02179055503360025f6101000a81548173ffffffffffffffffffffffffffffffffffffffff021916908373ffffffffffffffffffffffffffffffffffffffff16021790555061009f565b7f4e487b71000000000000000000000000000000000000000000000000000000005f52602160045260245ffd5b610609806100ac5f395ff3fe608060405260043610610090575f3560e01c8063995e770b11610058578063995e770b14610166578063a001ecdd14610190578063c6f221aa146101ba578063d0e30db0146101e4578063e1f6c098146101ee57610090565b806308551a53146100945780630c3f6acf146100be578063166573e5146100e857806347a7846f146101125780637150d8ae1461013c575b5f80fd5b34801561009f575f80fd5b506100a8610218565b6040516100b591906103f7565b60405180910390f35b3480156100c9575f80fd5b506100d261023d565b6040516100df9190610483565b60405180910390f35b3480156100f3575f80fd5b506100fc61024f565b60405161010991906104b4565b60405180910390f35b34801561011d575f80fd5b50610126610255565b60405161013391906104b4565b60405180910390f35b348015610147575f80fd5b5061015061025b565b60405161015d91906103f7565b60405180910390f35b348015610171575f80fd5b5061017a61027e565b60405161018791906104b4565b60405180910390f35b34801561019b575f80fd5b506101a4610284565b6040516101b191906104b4565b60405180910390f35b3480156101c5575f80fd5b506101ce61028a565b6040516101db91906104b4565b60405180910390f35b6101ec610290565b005b3480156101f9575f80fd5b50610202610393565b60405161020f91906103f7565b60405180910390f35b60015f9054906101000a900473ffffffffffffffffffffffffffffffffffffffff1681565b60045f9054906101000a900460ff1681565b60055481565b60035481565b5f8054906101000a900473ffffffffffffffffffffffffffffffffffffffff1681565b60085481565b60065481565b60075481565b5f8054906101000a900473ffffffffffffffffffffffffffffffffffffffff1673ffffffffffffffffffffffffffffffffffffffff163373ffffffffffffffffffffffffffffffffffffffff161461031d576040517f08c379a000000000000000000000000000000000000000000000000000000000815260040161031490610527565b60405180910390fd5b5f60028111156103305761032f610410565b5b60045f9054906101000a900460ff16600281111561035157610350610410565b5b14610391576040517f08c379a0000000000000000000000000000000000000000000000000000000008152600401610388906105b5565b60405180910390fd5b565b60025f9054906101000a900473ffffffffffffffffffffffffffffffffffffffff1681565b5f73ffffffffffffffffffffffffffffffffffffffff82169050919050565b5f6103e1826103b8565b9050919050565b6103f1816103d7565b82525050565b5f60208201905061040a5f8301846103e8565b92915050565b7f4e487b71000000000000000000000000000000000000000000000000000000005f52602160045260245ffd5b6003811061044e5761044d610410565b5b50565b5f81905061045e8261043d565b919050565b5f61046d82610451565b9050919050565b61047d81610463565b82525050565b5f6020820190506104965f830184610474565b92915050565b5f819050919050565b6104ae8161049c565b82525050565b5f6020820190506104c75f8301846104a5565b92915050565b5f82825260208201905092915050565b7f4f6e6c792062757965722063616e206465706f7369742066756e6473000000005f82015250565b5f610511601c836104cd565b915061051c826104dd565b602082019050919050565b5f6020820190508181035f83015261053e81610505565b9050919050565b7f436f6e7472616374206d75737420626520696e206163746976652073746174655f8201527f20746f206465706f7369742066756e6473000000000000000000000000000000602082015250565b5f61059f6031836104cd565b91506105aa82610545565b604082019050919050565b5f6020820190508181035f8301526105cc81610593565b905091905056fea2646970667358221220bb83cd7cacd23566a08ede052cacaa161f35fc7008dc572e34076bb567bb51a864736f6c63430008180033",
					"opcodes": "PUSH1 0x80 PUSH1 0x40 MSTORE PUSH0 PUSH1 0x4 PUSH0 PUSH2 0x100 EXP DUP2 SLOAD DUP2 PUSH1 0xFF MUL NOT AND SWAP1 DUP4 PUSH1 0x2 DUP2 GT ISZERO PUSH2 0x28 JUMPI PUSH2 0x27 PUSH2 0x72 JUMP JUMPDEST JUMPDEST MUL OR SWAP1 SSTORE POP CALLER PUSH1 0x2 PUSH0 PUSH2 0x100 EXP DUP2 SLOAD DUP2 PUSH20 0xFFFFFFFFFFFFFFFFFFFFFFFFFFFFFFFFFFFFFFFF MUL NOT AND SWAP1 DUP4 PUSH20 0xFFFFFFFFFFFFFFFFFFFFFFFFFFFFFFFFFFFFFFFF AND MUL OR SWAP1 SSTORE POP PUSH2 0x9F JUMP JUMPDEST PUSH32 0x4E487B7100000000000000000000000000000000000000000000000000000000 PUSH0 MSTORE PUSH1 0x21 PUSH1 0x4 MSTORE PUSH1 0x24 PUSH0 REVERT JUMPDEST PUSH2 0x609 DUP1 PUSH2 0xAC PUSH0 CODECOPY PUSH0 RETURN INVALID PUSH1 0x80 PUSH1 0x40 MSTORE PUSH1 0x4 CALLDATASIZE LT PUSH2 0x90 JUMPI PUSH0 CALLDATALOAD PUSH1 0xE0 SHR DUP1 PUSH4 0x995E770B GT PUSH2 0x58 JUMPI DUP1 PUSH4 0x995E770B EQ PUSH2 0x166 JUMPI DUP1 PUSH4 0xA001ECDD EQ PUSH2 0x190 JUMPI DUP1 PUSH4 0xC6F221AA EQ PUSH2 0x1BA JUMPI DUP1 PUSH4 0xD0E30DB0 EQ PUSH2 0x1E4 JUMPI DUP1 PUSH4 0xE1F6C098 EQ PUSH2 0x1EE JUMPI PUSH2 0x90 JUMP JUMPDEST DUP1 PUSH4 0x8551A53 EQ PUSH2 0x94 JUMPI DUP1 PUSH4 0xC3F6ACF EQ PUSH2 0xBE JUMPI DUP1 PUSH4 0x166573E5 EQ PUSH2 0xE8 JUMPI DUP1 PUSH4 0x47A7846F EQ PUSH2 0x112 JUMPI DUP1 PUSH4 0x7150D8AE EQ PUSH2 0x13C JUMPI JUMPDEST PUSH0 DUP1 REVERT JUMPDEST CALLVALUE DUP1 ISZERO PUSH2 0x9F JUMPI PUSH0 DUP1 REVERT JUMPDEST POP PUSH2 0xA8 PUSH2 0x218 JUMP JUMPDEST PUSH1 0x40 MLOAD PUSH2 0xB5 SWAP2 SWAP1 PUSH2 0x3F7 JUMP JUMPDEST PUSH1 0x40 MLOAD DUP1 SWAP2 SUB SWAP1 RETURN JUMPDEST CALLVALUE DUP1 ISZERO PUSH2 0xC9 JUMPI PUSH0 DUP1 REVERT JUMPDEST POP PUSH2 0xD2 PUSH2 0x23D JUMP JUMPDEST PUSH1 0x40 MLOAD PUSH2 0xDF SWAP2 SWAP1 PUSH2 0x483 JUMP JUMPDEST PUSH1 0x40 MLOAD DUP1 SWAP2 SUB SWAP1 RETURN JUMPDEST CALLVALUE DUP1 ISZERO PUSH2 0xF3 JUMPI PUSH0 DUP1 REVERT JUMPDEST POP PUSH2 0xFC PUSH2 0x24F JUMP JUMPDEST PUSH1 0x40 MLOAD PUSH2 0x109 SWAP2 SWAP1 PUSH2 0x4B4 JUMP JUMPDEST PUSH1 0x40 MLOAD DUP1 SWAP2 SUB SWAP1 RETURN JUMPDEST CALLVALUE DUP1 ISZERO PUSH2 0x11D JUMPI PUSH0 DUP1 REVERT JUMPDEST POP PUSH2 0x126 PUSH2 0x255 JUMP JUMPDEST PUSH1 0x40 MLOAD PUSH2 0x133 SWAP2 SWAP1 PUSH2 0x4B4 JUMP JUMPDEST PUSH1 0x40 MLOAD DUP1 SWAP2 SUB SWAP1 RETURN JUMPDEST CALLVALUE DUP1 ISZERO PUSH2 0x147 JUMPI PUSH0 DUP1 REVERT JUMPDEST POP PUSH2 0x150 PUSH2 0x25B JUMP JUMPDEST PUSH1 0x40 MLOAD PUSH2 0x15D SWAP2 SWAP1 PUSH2 0x3F7 JUMP JUMPDEST PUSH1 0x40 MLOAD DUP1 SWAP2 SUB SWAP1 RETURN JUMPDEST CALLVALUE DUP1 ISZERO PUSH2 0x171 JUMPI PUSH0 DUP1 REVERT JUMPDEST POP PUSH2 0x17A PUSH2 0x27E JUMP JUMPDEST PUSH1 0x40 MLOAD PUSH2 0x187 SWAP2 SWAP1 PUSH2 0x4B4 JUMP JUMPDEST PUSH1 0x40 MLOAD DUP1 SWAP2 SUB SWAP1 RETURN JUMPDEST CALLVALUE DUP1 ISZERO PUSH2 0x19B JUMPI PUSH0 DUP1 REVERT JUMPDEST POP PUSH2 0x1A4 PUSH2 0x284 JUMP JUMPDEST PUSH1 0x40 MLOAD PUSH2 0x1B1 SWAP2 SWAP1 PUSH2 0x4B4 JUMP JUMPDEST PUSH1 0x40 MLOAD DUP1 SWAP2 SUB SWAP1 RETURN JUMPDEST CALLVALUE DUP1 ISZERO PUSH2 0x1C5 JUMPI PUSH0 DUP1 REVERT JUMPDEST POP PUSH2 0x1CE PUSH2 0x28A JUMP JUMPDEST PUSH1 0x40 MLOAD PUSH2 0x1DB SWAP2 SWAP1 PUSH2 0x4B4 JUMP JUMPDEST PUSH1 0x40 MLOAD DUP1 SWAP2 SUB SWAP1 RETURN JUMPDEST PUSH2 0x1EC PUSH2 0x290 JUMP JUMPDEST STOP JUMPDEST CALLVALUE DUP1 ISZERO PUSH2 0x1F9 JUMPI PUSH0 DUP1 REVERT JUMPDEST POP PUSH2 0x202 PUSH2 0x393 JUMP JUMPDEST PUSH1 0x40 MLOAD PUSH2 0x20F SWAP2 SWAP1 PUSH2 0x3F7 JUMP JUMPDEST PUSH1 0x40 MLOAD DUP1 SWAP2 SUB SWAP1 RETURN JUMPDEST PUSH1 0x1 PUSH0 SWAP1 SLOAD SWAP1 PUSH2 0x100 EXP SWAP1 DIV PUSH20 0xFFFFFFFFFFFFFFFFFFFFFFFFFFFFFFFFFFFFFFFF AND DUP2 JUMP JUMPDEST PUSH1 0x4 PUSH0 SWAP1 SLOAD SWAP1 PUSH2 0x100 EXP SWAP1 DIV PUSH1 0xFF AND DUP2 JUMP JUMPDEST PUSH1 0x5 SLOAD DUP2 JUMP JUMPDEST PUSH1 0x3 SLOAD DUP2 JUMP JUMPDEST PUSH0 DUP1 SLOAD SWAP1 PUSH2 0x100 EXP SWAP1 DIV PUSH20 0xFFFFFFFFFFFFFFFFFFFFFFFFFFFFFFFFFFFFFFFF AND DUP2 JUMP JUMPDEST PUSH1 0x8 SLOAD DUP2 JUMP JUMPDEST PUSH1 0x6 SLOAD DUP2 JUMP JUMPDEST PUSH1 0x7 SLOAD DUP2 JUMP JUMPDEST PUSH0 DUP1 SLOAD SWAP1 PUSH2 0x100 EXP SWAP1 DIV PUSH20 0xFFFFFFFFFFFFFFFFFFFFFFFFFFFFFFFFFFFFFFFF AND PUSH20 0xFFFFFFFFFFFFFFFFFFFFFFFFFFFFFFFFFFFFFFFF AND CALLER PUSH20 0xFFFFFFFFFFFFFFFFFFFFFFFFFFFFFFFFFFFFFFFF AND EQ PUSH2 0x31D JUMPI PUSH1 0x40 MLOAD PUSH32 0x8C379A000000000000000000000000000000000000000000000000000000000 DUP2 MSTORE PUSH1 0x4 ADD PUSH2 0x314 SWAP1 PUSH2 0x527 JUMP JUMPDEST PUSH1 0x40 MLOAD DUP1 SWAP2 SUB SWAP1 REVERT JUMPDEST PUSH0 PUSH1 0x2 DUP2 GT ISZERO PUSH2 0x330 JUMPI PUSH2 0x32F PUSH2 0x410 JUMP JUMPDEST JUMPDEST PUSH1 0x4 PUSH0 SWAP1 SLOAD SWAP1 PUSH2 0x100 EXP SWAP1 DIV PUSH1 0xFF AND PUSH1 0x2 DUP2 GT ISZERO PUSH2 0x351 JUMPI PUSH2 0x350 PUSH2 0x410 JUMP JUMPDEST JUMPDEST EQ PUSH2 0x391 JUMPI PUSH1 0x40 MLOAD PUSH32 0x8C379A000000000000000000000000000000000000000000000000000000000 DUP2 MSTORE PUSH1 0x4 ADD PUSH2 0x388 SWAP1 PUSH2 0x5B5 JUMP JUMPDEST PUSH1 0x40 MLOAD DUP1 SWAP2 SUB SWAP1 REVERT JUMPDEST JUMP JUMPDEST PUSH1 0x2 PUSH0 SWAP1 SLOAD SWAP1 PUSH2 0x100 EXP SWAP1 DIV PUSH20 0xFFFFFFFFFFFFFFFFFFFFFFFFFFFFFFFFFFFFFFFF AND DUP2 JUMP JUMPDEST PUSH0 PUSH20 0xFFFFFFFFFFFFFFFFFFFFFFFFFFFFFFFFFFFFFFFF DUP3 AND SWAP1 POP SWAP2 SWAP1 POP JUMP JUMPDEST PUSH0 PUSH2 0x3E1 DUP3 PUSH2 0x3B8 JUMP JUMPDEST SWAP1 POP SWAP2 SWAP1 POP JUMP JUMPDEST PUSH2 0x3F1 DUP2 PUSH2 0x3D7 JUMP JUMPDEST DUP3 MSTORE POP POP JUMP JUMPDEST PUSH0 PUSH1 0x20 DUP3 ADD SWAP1 POP PUSH2 0x40A PUSH0 DUP4 ADD DUP5 PUSH2 0x3E8 JUMP JUMPDEST SWAP3 SWAP2 POP POP JUMP JUMPDEST PUSH32 0x4E487B7100000000000000000000000000000000000000000000000000000000 PUSH0 MSTORE PUSH1 0x21 PUSH1 0x4 MSTORE PUSH1 0x24 PUSH0 REVERT JUMPDEST PUSH1 0x3 DUP2 LT PUSH2 0x44E JUMPI PUSH2 0x44D PUSH2 0x410 JUMP JUMPDEST JUMPDEST POP JUMP JUMPDEST PUSH0 DUP2 SWAP1 POP PUSH2 0x45E DUP3 PUSH2 0x43D JUMP JUMPDEST SWAP2 SWAP1 POP JUMP JUMPDEST PUSH0 PUSH2 0x46D DUP3 PUSH2 0x451 JUMP JUMPDEST SWAP1 POP SWAP2 SWAP1 POP JUMP JUMPDEST PUSH2 0x47D DUP2 PUSH2 0x463 JUMP JUMPDEST DUP3 MSTORE POP POP JUMP JUMPDEST PUSH0 PUSH1 0x20 DUP3 ADD SWAP1 POP PUSH2 0x496 PUSH0 DUP4 ADD DUP5 PUSH2 0x474 JUMP JUMPDEST SWAP3 SWAP2 POP POP JUMP JUMPDEST PUSH0 DUP2 SWAP1 POP SWAP2 SWAP1 POP JUMP JUMPDEST PUSH2 0x4AE DUP2 PUSH2 0x49C JUMP JUMPDEST DUP3 MSTORE POP POP JUMP JUMPDEST PUSH0 PUSH1 0x20 DUP3 ADD SWAP1 POP PUSH2 0x4C7 PUSH0 DUP4 ADD DUP5 PUSH2 0x4A5 JUMP JUMPDEST SWAP3 SWAP2 POP POP JUMP JUMPDEST PUSH0 DUP3 DUP3 MSTORE PUSH1 0x20 DUP3 ADD SWAP1 POP SWAP3 SWAP2 POP POP JUMP JUMPDEST PUSH32 0x4F6E6C792062757965722063616E206465706F7369742066756E647300000000 PUSH0 DUP3 ADD MSTORE POP JUMP JUMPDEST PUSH0 PUSH2 0x511 PUSH1 0x1C DUP4 PUSH2 0x4CD JUMP JUMPDEST SWAP2 POP PUSH2 0x51C DUP3 PUSH2 0x4DD JUMP JUMPDEST PUSH1 0x20 DUP3 ADD SWAP1 POP SWAP2 SWAP1 POP JUMP JUMPDEST PUSH0 PUSH1 0x20 DUP3 ADD SWAP1 POP DUP2 DUP2 SUB PUSH0 DUP4 ADD MSTORE PUSH2 0x53E DUP2 PUSH2 0x505 JUMP JUMPDEST SWAP1 POP SWAP2 SWAP1 POP JUMP JUMPDEST PUSH32 0x436F6E7472616374206D75737420626520696E20616374697665207374617465 PUSH0 DUP3 ADD MSTORE PUSH32 0x20746F206465706F7369742066756E6473000000000000000000000000000000 PUSH1 0x20 DUP3 ADD MSTORE POP JUMP JUMPDEST PUSH0 PUSH2 0x59F PUSH1 0x31 DUP4 PUSH2 0x4CD JUMP JUMPDEST SWAP2 POP PUSH2 0x5AA DUP3 PUSH2 0x545 JUMP JUMPDEST PUSH1 0x40 DUP3 ADD SWAP1 POP SWAP2 SWAP1 POP JUMP JUMPDEST PUSH0 PUSH1 0x20 DUP3 ADD SWAP1 POP DUP2 DUP2 SUB PUSH0 DUP4 ADD MSTORE PUSH2 0x5CC DUP2 PUSH2 0x593 JUMP JUMPDEST SWAP1 POP SWAP2 SWAP1 POP JUMP INVALID LOG2 PUSH5 0x6970667358 0x22 SLT KECCAK256 0xBB DUP4 0xCD PUSH29 0xACD23566A08EDE052CACAA161F35FC7008DC572E34076BB567BB51A864 PUSH20 0x6F6C634300081800330000000000000000000000 "
				},
				"gasEstimates": {
					"creation": {
						"codeDepositCost": "309000",
						"executionCost": "48885",
						"totalCost": "357885"
					},
					"external": {
						"Deadline()": "2469",
						"amountPaidInEscrow()": "2425",
						"buyer()": "2594",
						"currentState()": "2577",
						"deposit()": "4862",
						"escrowAgent()": "2596",
						"escrowAmount()": "2492",
						"feePercentage()": "2447",
						"isDispute()": "2470",
						"seller()": "2509"
					}
				},
				"methodIdentifiers": {
					"Deadline()": "c6f221aa",
					"amountPaidInEscrow()": "995e770b",
					"buyer()": "7150d8ae",
					"currentState()": "0c3f6acf",
					"deposit()": "d0e30db0",
					"escrowAgent()": "e1f6c098",
					"escrowAmount()": "47a7846f",
					"feePercentage()": "a001ecdd",
					"isDispute()": "166573e5",
					"seller()": "08551a53"
				}
			},
			"storageLayout": {
				"storage": [
					{
						"astId": 3,
						"contract": "Escrow smart contract.sol:Escrow",
						"label": "buyer",
						"offset": 0,
						"slot": "0",
						"type": "t_address"
					},
					{
						"astId": 5,
						"contract": "Escrow smart contract.sol:Escrow",
						"label": "seller",
						"offset": 0,
						"slot": "1",
						"type": "t_address"
					},
					{
						"astId": 7,
						"contract": "Escrow smart contract.sol:Escrow",
						"label": "escrowAgent",
						"offset": 0,
						"slot": "2",
						"type": "t_address"
					},
					{
						"astId": 9,
						"contract": "Escrow smart contract.sol:Escrow",
						"label": "escrowAmount",
						"offset": 0,
						"slot": "3",
						"type": "t_uint256"
					},
					{
						"astId": 16,
						"contract": "Escrow smart contract.sol:Escrow",
						"label": "currentState",
						"offset": 0,
						"slot": "4",
						"type": "t_enum(contractState)13"
					},
					{
						"astId": 32,
						"contract": "Escrow smart contract.sol:Escrow",
						"label": "isDispute",
						"offset": 0,
						"slot": "5",
						"type": "t_uint256"
					},
					{
						"astId": 34,
						"contract": "Escrow smart contract.sol:Escrow",
						"label": "feePercentage",
						"offset": 0,
						"slot": "6",
						"type": "t_uint256"
					},
					{
						"astId": 36,
						"contract": "Escrow smart contract.sol:Escrow",
						"label": "Deadline",
						"offset": 0,
						"slot": "7",
						"type": "t_uint256"
					},
					{
						"astId": 38,
						"contract": "Escrow smart contract.sol:Escrow",
						"label": "amountPaidInEscrow",
						"offset": 0,
						"slot": "8",
						"type": "t_uint256"
					}
				],
				"types": {
					"t_address": {
						"encoding": "inplace",
						"label": "address",
						"numberOfBytes": "20"
					},
					"t_enum(contractState)13": {
						"encoding": "inplace",
						"label": "enum Escrow.contractState",
						"numberOfBytes": "1"
					},
					"t_uint256": {
						"encoding": "inplace",
						"label": "uint256",
						"numberOfBytes": "32"
					}
				}
			},
			"userdoc": {
				"kind": "user",
				"methods": {},
				"version": 1
			}
		}
	}
}