{
	"Escrow smart contract.sol": {
		"Escrow": {
			"abi": [
				{
					"inputs": [],
					"stateMutability": "payable",
					"type": "constructor"
				},
				{
					"anonymous": false,
					"inputs": [
						{
							"indexed": true,
							"internalType": "address",
							"name": "by",
							"type": "address"
						}
					],
					"name": "DisputeRaised",
					"type": "event"
				},
				{
					"anonymous": false,
					"inputs": [
						{
							"indexed": true,
							"internalType": "address",
							"name": "winner",
							"type": "address"
						},
						{
							"indexed": false,
							"internalType": "uint256",
							"name": "amount",
							"type": "uint256"
						}
					],
					"name": "DisputeResolved",
					"type": "event"
				},
				{
					"anonymous": false,
					"inputs": [
						{
							"indexed": true,
							"internalType": "address",
							"name": "to",
							"type": "address"
						},
						{
							"indexed": false,
							"internalType": "uint256",
							"name": "amount",
							"type": "uint256"
						}
					],
					"name": "FundsReleased",
					"type": "event"
				},
				{
					"inputs": [],
					"name": "Deadline",
					"outputs": [
						{
							"internalType": "uint256",
							"name": "",
							"type": "uint256"
						}
					],
					"stateMutability": "view",
					"type": "function"
				},
				{
					"inputs": [],
					"name": "amountPaidInEscrow",
					"outputs": [
						{
							"internalType": "uint256",
							"name": "",
							"type": "uint256"
						}
					],
					"stateMutability": "view",
					"type": "function"
				},
				{
					"inputs": [],
					"name": "buyer",
					"outputs": [
						{
							"internalType": "address",
							"name": "",
							"type": "address"
						}
					],
					"stateMutability": "view",
					"type": "function"
				},
				{
					"inputs": [],
					"name": "buyerConfirmed",
					"outputs": [
						{
							"internalType": "bool",
							"name": "",
							"type": "bool"
						}
					],
					"stateMutability": "view",
					"type": "function"
				},
				{
					"inputs": [],
					"name": "complete",
					"outputs": [],
					"stateMutability": "payable",
					"type": "function"
				},
				{
					"inputs": [],
					"name": "confirmDeliverlyByBuyer",
					"outputs": [],
					"stateMutability": "nonpayable",
					"type": "function"
				},
				{
					"inputs": [],
					"name": "confirmDelivery",
					"outputs": [],
					"stateMutability": "payable",
					"type": "function"
				},
				{
					"inputs": [],
					"name": "currentState",
					"outputs": [
						{
							"internalType": "enum Escrow.contractState",
							"name": "",
							"type": "uint8"
						}
					],
					"stateMutability": "view",
					"type": "function"
				},
				{
					"inputs": [],
					"name": "deposit",
					"outputs": [],
					"stateMutability": "payable",
					"type": "function"
				},
				{
					"inputs": [],
					"name": "escrowAgent",
					"outputs": [
						{
							"internalType": "address",
							"name": "",
							"type": "address"
						}
					],
					"stateMutability": "view",
					"type": "function"
				},
				{
					"inputs": [],
					"name": "escrowAmount",
					"outputs": [
						{
							"internalType": "uint256",
							"name": "",
							"type": "uint256"
						}
					],
					"stateMutability": "view",
					"type": "function"
				},
				{
					"inputs": [],
					"name": "feePercentage",
					"outputs": [
						{
							"internalType": "uint256",
							"name": "",
							"type": "uint256"
						}
					],
					"stateMutability": "view",
					"type": "function"
				},
				{
					"inputs": [],
					"name": "isDispute",
					"outputs": [
						{
							"internalType": "uint256",
							"name": "",
							"type": "uint256"
						}
					],
					"stateMutability": "view",
					"type": "function"
				},
				{
					"inputs": [],
					"name": "resolveDispute",
					"outputs": [],
					"stateMutability": "payable",
					"type": "function"
				},
				{
					"inputs": [],
					"name": "seller",
					"outputs": [
						{
							"internalType": "address",
							"name": "",
							"type": "address"
						}
					],
					"stateMutability": "view",
					"type": "function"
				},
				{
					"inputs": [],
					"name": "sellerConfirmed",
					"outputs": [
						{
							"internalType": "bool",
							"name": "",
							"type": "bool"
						}
					],
					"stateMutability": "view",
					"type": "function"
				}
			],
			"devdoc": {
				"kind": "dev",
				"methods": {},
				"version": 1
			},
			"evm": {
				"assembly": "    /* \"Escrow smart contract.sol\":87:5003  contract Escrow {... */\n  mstore(0x40, 0x80)\n    /* \"Escrow smart contract.sol\":1183:1203  contractState.Active */\n  0x00\n    /* \"Escrow smart contract.sol\":1168:1180  currentState */\n  0x04\n  0x02\n    /* \"Escrow smart contract.sol\":1168:1203  currentState = contractState.Active */\n  0x0100\n  exp\n  dup2\n  sload\n  dup2\n  0xff\n  mul\n  not\n  and\n  swap1\n  dup4\n  0x02\n  dup2\n  gt\n  iszero\n  tag_3\n  jumpi\n  tag_4\n  tag_5\n  jump\t// in\ntag_4:\ntag_3:\n  mul\n  or\n  swap1\n  sstore\n  pop\n    /* \"Escrow smart contract.sol\":1264:1274  msg.sender */\n  caller\n    /* \"Escrow smart contract.sol\":1250:1261  escrowAgent */\n  0x02\n  0x00\n    /* \"Escrow smart contract.sol\":1250:1274  escrowAgent = msg.sender */\n  0x0100\n  exp\n  dup2\n  sload\n  dup2\n  0xffffffffffffffffffffffffffffffffffffffff\n  mul\n  not\n  and\n  swap1\n  dup4\n  0xffffffffffffffffffffffffffffffffffffffff\n  and\n  mul\n  or\n  swap1\n  sstore\n  pop\n    /* \"Escrow smart contract.sol\":87:5003  contract Escrow {... */\n  jump(tag_6)\n    /* \"#utility.yul\":7:187   */\ntag_5:\n    /* \"#utility.yul\":55:132   */\n  0x4e487b7100000000000000000000000000000000000000000000000000000000\n    /* \"#utility.yul\":52:53   */\n  0x00\n    /* \"#utility.yul\":45:133   */\n  mstore\n    /* \"#utility.yul\":152:156   */\n  0x21\n    /* \"#utility.yul\":149:150   */\n  0x04\n    /* \"#utility.yul\":142:157   */\n  mstore\n    /* \"#utility.yul\":176:180   */\n  0x24\n    /* \"#utility.yul\":173:174   */\n  0x00\n    /* \"#utility.yul\":166:181   */\n  revert\n    /* \"Escrow smart contract.sol\":87:5003  contract Escrow {... */\ntag_6:\n  dataSize(sub_0)\n  dup1\n  dataOffset(sub_0)\n  0x00\n  codecopy\n  0x00\n  return\nstop\n\nsub_0: assembly {\n        /* \"Escrow smart contract.sol\":87:5003  contract Escrow {... */\n      mstore(0x40, 0x80)\n      jumpi(tag_1, lt(calldatasize, 0x04))\n      shr(0xe0, calldataload(0x00))\n      dup1\n      0x5e10177b\n      gt\n      tag_18\n      jumpi\n      dup1\n      0xc6f221aa\n      gt\n      tag_19\n      jumpi\n      dup1\n      0xc6f221aa\n      eq\n      tag_14\n      jumpi\n      dup1\n      0xd0e30db0\n      eq\n      tag_15\n      jumpi\n      dup1\n      0xe1f6c098\n      eq\n      tag_16\n      jumpi\n      dup1\n      0xf6cb6ea8\n      eq\n      tag_17\n      jumpi\n      jump(tag_1)\n    tag_19:\n      dup1\n      0x5e10177b\n      eq\n      tag_10\n      jumpi\n      dup1\n      0x7150d8ae\n      eq\n      tag_11\n      jumpi\n      dup1\n      0x995e770b\n      eq\n      tag_12\n      jumpi\n      dup1\n      0xa001ecdd\n      eq\n      tag_13\n      jumpi\n      jump(tag_1)\n    tag_18:\n      dup1\n      0x47a7846f\n      gt\n      tag_20\n      jumpi\n      dup1\n      0x47a7846f\n      eq\n      tag_6\n      jumpi\n      dup1\n      0x48a1335a\n      eq\n      tag_7\n      jumpi\n      dup1\n      0x522e1177\n      eq\n      tag_8\n      jumpi\n      dup1\n      0x5b39a33f\n      eq\n      tag_9\n      jumpi\n      jump(tag_1)\n    tag_20:\n      dup1\n      0x08551a53\n      eq\n      tag_2\n      jumpi\n      dup1\n      0x0c3f6acf\n      eq\n      tag_3\n      jumpi\n      dup1\n      0x166573e5\n      eq\n      tag_4\n      jumpi\n      dup1\n      0x24e6d8b4\n      eq\n      tag_5\n      jumpi\n    tag_1:\n      0x00\n      dup1\n      revert\n        /* \"Escrow smart contract.sol\":146:167  address public seller */\n    tag_2:\n      callvalue\n      dup1\n      iszero\n      tag_21\n      jumpi\n      0x00\n      dup1\n      revert\n    tag_21:\n      pop\n      tag_22\n      tag_23\n      jump\t// in\n    tag_22:\n      mload(0x40)\n      tag_24\n      swap2\n      swap1\n      tag_25\n      jump\t// in\n    tag_24:\n      mload(0x40)\n      dup1\n      swap2\n      sub\n      swap1\n      return\n        /* \"Escrow smart contract.sol\":870:903  contractState public currentState */\n    tag_3:\n      callvalue\n      dup1\n      iszero\n      tag_26\n      jumpi\n      0x00\n      dup1\n      revert\n    tag_26:\n      pop\n      tag_27\n      tag_28\n      jump\t// in\n    tag_27:\n      mload(0x40)\n      tag_29\n      swap2\n      swap1\n      tag_30\n      jump\t// in\n    tag_29:\n      mload(0x40)\n      dup1\n      swap2\n      sub\n      swap1\n      return\n        /* \"Escrow smart contract.sol\":1347:1368  uint public isDispute */\n    tag_4:\n      callvalue\n      dup1\n      iszero\n      tag_31\n      jumpi\n      0x00\n      dup1\n      revert\n    tag_31:\n      pop\n      tag_32\n      tag_33\n      jump\t// in\n    tag_32:\n      mload(0x40)\n      tag_34\n      swap2\n      swap1\n      tag_35\n      jump\t// in\n    tag_34:\n      mload(0x40)\n      dup1\n      swap2\n      sub\n      swap1\n      return\n        /* \"Escrow smart contract.sol\":2391:2894  function confirmDeliverlyByBuyer() external {... */\n    tag_5:\n      callvalue\n      dup1\n      iszero\n      tag_36\n      jumpi\n      0x00\n      dup1\n      revert\n    tag_36:\n      pop\n      tag_37\n      tag_38\n      jump\t// in\n    tag_37:\n      stop\n        /* \"Escrow smart contract.sol\":257:281  uint public escrowAmount */\n    tag_6:\n      callvalue\n      dup1\n      iszero\n      tag_39\n      jumpi\n      0x00\n      dup1\n      revert\n    tag_39:\n      pop\n      tag_40\n      tag_41\n      jump\t// in\n    tag_40:\n      mload(0x40)\n      tag_42\n      swap2\n      swap1\n      tag_35\n      jump\t// in\n    tag_42:\n      mload(0x40)\n      dup1\n      swap2\n      sub\n      swap1\n      return\n        /* \"Escrow smart contract.sol\":346:372  bool public buyerConfirmed */\n    tag_7:\n      callvalue\n      dup1\n      iszero\n      tag_43\n      jumpi\n      0x00\n      dup1\n      revert\n    tag_43:\n      pop\n      tag_44\n      tag_45\n      jump\t// in\n    tag_44:\n      mload(0x40)\n      tag_46\n      swap2\n      swap1\n      tag_47\n      jump\t// in\n    tag_46:\n      mload(0x40)\n      dup1\n      swap2\n      sub\n      swap1\n      return\n        /* \"Escrow smart contract.sol\":4195:4982  function complete() external payable{... */\n    tag_8:\n      tag_48\n      tag_49\n      jump\t// in\n    tag_48:\n      stop\n        /* \"Escrow smart contract.sol\":3665:4151  function resolveDispute () external payable{... */\n    tag_9:\n      tag_50\n      tag_51\n      jump\t// in\n    tag_50:\n      stop\n        /* \"Escrow smart contract.sol\":1941:2322  function confirmDelivery () external payable {... */\n    tag_10:\n      tag_52\n      tag_53\n      jump\t// in\n    tag_52:\n      stop\n        /* \"Escrow smart contract.sol\":114:135  address  public buyer */\n    tag_11:\n      callvalue\n      dup1\n      iszero\n      tag_54\n      jumpi\n      0x00\n      dup1\n      revert\n    tag_54:\n      pop\n      tag_55\n      tag_56\n      jump\t// in\n    tag_55:\n      mload(0x40)\n      tag_57\n      swap2\n      swap1\n      tag_25\n      jump\t// in\n    tag_57:\n      mload(0x40)\n      dup1\n      swap2\n      sub\n      swap1\n      return\n        /* \"Escrow smart contract.sol\":1464:1494  uint public amountPaidInEscrow */\n    tag_12:\n      callvalue\n      dup1\n      iszero\n      tag_58\n      jumpi\n      0x00\n      dup1\n      revert\n    tag_58:\n      pop\n      tag_59\n      tag_60\n      jump\t// in\n    tag_59:\n      mload(0x40)\n      tag_61\n      swap2\n      swap1\n      tag_35\n      jump\t// in\n    tag_61:\n      mload(0x40)\n      dup1\n      swap2\n      sub\n      swap1\n      return\n        /* \"Escrow smart contract.sol\":1385:1410  uint public feePercentage */\n    tag_13:\n      callvalue\n      dup1\n      iszero\n      tag_62\n      jumpi\n      0x00\n      dup1\n      revert\n    tag_62:\n      pop\n      tag_63\n      tag_64\n      jump\t// in\n    tag_63:\n      mload(0x40)\n      tag_65\n      swap2\n      swap1\n      tag_35\n      jump\t// in\n    tag_65:\n      mload(0x40)\n      dup1\n      swap2\n      sub\n      swap1\n      return\n        /* \"Escrow smart contract.sol\":1427:1447  uint public Deadline */\n    tag_14:\n      callvalue\n      dup1\n      iszero\n      tag_66\n      jumpi\n      0x00\n      dup1\n      revert\n    tag_66:\n      pop\n      tag_67\n      tag_68\n      jump\t// in\n    tag_67:\n      mload(0x40)\n      tag_69\n      swap2\n      swap1\n      tag_35\n      jump\t// in\n    tag_69:\n      mload(0x40)\n      dup1\n      swap2\n      sub\n      swap1\n      return\n        /* \"Escrow smart contract.sol\":1540:1871  function deposit () external  payable {... */\n    tag_15:\n      tag_70\n      tag_71\n      jump\t// in\n    tag_70:\n      stop\n        /* \"Escrow smart contract.sol\":178:204  address public escrowAgent */\n    tag_16:\n      callvalue\n      dup1\n      iszero\n      tag_72\n      jumpi\n      0x00\n      dup1\n      revert\n    tag_72:\n      pop\n      tag_73\n      tag_74\n      jump\t// in\n    tag_73:\n      mload(0x40)\n      tag_75\n      swap2\n      swap1\n      tag_25\n      jump\t// in\n    tag_75:\n      mload(0x40)\n      dup1\n      swap2\n      sub\n      swap1\n      return\n        /* \"Escrow smart contract.sol\":426:453  bool public sellerConfirmed */\n    tag_17:\n      callvalue\n      dup1\n      iszero\n      tag_76\n      jumpi\n      0x00\n      dup1\n      revert\n    tag_76:\n      pop\n      tag_77\n      tag_78\n      jump\t// in\n    tag_77:\n      mload(0x40)\n      tag_79\n      swap2\n      swap1\n      tag_47\n      jump\t// in\n    tag_79:\n      mload(0x40)\n      dup1\n      swap2\n      sub\n      swap1\n      return\n        /* \"Escrow smart contract.sol\":146:167  address public seller */\n    tag_23:\n      0x01\n      0x00\n      swap1\n      sload\n      swap1\n      0x0100\n      exp\n      swap1\n      div\n      0xffffffffffffffffffffffffffffffffffffffff\n      and\n      dup2\n      jump\t// out\n        /* \"Escrow smart contract.sol\":870:903  contractState public currentState */\n    tag_28:\n      0x04\n      0x02\n      swap1\n      sload\n      swap1\n      0x0100\n      exp\n      swap1\n      div\n      0xff\n      and\n      dup2\n      jump\t// out\n        /* \"Escrow smart contract.sol\":1347:1368  uint public isDispute */\n    tag_33:\n      sload(0x05)\n      dup2\n      jump\t// out\n        /* \"Escrow smart contract.sol\":2391:2894  function confirmDeliverlyByBuyer() external {... */\n    tag_38:\n        /* \"Escrow smart contract.sol\":2474:2479  buyer */\n      0x00\n      dup1\n      sload\n      swap1\n      0x0100\n      exp\n      swap1\n      div\n      0xffffffffffffffffffffffffffffffffffffffff\n      and\n        /* \"Escrow smart contract.sol\":2460:2479  msg.sender == buyer */\n      0xffffffffffffffffffffffffffffffffffffffff\n      and\n        /* \"Escrow smart contract.sol\":2460:2470  msg.sender */\n      caller\n        /* \"Escrow smart contract.sol\":2460:2479  msg.sender == buyer */\n      0xffffffffffffffffffffffffffffffffffffffff\n      and\n      eq\n        /* \"Escrow smart contract.sol\":2452:2515  require(msg.sender == buyer,\"Only buyer can confirm deliverly\") */\n      tag_81\n      jumpi\n      mload(0x40)\n      0x08c379a000000000000000000000000000000000000000000000000000000000\n      dup2\n      mstore\n      0x04\n      add\n      tag_82\n      swap1\n      tag_83\n      jump\t// in\n    tag_82:\n      mload(0x40)\n      dup1\n      swap2\n      sub\n      swap1\n      revert\n    tag_81:\n        /* \"Escrow smart contract.sol\":2557:2577  contractState.Active */\n      0x00\n        /* \"Escrow smart contract.sol\":2541:2577  currentState == contractState.Active */\n      0x02\n      dup2\n      gt\n      iszero\n      tag_84\n      jumpi\n      tag_85\n      tag_86\n      jump\t// in\n    tag_85:\n    tag_84:\n        /* \"Escrow smart contract.sol\":2541:2553  currentState */\n      0x04\n      0x02\n      swap1\n      sload\n      swap1\n      0x0100\n      exp\n      swap1\n      div\n      0xff\n      and\n        /* \"Escrow smart contract.sol\":2541:2577  currentState == contractState.Active */\n      0x02\n      dup2\n      gt\n      iszero\n      tag_87\n      jumpi\n      tag_88\n      tag_86\n      jump\t// in\n    tag_88:\n    tag_87:\n      eq\n        /* \"Escrow smart contract.sol\":2533:2635  require(currentState == contractState.Active, \"Contract must be in active state to confirm deliverly\") */\n      tag_89\n      jumpi\n      mload(0x40)\n      0x08c379a000000000000000000000000000000000000000000000000000000000\n      dup2\n      mstore\n      0x04\n      add\n      tag_90\n      swap1\n      tag_91\n      jump\t// in\n    tag_90:\n      mload(0x40)\n      dup1\n      swap2\n      sub\n      swap1\n      revert\n    tag_89:\n        /* \"Escrow smart contract.sol\":2853:2857  true */\n      0x01\n        /* \"Escrow smart contract.sol\":2836:2850  buyerConfirmed */\n      0x04\n      0x00\n        /* \"Escrow smart contract.sol\":2836:2857  buyerConfirmed = true */\n      0x0100\n      exp\n      dup2\n      sload\n      dup2\n      0xff\n      mul\n      not\n      and\n      swap1\n      dup4\n      iszero\n      iszero\n      mul\n      or\n      swap1\n      sstore\n      pop\n        /* \"Escrow smart contract.sol\":2868:2883  tryToFinalize() */\n      tag_92\n        /* \"Escrow smart contract.sol\":2868:2881  tryToFinalize */\n      tag_93\n        /* \"Escrow smart contract.sol\":2868:2883  tryToFinalize() */\n      jump\t// in\n    tag_92:\n        /* \"Escrow smart contract.sol\":2391:2894  function confirmDeliverlyByBuyer() external {... */\n      jump\t// out\n        /* \"Escrow smart contract.sol\":257:281  uint public escrowAmount */\n    tag_41:\n      sload(0x03)\n      dup2\n      jump\t// out\n        /* \"Escrow smart contract.sol\":346:372  bool public buyerConfirmed */\n    tag_45:\n      0x04\n      0x00\n      swap1\n      sload\n      swap1\n      0x0100\n      exp\n      swap1\n      div\n      0xff\n      and\n      dup2\n      jump\t// out\n        /* \"Escrow smart contract.sol\":4195:4982  function complete() external payable{... */\n    tag_49:\n        /* \"Escrow smart contract.sol\":4283:4289  seller */\n      0x01\n      0x00\n      swap1\n      sload\n      swap1\n      0x0100\n      exp\n      swap1\n      div\n      0xffffffffffffffffffffffffffffffffffffffff\n      and\n        /* \"Escrow smart contract.sol\":4270:4289  msg.sender ==seller */\n      0xffffffffffffffffffffffffffffffffffffffff\n      and\n        /* \"Escrow smart contract.sol\":4270:4280  msg.sender */\n      caller\n        /* \"Escrow smart contract.sol\":4270:4289  msg.sender ==seller */\n      0xffffffffffffffffffffffffffffffffffffffff\n      and\n      eq\n        /* \"Escrow smart contract.sol\":4262:4317  require(msg.sender ==seller,\"Only seller can complete\") */\n      tag_95\n      jumpi\n      mload(0x40)\n      0x08c379a000000000000000000000000000000000000000000000000000000000\n      dup2\n      mstore\n      0x04\n      add\n      tag_96\n      swap1\n      tag_97\n      jump\t// in\n    tag_96:\n      mload(0x40)\n      dup1\n      swap2\n      sub\n      swap1\n      revert\n    tag_95:\n        /* \"Escrow smart contract.sol\":4357:4377  contractState.Active */\n      0x00\n        /* \"Escrow smart contract.sol\":4342:4377  currentState ==contractState.Active */\n      0x02\n      dup2\n      gt\n      iszero\n      tag_98\n      jumpi\n      tag_99\n      tag_86\n      jump\t// in\n    tag_99:\n    tag_98:\n        /* \"Escrow smart contract.sol\":4342:4354  currentState */\n      0x04\n      0x02\n      swap1\n      sload\n      swap1\n      0x0100\n      exp\n      swap1\n      div\n      0xff\n      and\n        /* \"Escrow smart contract.sol\":4342:4377  currentState ==contractState.Active */\n      0x02\n      dup2\n      gt\n      iszero\n      tag_100\n      jumpi\n      tag_101\n      tag_86\n      jump\t// in\n    tag_101:\n    tag_100:\n      eq\n        /* \"Escrow smart contract.sol\":4334:4405  require(currentState ==contractState.Active, \"Contract must be active\") */\n      tag_102\n      jumpi\n      mload(0x40)\n      0x08c379a000000000000000000000000000000000000000000000000000000000\n      dup2\n      mstore\n      0x04\n      add\n      tag_103\n      swap1\n      tag_104\n      jump\t// in\n    tag_103:\n      mload(0x40)\n      dup1\n      swap2\n      sub\n      swap1\n      revert\n    tag_102:\n        /* \"Escrow smart contract.sol\":4443:4461  amountPaidInEscrow */\n      sload(0x08)\n        /* \"Escrow smart contract.sol\":4430:4439  msg.value */\n      callvalue\n        /* \"Escrow smart contract.sol\":4430:4461  msg.value == amountPaidInEscrow */\n      eq\n        /* \"Escrow smart contract.sol\":4422:4498  require(msg.value == amountPaidInEscrow, \"Amount paid in escrow must match\") */\n      tag_105\n      jumpi\n      mload(0x40)\n      0x08c379a000000000000000000000000000000000000000000000000000000000\n      dup2\n      mstore\n      0x04\n      add\n      tag_106\n      swap1\n      tag_107\n      jump\t// in\n    tag_106:\n      mload(0x40)\n      dup1\n      swap2\n      sub\n      swap1\n      revert\n    tag_105:\n        /* \"Escrow smart contract.sol\":4523:4538  sellerConfirmed */\n      0x04\n      0x01\n      swap1\n      sload\n      swap1\n      0x0100\n      exp\n      swap1\n      div\n      0xff\n      and\n        /* \"Escrow smart contract.sol\":4515:4578  require(sellerConfirmed, \"Seller must have confirmed delivery\") */\n      tag_108\n      jumpi\n      mload(0x40)\n      0x08c379a000000000000000000000000000000000000000000000000000000000\n      dup2\n      mstore\n      0x04\n      add\n      tag_109\n      swap1\n      tag_110\n      jump\t// in\n    tag_109:\n      mload(0x40)\n      dup1\n      swap2\n      sub\n      swap1\n      revert\n    tag_108:\n        /* \"Escrow smart contract.sol\":4616:4617  0 */\n      0x00\n        /* \"Escrow smart contract.sol\":4603:4612  isDispute */\n      sload(0x05)\n        /* \"Escrow smart contract.sol\":4603:4617  isDispute == 0 */\n      eq\n        /* \"Escrow smart contract.sol\":4595:4645  require(isDispute == 0,\"Dispute have been raised\") */\n      tag_111\n      jumpi\n      mload(0x40)\n      0x08c379a000000000000000000000000000000000000000000000000000000000\n      dup2\n      mstore\n      0x04\n      add\n      tag_112\n      swap1\n      tag_113\n      jump\t// in\n    tag_112:\n      mload(0x40)\n      dup1\n      swap2\n      sub\n      swap1\n      revert\n    tag_111:\n        /* \"Escrow smart contract.sol\":4677:4678  1 */\n      0x01\n        /* \"Escrow smart contract.sol\":4667:4676  isDispute */\n      0x05\n        /* \"Escrow smart contract.sol\":4667:4678  isDispute=1 */\n      dup2\n      swap1\n      sstore\n      pop\n        /* \"Escrow smart contract.sol\":4778:4798  contractState.Closed */\n      0x01\n        /* \"Escrow smart contract.sol\":4764:4776  currentState */\n      0x04\n      0x02\n        /* \"Escrow smart contract.sol\":4764:4798  currentState =contractState.Closed */\n      0x0100\n      exp\n      dup2\n      sload\n      dup2\n      0xff\n      mul\n      not\n      and\n      swap1\n      dup4\n      0x02\n      dup2\n      gt\n      iszero\n      tag_114\n      jumpi\n      tag_115\n      tag_86\n      jump\t// in\n    tag_115:\n    tag_114:\n      mul\n      or\n      swap1\n      sstore\n      pop\n        /* \"Escrow smart contract.sol\":4823:4829  seller */\n      0x01\n      0x00\n      swap1\n      sload\n      swap1\n      0x0100\n      exp\n      swap1\n      div\n      0xffffffffffffffffffffffffffffffffffffffff\n      and\n        /* \"Escrow smart contract.sol\":4815:4839  payable(seller).transfer */\n      0xffffffffffffffffffffffffffffffffffffffff\n      and\n        /* \"Escrow smart contract.sol\":4815:4859  payable(seller).transfer(amountPaidInEscrow) */\n      0x08fc\n        /* \"Escrow smart contract.sol\":4840:4858  amountPaidInEscrow */\n      sload(0x08)\n        /* \"Escrow smart contract.sol\":4815:4859  payable(seller).transfer(amountPaidInEscrow) */\n      swap1\n      dup2\n      iszero\n      mul\n      swap1\n      mload(0x40)\n      0x00\n      mload(0x40)\n      dup1\n      dup4\n      sub\n      dup2\n      dup6\n      dup9\n      dup9\n      call\n      swap4\n      pop\n      pop\n      pop\n      pop\n      iszero\n      dup1\n      iszero\n      tag_117\n      jumpi\n      returndatasize\n      0x00\n      dup1\n      returndatacopy\n      revert(0x00, returndatasize)\n    tag_117:\n      pop\n        /* \"Escrow smart contract.sol\":4912:4918  seller */\n      0x01\n      0x00\n      swap1\n      sload\n      swap1\n      0x0100\n      exp\n      swap1\n      div\n      0xffffffffffffffffffffffffffffffffffffffff\n      and\n        /* \"Escrow smart contract.sol\":4898:4939  FundsReleased(seller, amountPaidInEscrow) */\n      0xffffffffffffffffffffffffffffffffffffffff\n      and\n      0x221c08a06b07a64803b3787861a3f276212fcccb51c2e6234077a9b8cb13047a\n        /* \"Escrow smart contract.sol\":4920:4938  amountPaidInEscrow */\n      sload(0x08)\n        /* \"Escrow smart contract.sol\":4898:4939  FundsReleased(seller, amountPaidInEscrow) */\n      mload(0x40)\n      tag_118\n      swap2\n      swap1\n      tag_35\n      jump\t// in\n    tag_118:\n      mload(0x40)\n      dup1\n      swap2\n      sub\n      swap1\n      log2\n        /* \"Escrow smart contract.sol\":4195:4982  function complete() external payable{... */\n      jump\t// out\n        /* \"Escrow smart contract.sol\":3665:4151  function resolveDispute () external payable{... */\n    tag_51:\n        /* \"Escrow smart contract.sol\":3747:3752  buyer */\n      0x00\n      dup1\n      sload\n      swap1\n      0x0100\n      exp\n      swap1\n      div\n      0xffffffffffffffffffffffffffffffffffffffff\n      and\n        /* \"Escrow smart contract.sol\":3733:3752  msg.sender == buyer */\n      0xffffffffffffffffffffffffffffffffffffffff\n      and\n        /* \"Escrow smart contract.sol\":3733:3743  msg.sender */\n      caller\n        /* \"Escrow smart contract.sol\":3733:3752  msg.sender == buyer */\n      0xffffffffffffffffffffffffffffffffffffffff\n      and\n      eq\n        /* \"Escrow smart contract.sol\":3725:3779  require(msg.sender == buyer,\" Only buyer can dispute\") */\n      tag_120\n      jumpi\n      mload(0x40)\n      0x08c379a000000000000000000000000000000000000000000000000000000000\n      dup2\n      mstore\n      0x04\n      add\n      tag_121\n      swap1\n      tag_122\n      jump\t// in\n    tag_121:\n      mload(0x40)\n      dup1\n      swap2\n      sub\n      swap1\n      revert\n    tag_120:\n        /* \"Escrow smart contract.sol\":3820:3840  contractState.Active */\n      0x00\n        /* \"Escrow smart contract.sol\":3804:3840  currentState == contractState.Active */\n      0x02\n      dup2\n      gt\n      iszero\n      tag_123\n      jumpi\n      tag_124\n      tag_86\n      jump\t// in\n    tag_124:\n    tag_123:\n        /* \"Escrow smart contract.sol\":3804:3816  currentState */\n      0x04\n      0x02\n      swap1\n      sload\n      swap1\n      0x0100\n      exp\n      swap1\n      div\n      0xff\n      and\n        /* \"Escrow smart contract.sol\":3804:3840  currentState == contractState.Active */\n      0x02\n      dup2\n      gt\n      iszero\n      tag_125\n      jumpi\n      tag_126\n      tag_86\n      jump\t// in\n    tag_126:\n    tag_125:\n      eq\n        /* \"Escrow smart contract.sol\":3796:3868  require(currentState == contractState.Active, \"Contract must be active\") */\n      tag_127\n      jumpi\n      mload(0x40)\n      0x08c379a000000000000000000000000000000000000000000000000000000000\n      dup2\n      mstore\n      0x04\n      add\n      tag_128\n      swap1\n      tag_104\n      jump\t// in\n    tag_128:\n      mload(0x40)\n      dup1\n      swap2\n      sub\n      swap1\n      revert\n    tag_127:\n        /* \"Escrow smart contract.sol\":3906:3924  amountPaidInEscrow */\n      sload(0x08)\n        /* \"Escrow smart contract.sol\":3893:3902  msg.value */\n      callvalue\n        /* \"Escrow smart contract.sol\":3893:3924  msg.value == amountPaidInEscrow */\n      eq\n        /* \"Escrow smart contract.sol\":3885:3961  require(msg.value == amountPaidInEscrow, \"Amount paid in escrow must match\") */\n      tag_129\n      jumpi\n      mload(0x40)\n      0x08c379a000000000000000000000000000000000000000000000000000000000\n      dup2\n      mstore\n      0x04\n      add\n      tag_130\n      swap1\n      tag_107\n      jump\t// in\n    tag_130:\n      mload(0x40)\n      dup1\n      swap2\n      sub\n      swap1\n      revert\n    tag_129:\n        /* \"Escrow smart contract.sol\":3986:4000  buyerConfirmed */\n      0x04\n      0x00\n      swap1\n      sload\n      swap1\n      0x0100\n      exp\n      swap1\n      div\n      0xff\n      and\n        /* \"Escrow smart contract.sol\":3978:4039  require(buyerConfirmed, \"Buyer must have confirmed delivery\") */\n      tag_131\n      jumpi\n      mload(0x40)\n      0x08c379a000000000000000000000000000000000000000000000000000000000\n      dup2\n      mstore\n      0x04\n      add\n      tag_132\n      swap1\n      tag_133\n      jump\t// in\n    tag_132:\n      mload(0x40)\n      dup1\n      swap2\n      sub\n      swap1\n      revert\n    tag_131:\n        /* \"Escrow smart contract.sol\":4076:4077  0 */\n      0x00\n        /* \"Escrow smart contract.sol\":4064:4073  isDispute */\n      sload(0x05)\n        /* \"Escrow smart contract.sol\":4064:4077  isDispute ==0 */\n      eq\n        /* \"Escrow smart contract.sol\":4056:4105  require(isDispute ==0,\"Dispute have been raised\") */\n      tag_134\n      jumpi\n      mload(0x40)\n      0x08c379a000000000000000000000000000000000000000000000000000000000\n      dup2\n      mstore\n      0x04\n      add\n      tag_135\n      swap1\n      tag_113\n      jump\t// in\n    tag_135:\n      mload(0x40)\n      dup1\n      swap2\n      sub\n      swap1\n      revert\n    tag_134:\n        /* \"Escrow smart contract.sol\":4134:4135  1 */\n      0x01\n        /* \"Escrow smart contract.sol\":4122:4131  isDispute */\n      0x05\n        /* \"Escrow smart contract.sol\":4122:4135  isDispute = 1 */\n      dup2\n      swap1\n      sstore\n      pop\n        /* \"Escrow smart contract.sol\":3665:4151  function resolveDispute () external payable{... */\n      jump\t// out\n        /* \"Escrow smart contract.sol\":1941:2322  function confirmDelivery () external payable {... */\n    tag_53:\n        /* \"Escrow smart contract.sol\":2025:2031  seller */\n      0x01\n      0x00\n      swap1\n      sload\n      swap1\n      0x0100\n      exp\n      swap1\n      div\n      0xffffffffffffffffffffffffffffffffffffffff\n      and\n        /* \"Escrow smart contract.sol\":2011:2031  msg.sender == seller */\n      0xffffffffffffffffffffffffffffffffffffffff\n      and\n        /* \"Escrow smart contract.sol\":2011:2021  msg.sender */\n      caller\n        /* \"Escrow smart contract.sol\":2011:2031  msg.sender == seller */\n      0xffffffffffffffffffffffffffffffffffffffff\n      and\n      eq\n        /* \"Escrow smart contract.sol\":2003:2068  require(msg.sender == seller,\"Only seller can condirm deliverly\") */\n      tag_137\n      jumpi\n      mload(0x40)\n      0x08c379a000000000000000000000000000000000000000000000000000000000\n      dup2\n      mstore\n      0x04\n      add\n      tag_138\n      swap1\n      tag_139\n      jump\t// in\n    tag_138:\n      mload(0x40)\n      dup1\n      swap2\n      sub\n      swap1\n      revert\n    tag_137:\n        /* \"Escrow smart contract.sol\":2108:2128  contractState.Active */\n      0x00\n        /* \"Escrow smart contract.sol\":2093:2128  currentState ==contractState.Active */\n      0x02\n      dup2\n      gt\n      iszero\n      tag_140\n      jumpi\n      tag_141\n      tag_86\n      jump\t// in\n    tag_141:\n    tag_140:\n        /* \"Escrow smart contract.sol\":2093:2105  currentState */\n      0x04\n      0x02\n      swap1\n      sload\n      swap1\n      0x0100\n      exp\n      swap1\n      div\n      0xff\n      and\n        /* \"Escrow smart contract.sol\":2093:2128  currentState ==contractState.Active */\n      0x02\n      dup2\n      gt\n      iszero\n      tag_142\n      jumpi\n      tag_143\n      tag_86\n      jump\t// in\n    tag_143:\n    tag_142:\n      eq\n        /* \"Escrow smart contract.sol\":2085:2158  require(currentState ==contractState.Active, \"Contract has to be active\") */\n      tag_144\n      jumpi\n      mload(0x40)\n      0x08c379a000000000000000000000000000000000000000000000000000000000\n      dup2\n      mstore\n      0x04\n      add\n      tag_145\n      swap1\n      tag_146\n      jump\t// in\n    tag_145:\n      mload(0x40)\n      dup1\n      swap2\n      sub\n      swap1\n      revert\n    tag_144:\n        /* \"Escrow smart contract.sol\":2195:2207  escrowAmount */\n      sload(0x03)\n        /* \"Escrow smart contract.sol\":2183:2192  msg.value */\n      callvalue\n        /* \"Escrow smart contract.sol\":2183:2207  msg.value ==escrowAmount */\n      eq\n        /* \"Escrow smart contract.sol\":2175:2246  require(msg.value ==escrowAmount,\"Contract amount has to paid in full\") */\n      tag_147\n      jumpi\n      mload(0x40)\n      0x08c379a000000000000000000000000000000000000000000000000000000000\n      dup2\n      mstore\n      0x04\n      add\n      tag_148\n      swap1\n      tag_149\n      jump\t// in\n    tag_148:\n      mload(0x40)\n      dup1\n      swap2\n      sub\n      swap1\n      revert\n    tag_147:\n        /* \"Escrow smart contract.sol\":2281:2285  true */\n      0x01\n        /* \"Escrow smart contract.sol\":2263:2278  sellerConfirmed */\n      0x04\n      0x01\n        /* \"Escrow smart contract.sol\":2263:2285  sellerConfirmed = true */\n      0x0100\n      exp\n      dup2\n      sload\n      dup2\n      0xff\n      mul\n      not\n      and\n      swap1\n      dup4\n      iszero\n      iszero\n      mul\n      or\n      swap1\n      sstore\n      pop\n        /* \"Escrow smart contract.sol\":2296:2311  tryToFinalize() */\n      tag_150\n        /* \"Escrow smart contract.sol\":2296:2309  tryToFinalize */\n      tag_93\n        /* \"Escrow smart contract.sol\":2296:2311  tryToFinalize() */\n      jump\t// in\n    tag_150:\n        /* \"Escrow smart contract.sol\":1941:2322  function confirmDelivery () external payable {... */\n      jump\t// out\n        /* \"Escrow smart contract.sol\":114:135  address  public buyer */\n    tag_56:\n      0x00\n      dup1\n      sload\n      swap1\n      0x0100\n      exp\n      swap1\n      div\n      0xffffffffffffffffffffffffffffffffffffffff\n      and\n      dup2\n      jump\t// out\n        /* \"Escrow smart contract.sol\":1464:1494  uint public amountPaidInEscrow */\n    tag_60:\n      sload(0x08)\n      dup2\n      jump\t// out\n        /* \"Escrow smart contract.sol\":1385:1410  uint public feePercentage */\n    tag_64:\n      sload(0x06)\n      dup2\n      jump\t// out\n        /* \"Escrow smart contract.sol\":1427:1447  uint public Deadline */\n    tag_68:\n      sload(0x07)\n      dup2\n      jump\t// out\n        /* \"Escrow smart contract.sol\":1540:1871  function deposit () external  payable {... */\n    tag_71:\n        /* \"Escrow smart contract.sol\":1618:1623  buyer */\n      0x00\n      dup1\n      sload\n      swap1\n      0x0100\n      exp\n      swap1\n      div\n      0xffffffffffffffffffffffffffffffffffffffff\n      and\n        /* \"Escrow smart contract.sol\":1604:1623  msg.sender == buyer */\n      0xffffffffffffffffffffffffffffffffffffffff\n      and\n        /* \"Escrow smart contract.sol\":1604:1614  msg.sender */\n      caller\n        /* \"Escrow smart contract.sol\":1604:1623  msg.sender == buyer */\n      0xffffffffffffffffffffffffffffffffffffffff\n      and\n      eq\n        /* \"Escrow smart contract.sol\":1595:1656  require (msg.sender == buyer, \"Only buyer can deposit funds\") */\n      tag_152\n      jumpi\n      mload(0x40)\n      0x08c379a000000000000000000000000000000000000000000000000000000000\n      dup2\n      mstore\n      0x04\n      add\n      tag_153\n      swap1\n      tag_154\n      jump\t// in\n    tag_153:\n      mload(0x40)\n      dup1\n      swap2\n      sub\n      swap1\n      revert\n    tag_152:\n        /* \"Escrow smart contract.sol\":1697:1717  contractState.Active */\n      0x00\n        /* \"Escrow smart contract.sol\":1681:1717  currentState == contractState.Active */\n      0x02\n      dup2\n      gt\n      iszero\n      tag_155\n      jumpi\n      tag_156\n      tag_86\n      jump\t// in\n    tag_156:\n    tag_155:\n        /* \"Escrow smart contract.sol\":1681:1693  currentState */\n      0x04\n      0x02\n      swap1\n      sload\n      swap1\n      0x0100\n      exp\n      swap1\n      div\n      0xff\n      and\n        /* \"Escrow smart contract.sol\":1681:1717  currentState == contractState.Active */\n      0x02\n      dup2\n      gt\n      iszero\n      tag_157\n      jumpi\n      tag_158\n      tag_86\n      jump\t// in\n    tag_158:\n    tag_157:\n      eq\n        /* \"Escrow smart contract.sol\":1673:1771  require(currentState == contractState.Active, \"Contract must be in active state to deposit funds\") */\n      tag_159\n      jumpi\n      mload(0x40)\n      0x08c379a000000000000000000000000000000000000000000000000000000000\n      dup2\n      mstore\n      0x04\n      add\n      tag_160\n      swap1\n      tag_161\n      jump\t// in\n    tag_160:\n      mload(0x40)\n      dup1\n      swap2\n      sub\n      swap1\n      revert\n    tag_159:\n        /* \"Escrow smart contract.sol\":1806:1807  0 */\n      0x00\n        /* \"Escrow smart contract.sol\":1796:1805  msg.value */\n      callvalue\n        /* \"Escrow smart contract.sol\":1796:1807  msg.value>0 */\n      gt\n        /* \"Escrow smart contract.sol\":1788:1844  require(msg.value>0, \"Amount must be greater than zero\") */\n      tag_162\n      jumpi\n      mload(0x40)\n      0x08c379a000000000000000000000000000000000000000000000000000000000\n      dup2\n      mstore\n      0x04\n      add\n      tag_163\n      swap1\n      tag_164\n      jump\t// in\n    tag_163:\n      mload(0x40)\n      dup1\n      swap2\n      sub\n      swap1\n      revert\n    tag_162:\n        /* \"Escrow smart contract.sol\":1540:1871  function deposit () external  payable {... */\n      jump\t// out\n        /* \"Escrow smart contract.sol\":178:204  address public escrowAgent */\n    tag_74:\n      0x02\n      0x00\n      swap1\n      sload\n      swap1\n      0x0100\n      exp\n      swap1\n      div\n      0xffffffffffffffffffffffffffffffffffffffff\n      and\n      dup2\n      jump\t// out\n        /* \"Escrow smart contract.sol\":426:453  bool public sellerConfirmed */\n    tag_78:\n      0x04\n      0x01\n      swap1\n      sload\n      swap1\n      0x0100\n      exp\n      swap1\n      div\n      0xff\n      and\n      dup2\n      jump\t// out\n        /* \"Escrow smart contract.sol\":2905:3100  function tryToFinalize() internal {... */\n    tag_93:\n        /* \"Escrow smart contract.sol\":2954:2968  buyerConfirmed */\n      0x04\n      0x00\n      swap1\n      sload\n      swap1\n      0x0100\n      exp\n      swap1\n      div\n      0xff\n      and\n        /* \"Escrow smart contract.sol\":2954:2987  buyerConfirmed && sellerConfirmed */\n      dup1\n      iszero\n      tag_166\n      jumpi\n      pop\n        /* \"Escrow smart contract.sol\":2972:2987  sellerConfirmed */\n      0x04\n      0x01\n      swap1\n      sload\n      swap1\n      0x0100\n      exp\n      swap1\n      div\n      0xff\n      and\n        /* \"Escrow smart contract.sol\":2954:2987  buyerConfirmed && sellerConfirmed */\n    tag_166:\n        /* \"Escrow smart contract.sol\":2950:3088  if (buyerConfirmed && sellerConfirmed) {... */\n      iszero\n      tag_167\n      jumpi\n        /* \"Escrow smart contract.sol\":3004:3025  finalizeTransaction() */\n      tag_168\n        /* \"Escrow smart contract.sol\":3004:3023  finalizeTransaction */\n      tag_169\n        /* \"Escrow smart contract.sol\":3004:3025  finalizeTransaction() */\n      jump\t// in\n    tag_168:\n        /* \"Escrow smart contract.sol\":2950:3088  if (buyerConfirmed && sellerConfirmed) {... */\n    tag_167:\n        /* \"Escrow smart contract.sol\":2905:3100  function tryToFinalize() internal {... */\n      jump\t// out\n        /* \"Escrow smart contract.sol\":3162:3613  function finalizeTransaction() internal {... */\n    tag_169:\n        /* \"Escrow smart contract.sol\":3237:3257  contractState.Active */\n      0x00\n        /* \"Escrow smart contract.sol\":3221:3257  currentState == contractState.Active */\n      0x02\n      dup2\n      gt\n      iszero\n      tag_171\n      jumpi\n      tag_172\n      tag_86\n      jump\t// in\n    tag_172:\n    tag_171:\n        /* \"Escrow smart contract.sol\":3221:3233  currentState */\n      0x04\n      0x02\n      swap1\n      sload\n      swap1\n      0x0100\n      exp\n      swap1\n      div\n      0xff\n      and\n        /* \"Escrow smart contract.sol\":3221:3257  currentState == contractState.Active */\n      0x02\n      dup2\n      gt\n      iszero\n      tag_173\n      jumpi\n      tag_174\n      tag_86\n      jump\t// in\n    tag_174:\n    tag_173:\n      eq\n        /* \"Escrow smart contract.sol\":3213:3284  require(currentState == contractState.Active, \"Contract is not active\") */\n      tag_175\n      jumpi\n      mload(0x40)\n      0x08c379a000000000000000000000000000000000000000000000000000000000\n      dup2\n      mstore\n      0x04\n      add\n      tag_176\n      swap1\n      tag_177\n      jump\t// in\n    tag_176:\n      mload(0x40)\n      dup1\n      swap2\n      sub\n      swap1\n      revert\n    tag_175:\n        /* \"Escrow smart contract.sol\":3366:3386  contractState.Closed */\n      0x01\n        /* \"Escrow smart contract.sol\":3350:3386  currentState == contractState.Closed */\n      0x02\n      dup2\n      gt\n      iszero\n      tag_178\n      jumpi\n      tag_179\n      tag_86\n      jump\t// in\n    tag_179:\n    tag_178:\n        /* \"Escrow smart contract.sol\":3350:3362  currentState */\n      0x04\n      0x02\n      swap1\n      sload\n      swap1\n      0x0100\n      exp\n      swap1\n      div\n      0xff\n      and\n        /* \"Escrow smart contract.sol\":3350:3386  currentState == contractState.Closed */\n      0x02\n      dup2\n      gt\n      iszero\n      tag_180\n      jumpi\n      tag_181\n      tag_86\n      jump\t// in\n    tag_181:\n    tag_180:\n      eq\n        /* \"Escrow smart contract.sol\":3342:3387  require(currentState == contractState.Closed) */\n      tag_182\n      jumpi\n      0x00\n      dup1\n      revert\n    tag_182:\n        /* \"Escrow smart contract.sol\":3406:3412  seller */\n      0x01\n      0x00\n      swap1\n      sload\n      swap1\n      0x0100\n      exp\n      swap1\n      div\n      0xffffffffffffffffffffffffffffffffffffffff\n      and\n        /* \"Escrow smart contract.sol\":3398:3422  payable(seller).transfer */\n      0xffffffffffffffffffffffffffffffffffffffff\n      and\n        /* \"Escrow smart contract.sol\":3398:3436  payable(seller).transfer(escrowAmount) */\n      0x08fc\n        /* \"Escrow smart contract.sol\":3423:3435  escrowAmount */\n      sload(0x03)\n        /* \"Escrow smart contract.sol\":3398:3436  payable(seller).transfer(escrowAmount) */\n      swap1\n      dup2\n      iszero\n      mul\n      swap1\n      mload(0x40)\n      0x00\n      mload(0x40)\n      dup1\n      dup4\n      sub\n      dup2\n      dup6\n      dup9\n      dup9\n      call\n      swap4\n      pop\n      pop\n      pop\n      pop\n      iszero\n      dup1\n      iszero\n      tag_184\n      jumpi\n      returndatasize\n      0x00\n      dup1\n      returndatacopy\n      revert(0x00, returndatasize)\n    tag_184:\n      pop\n        /* \"Escrow smart contract.sol\":3494:3495  0 */\n      0x00\n        /* \"Escrow smart contract.sol\":3479:3491  escrowAmount */\n      0x03\n        /* \"Escrow smart contract.sol\":3479:3495  escrowAmount = 0 */\n      dup2\n      swap1\n      sstore\n      pop\n        /* \"Escrow smart contract.sol\":3552:3558  seller */\n      0x01\n      0x00\n      swap1\n      sload\n      swap1\n      0x0100\n      exp\n      swap1\n      div\n      0xffffffffffffffffffffffffffffffffffffffff\n      and\n        /* \"Escrow smart contract.sol\":3538:3573  FundsReleased(seller, escrowAmount) */\n      0xffffffffffffffffffffffffffffffffffffffff\n      and\n      0x221c08a06b07a64803b3787861a3f276212fcccb51c2e6234077a9b8cb13047a\n        /* \"Escrow smart contract.sol\":3560:3572  escrowAmount */\n      sload(0x03)\n        /* \"Escrow smart contract.sol\":3538:3573  FundsReleased(seller, escrowAmount) */\n      mload(0x40)\n      tag_185\n      swap2\n      swap1\n      tag_35\n      jump\t// in\n    tag_185:\n      mload(0x40)\n      dup1\n      swap2\n      sub\n      swap1\n      log2\n        /* \"Escrow smart contract.sol\":3162:3613  function finalizeTransaction() internal {... */\n      jump\t// out\n        /* \"#utility.yul\":7:133   */\n    tag_186:\n        /* \"#utility.yul\":44:51   */\n      0x00\n        /* \"#utility.yul\":84:126   */\n      0xffffffffffffffffffffffffffffffffffffffff\n        /* \"#utility.yul\":77:82   */\n      dup3\n        /* \"#utility.yul\":73:127   */\n      and\n        /* \"#utility.yul\":62:127   */\n      swap1\n      pop\n        /* \"#utility.yul\":7:133   */\n      swap2\n      swap1\n      pop\n      jump\t// out\n        /* \"#utility.yul\":139:235   */\n    tag_187:\n        /* \"#utility.yul\":176:183   */\n      0x00\n        /* \"#utility.yul\":205:229   */\n      tag_233\n        /* \"#utility.yul\":223:228   */\n      dup3\n        /* \"#utility.yul\":205:229   */\n      tag_186\n      jump\t// in\n    tag_233:\n        /* \"#utility.yul\":194:229   */\n      swap1\n      pop\n        /* \"#utility.yul\":139:235   */\n      swap2\n      swap1\n      pop\n      jump\t// out\n        /* \"#utility.yul\":241:359   */\n    tag_188:\n        /* \"#utility.yul\":328:352   */\n      tag_235\n        /* \"#utility.yul\":346:351   */\n      dup2\n        /* \"#utility.yul\":328:352   */\n      tag_187\n      jump\t// in\n    tag_235:\n        /* \"#utility.yul\":323:326   */\n      dup3\n        /* \"#utility.yul\":316:353   */\n      mstore\n        /* \"#utility.yul\":241:359   */\n      pop\n      pop\n      jump\t// out\n        /* \"#utility.yul\":365:587   */\n    tag_25:\n        /* \"#utility.yul\":458:462   */\n      0x00\n        /* \"#utility.yul\":496:498   */\n      0x20\n        /* \"#utility.yul\":485:494   */\n      dup3\n        /* \"#utility.yul\":481:499   */\n      add\n        /* \"#utility.yul\":473:499   */\n      swap1\n      pop\n        /* \"#utility.yul\":509:580   */\n      tag_237\n        /* \"#utility.yul\":577:578   */\n      0x00\n        /* \"#utility.yul\":566:575   */\n      dup4\n        /* \"#utility.yul\":562:579   */\n      add\n        /* \"#utility.yul\":553:559   */\n      dup5\n        /* \"#utility.yul\":509:580   */\n      tag_188\n      jump\t// in\n    tag_237:\n        /* \"#utility.yul\":365:587   */\n      swap3\n      swap2\n      pop\n      pop\n      jump\t// out\n        /* \"#utility.yul\":593:773   */\n    tag_86:\n        /* \"#utility.yul\":641:718   */\n      0x4e487b7100000000000000000000000000000000000000000000000000000000\n        /* \"#utility.yul\":638:639   */\n      0x00\n        /* \"#utility.yul\":631:719   */\n      mstore\n        /* \"#utility.yul\":738:742   */\n      0x21\n        /* \"#utility.yul\":735:736   */\n      0x04\n        /* \"#utility.yul\":728:743   */\n      mstore\n        /* \"#utility.yul\":762:766   */\n      0x24\n        /* \"#utility.yul\":759:760   */\n      0x00\n        /* \"#utility.yul\":752:767   */\n      revert\n        /* \"#utility.yul\":779:900   */\n    tag_189:\n        /* \"#utility.yul\":868:869   */\n      0x03\n        /* \"#utility.yul\":861:866   */\n      dup2\n        /* \"#utility.yul\":858:870   */\n      lt\n        /* \"#utility.yul\":848:894   */\n      tag_240\n      jumpi\n        /* \"#utility.yul\":874:892   */\n      tag_241\n      tag_86\n      jump\t// in\n    tag_241:\n        /* \"#utility.yul\":848:894   */\n    tag_240:\n        /* \"#utility.yul\":779:900   */\n      pop\n      jump\t// out\n        /* \"#utility.yul\":906:1049   */\n    tag_190:\n        /* \"#utility.yul\":959:966   */\n      0x00\n        /* \"#utility.yul\":988:993   */\n      dup2\n        /* \"#utility.yul\":977:993   */\n      swap1\n      pop\n        /* \"#utility.yul\":994:1043   */\n      tag_243\n        /* \"#utility.yul\":1037:1042   */\n      dup3\n        /* \"#utility.yul\":994:1043   */\n      tag_189\n      jump\t// in\n    tag_243:\n        /* \"#utility.yul\":906:1049   */\n      swap2\n      swap1\n      pop\n      jump\t// out\n        /* \"#utility.yul\":1055:1198   */\n    tag_191:\n        /* \"#utility.yul\":1119:1128   */\n      0x00\n        /* \"#utility.yul\":1152:1192   */\n      tag_245\n        /* \"#utility.yul\":1186:1191   */\n      dup3\n        /* \"#utility.yul\":1152:1192   */\n      tag_190\n      jump\t// in\n    tag_245:\n        /* \"#utility.yul\":1139:1192   */\n      swap1\n      pop\n        /* \"#utility.yul\":1055:1198   */\n      swap2\n      swap1\n      pop\n      jump\t// out\n        /* \"#utility.yul\":1204:1363   */\n    tag_192:\n        /* \"#utility.yul\":1305:1356   */\n      tag_247\n        /* \"#utility.yul\":1350:1355   */\n      dup2\n        /* \"#utility.yul\":1305:1356   */\n      tag_191\n      jump\t// in\n    tag_247:\n        /* \"#utility.yul\":1300:1303   */\n      dup3\n        /* \"#utility.yul\":1293:1357   */\n      mstore\n        /* \"#utility.yul\":1204:1363   */\n      pop\n      pop\n      jump\t// out\n        /* \"#utility.yul\":1369:1619   */\n    tag_30:\n        /* \"#utility.yul\":1476:1480   */\n      0x00\n        /* \"#utility.yul\":1514:1516   */\n      0x20\n        /* \"#utility.yul\":1503:1512   */\n      dup3\n        /* \"#utility.yul\":1499:1517   */\n      add\n        /* \"#utility.yul\":1491:1517   */\n      swap1\n      pop\n        /* \"#utility.yul\":1527:1612   */\n      tag_249\n        /* \"#utility.yul\":1609:1610   */\n      0x00\n        /* \"#utility.yul\":1598:1607   */\n      dup4\n        /* \"#utility.yul\":1594:1611   */\n      add\n        /* \"#utility.yul\":1585:1591   */\n      dup5\n        /* \"#utility.yul\":1527:1612   */\n      tag_192\n      jump\t// in\n    tag_249:\n        /* \"#utility.yul\":1369:1619   */\n      swap3\n      swap2\n      pop\n      pop\n      jump\t// out\n        /* \"#utility.yul\":1625:1702   */\n    tag_193:\n        /* \"#utility.yul\":1662:1669   */\n      0x00\n        /* \"#utility.yul\":1691:1696   */\n      dup2\n        /* \"#utility.yul\":1680:1696   */\n      swap1\n      pop\n        /* \"#utility.yul\":1625:1702   */\n      swap2\n      swap1\n      pop\n      jump\t// out\n        /* \"#utility.yul\":1708:1826   */\n    tag_194:\n        /* \"#utility.yul\":1795:1819   */\n      tag_252\n        /* \"#utility.yul\":1813:1818   */\n      dup2\n        /* \"#utility.yul\":1795:1819   */\n      tag_193\n      jump\t// in\n    tag_252:\n        /* \"#utility.yul\":1790:1793   */\n      dup3\n        /* \"#utility.yul\":1783:1820   */\n      mstore\n        /* \"#utility.yul\":1708:1826   */\n      pop\n      pop\n      jump\t// out\n        /* \"#utility.yul\":1832:2054   */\n    tag_35:\n        /* \"#utility.yul\":1925:1929   */\n      0x00\n        /* \"#utility.yul\":1963:1965   */\n      0x20\n        /* \"#utility.yul\":1952:1961   */\n      dup3\n        /* \"#utility.yul\":1948:1966   */\n      add\n        /* \"#utility.yul\":1940:1966   */\n      swap1\n      pop\n        /* \"#utility.yul\":1976:2047   */\n      tag_254\n        /* \"#utility.yul\":2044:2045   */\n      0x00\n        /* \"#utility.yul\":2033:2042   */\n      dup4\n        /* \"#utility.yul\":2029:2046   */\n      add\n        /* \"#utility.yul\":2020:2026   */\n      dup5\n        /* \"#utility.yul\":1976:2047   */\n      tag_194\n      jump\t// in\n    tag_254:\n        /* \"#utility.yul\":1832:2054   */\n      swap3\n      swap2\n      pop\n      pop\n      jump\t// out\n        /* \"#utility.yul\":2060:2150   */\n    tag_195:\n        /* \"#utility.yul\":2094:2101   */\n      0x00\n        /* \"#utility.yul\":2137:2142   */\n      dup2\n        /* \"#utility.yul\":2130:2143   */\n      iszero\n        /* \"#utility.yul\":2123:2144   */\n      iszero\n        /* \"#utility.yul\":2112:2144   */\n      swap1\n      pop\n        /* \"#utility.yul\":2060:2150   */\n      swap2\n      swap1\n      pop\n      jump\t// out\n        /* \"#utility.yul\":2156:2265   */\n    tag_196:\n        /* \"#utility.yul\":2237:2258   */\n      tag_257\n        /* \"#utility.yul\":2252:2257   */\n      dup2\n        /* \"#utility.yul\":2237:2258   */\n      tag_195\n      jump\t// in\n    tag_257:\n        /* \"#utility.yul\":2232:2235   */\n      dup3\n        /* \"#utility.yul\":2225:2259   */\n      mstore\n        /* \"#utility.yul\":2156:2265   */\n      pop\n      pop\n      jump\t// out\n        /* \"#utility.yul\":2271:2481   */\n    tag_47:\n        /* \"#utility.yul\":2358:2362   */\n      0x00\n        /* \"#utility.yul\":2396:2398   */\n      0x20\n        /* \"#utility.yul\":2385:2394   */\n      dup3\n        /* \"#utility.yul\":2381:2399   */\n      add\n        /* \"#utility.yul\":2373:2399   */\n      swap1\n      pop\n        /* \"#utility.yul\":2409:2474   */\n      tag_259\n        /* \"#utility.yul\":2471:2472   */\n      0x00\n        /* \"#utility.yul\":2460:2469   */\n      dup4\n        /* \"#utility.yul\":2456:2473   */\n      add\n        /* \"#utility.yul\":2447:2453   */\n      dup5\n        /* \"#utility.yul\":2409:2474   */\n      tag_196\n      jump\t// in\n    tag_259:\n        /* \"#utility.yul\":2271:2481   */\n      swap3\n      swap2\n      pop\n      pop\n      jump\t// out\n        /* \"#utility.yul\":2487:2656   */\n    tag_197:\n        /* \"#utility.yul\":2571:2582   */\n      0x00\n        /* \"#utility.yul\":2605:2611   */\n      dup3\n        /* \"#utility.yul\":2600:2603   */\n      dup3\n        /* \"#utility.yul\":2593:2612   */\n      mstore\n        /* \"#utility.yul\":2645:2649   */\n      0x20\n        /* \"#utility.yul\":2640:2643   */\n      dup3\n        /* \"#utility.yul\":2636:2650   */\n      add\n        /* \"#utility.yul\":2621:2650   */\n      swap1\n      pop\n        /* \"#utility.yul\":2487:2656   */\n      swap3\n      swap2\n      pop\n      pop\n      jump\t// out\n        /* \"#utility.yul\":2662:2844   */\n    tag_198:\n        /* \"#utility.yul\":2802:2836   */\n      0x4f6e6c792062757965722063616e20636f6e6669726d2064656c697665726c79\n        /* \"#utility.yul\":2798:2799   */\n      0x00\n        /* \"#utility.yul\":2790:2796   */\n      dup3\n        /* \"#utility.yul\":2786:2800   */\n      add\n        /* \"#utility.yul\":2779:2837   */\n      mstore\n        /* \"#utility.yul\":2662:2844   */\n      pop\n      jump\t// out\n        /* \"#utility.yul\":2850:3216   */\n    tag_199:\n        /* \"#utility.yul\":2992:2995   */\n      0x00\n        /* \"#utility.yul\":3013:3080   */\n      tag_263\n        /* \"#utility.yul\":3077:3079   */\n      0x20\n        /* \"#utility.yul\":3072:3075   */\n      dup4\n        /* \"#utility.yul\":3013:3080   */\n      tag_197\n      jump\t// in\n    tag_263:\n        /* \"#utility.yul\":3006:3080   */\n      swap2\n      pop\n        /* \"#utility.yul\":3089:3182   */\n      tag_264\n        /* \"#utility.yul\":3178:3181   */\n      dup3\n        /* \"#utility.yul\":3089:3182   */\n      tag_198\n      jump\t// in\n    tag_264:\n        /* \"#utility.yul\":3207:3209   */\n      0x20\n        /* \"#utility.yul\":3202:3205   */\n      dup3\n        /* \"#utility.yul\":3198:3210   */\n      add\n        /* \"#utility.yul\":3191:3210   */\n      swap1\n      pop\n        /* \"#utility.yul\":2850:3216   */\n      swap2\n      swap1\n      pop\n      jump\t// out\n        /* \"#utility.yul\":3222:3641   */\n    tag_83:\n        /* \"#utility.yul\":3388:3392   */\n      0x00\n        /* \"#utility.yul\":3426:3428   */\n      0x20\n        /* \"#utility.yul\":3415:3424   */\n      dup3\n        /* \"#utility.yul\":3411:3429   */\n      add\n        /* \"#utility.yul\":3403:3429   */\n      swap1\n      pop\n        /* \"#utility.yul\":3475:3484   */\n      dup2\n        /* \"#utility.yul\":3469:3473   */\n      dup2\n        /* \"#utility.yul\":3465:3485   */\n      sub\n        /* \"#utility.yul\":3461:3462   */\n      0x00\n        /* \"#utility.yul\":3450:3459   */\n      dup4\n        /* \"#utility.yul\":3446:3463   */\n      add\n        /* \"#utility.yul\":3439:3486   */\n      mstore\n        /* \"#utility.yul\":3503:3634   */\n      tag_266\n        /* \"#utility.yul\":3629:3633   */\n      dup2\n        /* \"#utility.yul\":3503:3634   */\n      tag_199\n      jump\t// in\n    tag_266:\n        /* \"#utility.yul\":3495:3634   */\n      swap1\n      pop\n        /* \"#utility.yul\":3222:3641   */\n      swap2\n      swap1\n      pop\n      jump\t// out\n        /* \"#utility.yul\":3647:3887   */\n    tag_200:\n        /* \"#utility.yul\":3787:3821   */\n      0x436f6e7472616374206d75737420626520696e20616374697665207374617465\n        /* \"#utility.yul\":3783:3784   */\n      0x00\n        /* \"#utility.yul\":3775:3781   */\n      dup3\n        /* \"#utility.yul\":3771:3785   */\n      add\n        /* \"#utility.yul\":3764:3822   */\n      mstore\n        /* \"#utility.yul\":3856:3879   */\n      0x20746f20636f6e6669726d2064656c697665726c790000000000000000000000\n        /* \"#utility.yul\":3851:3853   */\n      0x20\n        /* \"#utility.yul\":3843:3849   */\n      dup3\n        /* \"#utility.yul\":3839:3854   */\n      add\n        /* \"#utility.yul\":3832:3880   */\n      mstore\n        /* \"#utility.yul\":3647:3887   */\n      pop\n      jump\t// out\n        /* \"#utility.yul\":3893:4259   */\n    tag_201:\n        /* \"#utility.yul\":4035:4038   */\n      0x00\n        /* \"#utility.yul\":4056:4123   */\n      tag_269\n        /* \"#utility.yul\":4120:4122   */\n      0x35\n        /* \"#utility.yul\":4115:4118   */\n      dup4\n        /* \"#utility.yul\":4056:4123   */\n      tag_197\n      jump\t// in\n    tag_269:\n        /* \"#utility.yul\":4049:4123   */\n      swap2\n      pop\n        /* \"#utility.yul\":4132:4225   */\n      tag_270\n        /* \"#utility.yul\":4221:4224   */\n      dup3\n        /* \"#utility.yul\":4132:4225   */\n      tag_200\n      jump\t// in\n    tag_270:\n        /* \"#utility.yul\":4250:4252   */\n      0x40\n        /* \"#utility.yul\":4245:4248   */\n      dup3\n        /* \"#utility.yul\":4241:4253   */\n      add\n        /* \"#utility.yul\":4234:4253   */\n      swap1\n      pop\n        /* \"#utility.yul\":3893:4259   */\n      swap2\n      swap1\n      pop\n      jump\t// out\n        /* \"#utility.yul\":4265:4684   */\n    tag_91:\n        /* \"#utility.yul\":4431:4435   */\n      0x00\n        /* \"#utility.yul\":4469:4471   */\n      0x20\n        /* \"#utility.yul\":4458:4467   */\n      dup3\n        /* \"#utility.yul\":4454:4472   */\n      add\n        /* \"#utility.yul\":4446:4472   */\n      swap1\n      pop\n        /* \"#utility.yul\":4518:4527   */\n      dup2\n        /* \"#utility.yul\":4512:4516   */\n      dup2\n        /* \"#utility.yul\":4508:4528   */\n      sub\n        /* \"#utility.yul\":4504:4505   */\n      0x00\n        /* \"#utility.yul\":4493:4502   */\n      dup4\n        /* \"#utility.yul\":4489:4506   */\n      add\n        /* \"#utility.yul\":4482:4529   */\n      mstore\n        /* \"#utility.yul\":4546:4677   */\n      tag_272\n        /* \"#utility.yul\":4672:4676   */\n      dup2\n        /* \"#utility.yul\":4546:4677   */\n      tag_201\n      jump\t// in\n    tag_272:\n        /* \"#utility.yul\":4538:4677   */\n      swap1\n      pop\n        /* \"#utility.yul\":4265:4684   */\n      swap2\n      swap1\n      pop\n      jump\t// out\n        /* \"#utility.yul\":4690:4864   */\n    tag_202:\n        /* \"#utility.yul\":4830:4856   */\n      0x4f6e6c792073656c6c65722063616e20636f6d706c6574650000000000000000\n        /* \"#utility.yul\":4826:4827   */\n      0x00\n        /* \"#utility.yul\":4818:4824   */\n      dup3\n        /* \"#utility.yul\":4814:4828   */\n      add\n        /* \"#utility.yul\":4807:4857   */\n      mstore\n        /* \"#utility.yul\":4690:4864   */\n      pop\n      jump\t// out\n        /* \"#utility.yul\":4870:5236   */\n    tag_203:\n        /* \"#utility.yul\":5012:5015   */\n      0x00\n        /* \"#utility.yul\":5033:5100   */\n      tag_275\n        /* \"#utility.yul\":5097:5099   */\n      0x18\n        /* \"#utility.yul\":5092:5095   */\n      dup4\n        /* \"#utility.yul\":5033:5100   */\n      tag_197\n      jump\t// in\n    tag_275:\n        /* \"#utility.yul\":5026:5100   */\n      swap2\n      pop\n        /* \"#utility.yul\":5109:5202   */\n      tag_276\n        /* \"#utility.yul\":5198:5201   */\n      dup3\n        /* \"#utility.yul\":5109:5202   */\n      tag_202\n      jump\t// in\n    tag_276:\n        /* \"#utility.yul\":5227:5229   */\n      0x20\n        /* \"#utility.yul\":5222:5225   */\n      dup3\n        /* \"#utility.yul\":5218:5230   */\n      add\n        /* \"#utility.yul\":5211:5230   */\n      swap1\n      pop\n        /* \"#utility.yul\":4870:5236   */\n      swap2\n      swap1\n      pop\n      jump\t// out\n        /* \"#utility.yul\":5242:5661   */\n    tag_97:\n        /* \"#utility.yul\":5408:5412   */\n      0x00\n        /* \"#utility.yul\":5446:5448   */\n      0x20\n        /* \"#utility.yul\":5435:5444   */\n      dup3\n        /* \"#utility.yul\":5431:5449   */\n      add\n        /* \"#utility.yul\":5423:5449   */\n      swap1\n      pop\n        /* \"#utility.yul\":5495:5504   */\n      dup2\n        /* \"#utility.yul\":5489:5493   */\n      dup2\n        /* \"#utility.yul\":5485:5505   */\n      sub\n        /* \"#utility.yul\":5481:5482   */\n      0x00\n        /* \"#utility.yul\":5470:5479   */\n      dup4\n        /* \"#utility.yul\":5466:5483   */\n      add\n        /* \"#utility.yul\":5459:5506   */\n      mstore\n        /* \"#utility.yul\":5523:5654   */\n      tag_278\n        /* \"#utility.yul\":5649:5653   */\n      dup2\n        /* \"#utility.yul\":5523:5654   */\n      tag_203\n      jump\t// in\n    tag_278:\n        /* \"#utility.yul\":5515:5654   */\n      swap1\n      pop\n        /* \"#utility.yul\":5242:5661   */\n      swap2\n      swap1\n      pop\n      jump\t// out\n        /* \"#utility.yul\":5667:5840   */\n    tag_204:\n        /* \"#utility.yul\":5807:5832   */\n      0x436f6e7472616374206d75737420626520616374697665000000000000000000\n        /* \"#utility.yul\":5803:5804   */\n      0x00\n        /* \"#utility.yul\":5795:5801   */\n      dup3\n        /* \"#utility.yul\":5791:5805   */\n      add\n        /* \"#utility.yul\":5784:5833   */\n      mstore\n        /* \"#utility.yul\":5667:5840   */\n      pop\n      jump\t// out\n        /* \"#utility.yul\":5846:6212   */\n    tag_205:\n        /* \"#utility.yul\":5988:5991   */\n      0x00\n        /* \"#utility.yul\":6009:6076   */\n      tag_281\n        /* \"#utility.yul\":6073:6075   */\n      0x17\n        /* \"#utility.yul\":6068:6071   */\n      dup4\n        /* \"#utility.yul\":6009:6076   */\n      tag_197\n      jump\t// in\n    tag_281:\n        /* \"#utility.yul\":6002:6076   */\n      swap2\n      pop\n        /* \"#utility.yul\":6085:6178   */\n      tag_282\n        /* \"#utility.yul\":6174:6177   */\n      dup3\n        /* \"#utility.yul\":6085:6178   */\n      tag_204\n      jump\t// in\n    tag_282:\n        /* \"#utility.yul\":6203:6205   */\n      0x20\n        /* \"#utility.yul\":6198:6201   */\n      dup3\n        /* \"#utility.yul\":6194:6206   */\n      add\n        /* \"#utility.yul\":6187:6206   */\n      swap1\n      pop\n        /* \"#utility.yul\":5846:6212   */\n      swap2\n      swap1\n      pop\n      jump\t// out\n        /* \"#utility.yul\":6218:6637   */\n    tag_104:\n        /* \"#utility.yul\":6384:6388   */\n      0x00\n        /* \"#utility.yul\":6422:6424   */\n      0x20\n        /* \"#utility.yul\":6411:6420   */\n      dup3\n        /* \"#utility.yul\":6407:6425   */\n      add\n        /* \"#utility.yul\":6399:6425   */\n      swap1\n      pop\n        /* \"#utility.yul\":6471:6480   */\n      dup2\n        /* \"#utility.yul\":6465:6469   */\n      dup2\n        /* \"#utility.yul\":6461:6481   */\n      sub\n        /* \"#utility.yul\":6457:6458   */\n      0x00\n        /* \"#utility.yul\":6446:6455   */\n      dup4\n        /* \"#utility.yul\":6442:6459   */\n      add\n        /* \"#utility.yul\":6435:6482   */\n      mstore\n        /* \"#utility.yul\":6499:6630   */\n      tag_284\n        /* \"#utility.yul\":6625:6629   */\n      dup2\n        /* \"#utility.yul\":6499:6630   */\n      tag_205\n      jump\t// in\n    tag_284:\n        /* \"#utility.yul\":6491:6630   */\n      swap1\n      pop\n        /* \"#utility.yul\":6218:6637   */\n      swap2\n      swap1\n      pop\n      jump\t// out\n        /* \"#utility.yul\":6643:6825   */\n    tag_206:\n        /* \"#utility.yul\":6783:6817   */\n      0x416d6f756e74207061696420696e20657363726f77206d757374206d61746368\n        /* \"#utility.yul\":6779:6780   */\n      0x00\n        /* \"#utility.yul\":6771:6777   */\n      dup3\n        /* \"#utility.yul\":6767:6781   */\n      add\n        /* \"#utility.yul\":6760:6818   */\n      mstore\n        /* \"#utility.yul\":6643:6825   */\n      pop\n      jump\t// out\n        /* \"#utility.yul\":6831:7197   */\n    tag_207:\n        /* \"#utility.yul\":6973:6976   */\n      0x00\n        /* \"#utility.yul\":6994:7061   */\n      tag_287\n        /* \"#utility.yul\":7058:7060   */\n      0x20\n        /* \"#utility.yul\":7053:7056   */\n      dup4\n        /* \"#utility.yul\":6994:7061   */\n      tag_197\n      jump\t// in\n    tag_287:\n        /* \"#utility.yul\":6987:7061   */\n      swap2\n      pop\n        /* \"#utility.yul\":7070:7163   */\n      tag_288\n        /* \"#utility.yul\":7159:7162   */\n      dup3\n        /* \"#utility.yul\":7070:7163   */\n      tag_206\n      jump\t// in\n    tag_288:\n        /* \"#utility.yul\":7188:7190   */\n      0x20\n        /* \"#utility.yul\":7183:7186   */\n      dup3\n        /* \"#utility.yul\":7179:7191   */\n      add\n        /* \"#utility.yul\":7172:7191   */\n      swap1\n      pop\n        /* \"#utility.yul\":6831:7197   */\n      swap2\n      swap1\n      pop\n      jump\t// out\n        /* \"#utility.yul\":7203:7622   */\n    tag_107:\n        /* \"#utility.yul\":7369:7373   */\n      0x00\n        /* \"#utility.yul\":7407:7409   */\n      0x20\n        /* \"#utility.yul\":7396:7405   */\n      dup3\n        /* \"#utility.yul\":7392:7410   */\n      add\n        /* \"#utility.yul\":7384:7410   */\n      swap1\n      pop\n        /* \"#utility.yul\":7456:7465   */\n      dup2\n        /* \"#utility.yul\":7450:7454   */\n      dup2\n        /* \"#utility.yul\":7446:7466   */\n      sub\n        /* \"#utility.yul\":7442:7443   */\n      0x00\n        /* \"#utility.yul\":7431:7440   */\n      dup4\n        /* \"#utility.yul\":7427:7444   */\n      add\n        /* \"#utility.yul\":7420:7467   */\n      mstore\n        /* \"#utility.yul\":7484:7615   */\n      tag_290\n        /* \"#utility.yul\":7610:7614   */\n      dup2\n        /* \"#utility.yul\":7484:7615   */\n      tag_207\n      jump\t// in\n    tag_290:\n        /* \"#utility.yul\":7476:7615   */\n      swap1\n      pop\n        /* \"#utility.yul\":7203:7622   */\n      swap2\n      swap1\n      pop\n      jump\t// out\n        /* \"#utility.yul\":7628:7850   */\n    tag_208:\n        /* \"#utility.yul\":7768:7802   */\n      0x53656c6c6572206d757374206861766520636f6e6669726d65642064656c6976\n        /* \"#utility.yul\":7764:7765   */\n      0x00\n        /* \"#utility.yul\":7756:7762   */\n      dup3\n        /* \"#utility.yul\":7752:7766   */\n      add\n        /* \"#utility.yul\":7745:7803   */\n      mstore\n        /* \"#utility.yul\":7837:7842   */\n      0x6572790000000000000000000000000000000000000000000000000000000000\n        /* \"#utility.yul\":7832:7834   */\n      0x20\n        /* \"#utility.yul\":7824:7830   */\n      dup3\n        /* \"#utility.yul\":7820:7835   */\n      add\n        /* \"#utility.yul\":7813:7843   */\n      mstore\n        /* \"#utility.yul\":7628:7850   */\n      pop\n      jump\t// out\n        /* \"#utility.yul\":7856:8222   */\n    tag_209:\n        /* \"#utility.yul\":7998:8001   */\n      0x00\n        /* \"#utility.yul\":8019:8086   */\n      tag_293\n        /* \"#utility.yul\":8083:8085   */\n      0x23\n        /* \"#utility.yul\":8078:8081   */\n      dup4\n        /* \"#utility.yul\":8019:8086   */\n      tag_197\n      jump\t// in\n    tag_293:\n        /* \"#utility.yul\":8012:8086   */\n      swap2\n      pop\n        /* \"#utility.yul\":8095:8188   */\n      tag_294\n        /* \"#utility.yul\":8184:8187   */\n      dup3\n        /* \"#utility.yul\":8095:8188   */\n      tag_208\n      jump\t// in\n    tag_294:\n        /* \"#utility.yul\":8213:8215   */\n      0x40\n        /* \"#utility.yul\":8208:8211   */\n      dup3\n        /* \"#utility.yul\":8204:8216   */\n      add\n        /* \"#utility.yul\":8197:8216   */\n      swap1\n      pop\n        /* \"#utility.yul\":7856:8222   */\n      swap2\n      swap1\n      pop\n      jump\t// out\n        /* \"#utility.yul\":8228:8647   */\n    tag_110:\n        /* \"#utility.yul\":8394:8398   */\n      0x00\n        /* \"#utility.yul\":8432:8434   */\n      0x20\n        /* \"#utility.yul\":8421:8430   */\n      dup3\n        /* \"#utility.yul\":8417:8435   */\n      add\n        /* \"#utility.yul\":8409:8435   */\n      swap1\n      pop\n        /* \"#utility.yul\":8481:8490   */\n      dup2\n        /* \"#utility.yul\":8475:8479   */\n      dup2\n        /* \"#utility.yul\":8471:8491   */\n      sub\n        /* \"#utility.yul\":8467:8468   */\n      0x00\n        /* \"#utility.yul\":8456:8465   */\n      dup4\n        /* \"#utility.yul\":8452:8469   */\n      add\n        /* \"#utility.yul\":8445:8492   */\n      mstore\n        /* \"#utility.yul\":8509:8640   */\n      tag_296\n        /* \"#utility.yul\":8635:8639   */\n      dup2\n        /* \"#utility.yul\":8509:8640   */\n      tag_209\n      jump\t// in\n    tag_296:\n        /* \"#utility.yul\":8501:8640   */\n      swap1\n      pop\n        /* \"#utility.yul\":8228:8647   */\n      swap2\n      swap1\n      pop\n      jump\t// out\n        /* \"#utility.yul\":8653:8827   */\n    tag_210:\n        /* \"#utility.yul\":8793:8819   */\n      0x446973707574652068617665206265656e207261697365640000000000000000\n        /* \"#utility.yul\":8789:8790   */\n      0x00\n        /* \"#utility.yul\":8781:8787   */\n      dup3\n        /* \"#utility.yul\":8777:8791   */\n      add\n        /* \"#utility.yul\":8770:8820   */\n      mstore\n        /* \"#utility.yul\":8653:8827   */\n      pop\n      jump\t// out\n        /* \"#utility.yul\":8833:9199   */\n    tag_211:\n        /* \"#utility.yul\":8975:8978   */\n      0x00\n        /* \"#utility.yul\":8996:9063   */\n      tag_299\n        /* \"#utility.yul\":9060:9062   */\n      0x18\n        /* \"#utility.yul\":9055:9058   */\n      dup4\n        /* \"#utility.yul\":8996:9063   */\n      tag_197\n      jump\t// in\n    tag_299:\n        /* \"#utility.yul\":8989:9063   */\n      swap2\n      pop\n        /* \"#utility.yul\":9072:9165   */\n      tag_300\n        /* \"#utility.yul\":9161:9164   */\n      dup3\n        /* \"#utility.yul\":9072:9165   */\n      tag_210\n      jump\t// in\n    tag_300:\n        /* \"#utility.yul\":9190:9192   */\n      0x20\n        /* \"#utility.yul\":9185:9188   */\n      dup3\n        /* \"#utility.yul\":9181:9193   */\n      add\n        /* \"#utility.yul\":9174:9193   */\n      swap1\n      pop\n        /* \"#utility.yul\":8833:9199   */\n      swap2\n      swap1\n      pop\n      jump\t// out\n        /* \"#utility.yul\":9205:9624   */\n    tag_113:\n        /* \"#utility.yul\":9371:9375   */\n      0x00\n        /* \"#utility.yul\":9409:9411   */\n      0x20\n        /* \"#utility.yul\":9398:9407   */\n      dup3\n        /* \"#utility.yul\":9394:9412   */\n      add\n        /* \"#utility.yul\":9386:9412   */\n      swap1\n      pop\n        /* \"#utility.yul\":9458:9467   */\n      dup2\n        /* \"#utility.yul\":9452:9456   */\n      dup2\n        /* \"#utility.yul\":9448:9468   */\n      sub\n        /* \"#utility.yul\":9444:9445   */\n      0x00\n        /* \"#utility.yul\":9433:9442   */\n      dup4\n        /* \"#utility.yul\":9429:9446   */\n      add\n        /* \"#utility.yul\":9422:9469   */\n      mstore\n        /* \"#utility.yul\":9486:9617   */\n      tag_302\n        /* \"#utility.yul\":9612:9616   */\n      dup2\n        /* \"#utility.yul\":9486:9617   */\n      tag_211\n      jump\t// in\n    tag_302:\n        /* \"#utility.yul\":9478:9617   */\n      swap1\n      pop\n        /* \"#utility.yul\":9205:9624   */\n      swap2\n      swap1\n      pop\n      jump\t// out\n        /* \"#utility.yul\":9630:9803   */\n    tag_212:\n        /* \"#utility.yul\":9770:9795   */\n      0x204f6e6c792062757965722063616e2064697370757465000000000000000000\n        /* \"#utility.yul\":9766:9767   */\n      0x00\n        /* \"#utility.yul\":9758:9764   */\n      dup3\n        /* \"#utility.yul\":9754:9768   */\n      add\n        /* \"#utility.yul\":9747:9796   */\n      mstore\n        /* \"#utility.yul\":9630:9803   */\n      pop\n      jump\t// out\n        /* \"#utility.yul\":9809:10175   */\n    tag_213:\n        /* \"#utility.yul\":9951:9954   */\n      0x00\n        /* \"#utility.yul\":9972:10039   */\n      tag_305\n        /* \"#utility.yul\":10036:10038   */\n      0x17\n        /* \"#utility.yul\":10031:10034   */\n      dup4\n        /* \"#utility.yul\":9972:10039   */\n      tag_197\n      jump\t// in\n    tag_305:\n        /* \"#utility.yul\":9965:10039   */\n      swap2\n      pop\n        /* \"#utility.yul\":10048:10141   */\n      tag_306\n        /* \"#utility.yul\":10137:10140   */\n      dup3\n        /* \"#utility.yul\":10048:10141   */\n      tag_212\n      jump\t// in\n    tag_306:\n        /* \"#utility.yul\":10166:10168   */\n      0x20\n        /* \"#utility.yul\":10161:10164   */\n      dup3\n        /* \"#utility.yul\":10157:10169   */\n      add\n        /* \"#utility.yul\":10150:10169   */\n      swap1\n      pop\n        /* \"#utility.yul\":9809:10175   */\n      swap2\n      swap1\n      pop\n      jump\t// out\n        /* \"#utility.yul\":10181:10600   */\n    tag_122:\n        /* \"#utility.yul\":10347:10351   */\n      0x00\n        /* \"#utility.yul\":10385:10387   */\n      0x20\n        /* \"#utility.yul\":10374:10383   */\n      dup3\n        /* \"#utility.yul\":10370:10388   */\n      add\n        /* \"#utility.yul\":10362:10388   */\n      swap1\n      pop\n        /* \"#utility.yul\":10434:10443   */\n      dup2\n        /* \"#utility.yul\":10428:10432   */\n      dup2\n        /* \"#utility.yul\":10424:10444   */\n      sub\n        /* \"#utility.yul\":10420:10421   */\n      0x00\n        /* \"#utility.yul\":10409:10418   */\n      dup4\n        /* \"#utility.yul\":10405:10422   */\n      add\n        /* \"#utility.yul\":10398:10445   */\n      mstore\n        /* \"#utility.yul\":10462:10593   */\n      tag_308\n        /* \"#utility.yul\":10588:10592   */\n      dup2\n        /* \"#utility.yul\":10462:10593   */\n      tag_213\n      jump\t// in\n    tag_308:\n        /* \"#utility.yul\":10454:10593   */\n      swap1\n      pop\n        /* \"#utility.yul\":10181:10600   */\n      swap2\n      swap1\n      pop\n      jump\t// out\n        /* \"#utility.yul\":10606:10827   */\n    tag_214:\n        /* \"#utility.yul\":10746:10780   */\n      0x4275796572206d757374206861766520636f6e6669726d65642064656c697665\n        /* \"#utility.yul\":10742:10743   */\n      0x00\n        /* \"#utility.yul\":10734:10740   */\n      dup3\n        /* \"#utility.yul\":10730:10744   */\n      add\n        /* \"#utility.yul\":10723:10781   */\n      mstore\n        /* \"#utility.yul\":10815:10819   */\n      0x7279000000000000000000000000000000000000000000000000000000000000\n        /* \"#utility.yul\":10810:10812   */\n      0x20\n        /* \"#utility.yul\":10802:10808   */\n      dup3\n        /* \"#utility.yul\":10798:10813   */\n      add\n        /* \"#utility.yul\":10791:10820   */\n      mstore\n        /* \"#utility.yul\":10606:10827   */\n      pop\n      jump\t// out\n        /* \"#utility.yul\":10833:11199   */\n    tag_215:\n        /* \"#utility.yul\":10975:10978   */\n      0x00\n        /* \"#utility.yul\":10996:11063   */\n      tag_311\n        /* \"#utility.yul\":11060:11062   */\n      0x22\n        /* \"#utility.yul\":11055:11058   */\n      dup4\n        /* \"#utility.yul\":10996:11063   */\n      tag_197\n      jump\t// in\n    tag_311:\n        /* \"#utility.yul\":10989:11063   */\n      swap2\n      pop\n        /* \"#utility.yul\":11072:11165   */\n      tag_312\n        /* \"#utility.yul\":11161:11164   */\n      dup3\n        /* \"#utility.yul\":11072:11165   */\n      tag_214\n      jump\t// in\n    tag_312:\n        /* \"#utility.yul\":11190:11192   */\n      0x40\n        /* \"#utility.yul\":11185:11188   */\n      dup3\n        /* \"#utility.yul\":11181:11193   */\n      add\n        /* \"#utility.yul\":11174:11193   */\n      swap1\n      pop\n        /* \"#utility.yul\":10833:11199   */\n      swap2\n      swap1\n      pop\n      jump\t// out\n        /* \"#utility.yul\":11205:11624   */\n    tag_133:\n        /* \"#utility.yul\":11371:11375   */\n      0x00\n        /* \"#utility.yul\":11409:11411   */\n      0x20\n        /* \"#utility.yul\":11398:11407   */\n      dup3\n        /* \"#utility.yul\":11394:11412   */\n      add\n        /* \"#utility.yul\":11386:11412   */\n      swap1\n      pop\n        /* \"#utility.yul\":11458:11467   */\n      dup2\n        /* \"#utility.yul\":11452:11456   */\n      dup2\n        /* \"#utility.yul\":11448:11468   */\n      sub\n        /* \"#utility.yul\":11444:11445   */\n      0x00\n        /* \"#utility.yul\":11433:11442   */\n      dup4\n        /* \"#utility.yul\":11429:11446   */\n      add\n        /* \"#utility.yul\":11422:11469   */\n      mstore\n        /* \"#utility.yul\":11486:11617   */\n      tag_314\n        /* \"#utility.yul\":11612:11616   */\n      dup2\n        /* \"#utility.yul\":11486:11617   */\n      tag_215\n      jump\t// in\n    tag_314:\n        /* \"#utility.yul\":11478:11617   */\n      swap1\n      pop\n        /* \"#utility.yul\":11205:11624   */\n      swap2\n      swap1\n      pop\n      jump\t// out\n        /* \"#utility.yul\":11630:11850   */\n    tag_216:\n        /* \"#utility.yul\":11770:11804   */\n      0x4f6e6c792073656c6c65722063616e20636f6e6469726d2064656c697665726c\n        /* \"#utility.yul\":11766:11767   */\n      0x00\n        /* \"#utility.yul\":11758:11764   */\n      dup3\n        /* \"#utility.yul\":11754:11768   */\n      add\n        /* \"#utility.yul\":11747:11805   */\n      mstore\n        /* \"#utility.yul\":11839:11842   */\n      0x7900000000000000000000000000000000000000000000000000000000000000\n        /* \"#utility.yul\":11834:11836   */\n      0x20\n        /* \"#utility.yul\":11826:11832   */\n      dup3\n        /* \"#utility.yul\":11822:11837   */\n      add\n        /* \"#utility.yul\":11815:11843   */\n      mstore\n        /* \"#utility.yul\":11630:11850   */\n      pop\n      jump\t// out\n        /* \"#utility.yul\":11856:12222   */\n    tag_217:\n        /* \"#utility.yul\":11998:12001   */\n      0x00\n        /* \"#utility.yul\":12019:12086   */\n      tag_317\n        /* \"#utility.yul\":12083:12085   */\n      0x21\n        /* \"#utility.yul\":12078:12081   */\n      dup4\n        /* \"#utility.yul\":12019:12086   */\n      tag_197\n      jump\t// in\n    tag_317:\n        /* \"#utility.yul\":12012:12086   */\n      swap2\n      pop\n        /* \"#utility.yul\":12095:12188   */\n      tag_318\n        /* \"#utility.yul\":12184:12187   */\n      dup3\n        /* \"#utility.yul\":12095:12188   */\n      tag_216\n      jump\t// in\n    tag_318:\n        /* \"#utility.yul\":12213:12215   */\n      0x40\n        /* \"#utility.yul\":12208:12211   */\n      dup3\n        /* \"#utility.yul\":12204:12216   */\n      add\n        /* \"#utility.yul\":12197:12216   */\n      swap1\n      pop\n        /* \"#utility.yul\":11856:12222   */\n      swap2\n      swap1\n      pop\n      jump\t// out\n        /* \"#utility.yul\":12228:12647   */\n    tag_139:\n        /* \"#utility.yul\":12394:12398   */\n      0x00\n        /* \"#utility.yul\":12432:12434   */\n      0x20\n        /* \"#utility.yul\":12421:12430   */\n      dup3\n        /* \"#utility.yul\":12417:12435   */\n      add\n        /* \"#utility.yul\":12409:12435   */\n      swap1\n      pop\n        /* \"#utility.yul\":12481:12490   */\n      dup2\n        /* \"#utility.yul\":12475:12479   */\n      dup2\n        /* \"#utility.yul\":12471:12491   */\n      sub\n        /* \"#utility.yul\":12467:12468   */\n      0x00\n        /* \"#utility.yul\":12456:12465   */\n      dup4\n        /* \"#utility.yul\":12452:12469   */\n      add\n        /* \"#utility.yul\":12445:12492   */\n      mstore\n        /* \"#utility.yul\":12509:12640   */\n      tag_320\n        /* \"#utility.yul\":12635:12639   */\n      dup2\n        /* \"#utility.yul\":12509:12640   */\n      tag_217\n      jump\t// in\n    tag_320:\n        /* \"#utility.yul\":12501:12640   */\n      swap1\n      pop\n        /* \"#utility.yul\":12228:12647   */\n      swap2\n      swap1\n      pop\n      jump\t// out\n        /* \"#utility.yul\":12653:12828   */\n    tag_218:\n        /* \"#utility.yul\":12793:12820   */\n      0x436f6e74726163742068617320746f2062652061637469766500000000000000\n        /* \"#utility.yul\":12789:12790   */\n      0x00\n        /* \"#utility.yul\":12781:12787   */\n      dup3\n        /* \"#utility.yul\":12777:12791   */\n      add\n        /* \"#utility.yul\":12770:12821   */\n      mstore\n        /* \"#utility.yul\":12653:12828   */\n      pop\n      jump\t// out\n        /* \"#utility.yul\":12834:13200   */\n    tag_219:\n        /* \"#utility.yul\":12976:12979   */\n      0x00\n        /* \"#utility.yul\":12997:13064   */\n      tag_323\n        /* \"#utility.yul\":13061:13063   */\n      0x19\n        /* \"#utility.yul\":13056:13059   */\n      dup4\n        /* \"#utility.yul\":12997:13064   */\n      tag_197\n      jump\t// in\n    tag_323:\n        /* \"#utility.yul\":12990:13064   */\n      swap2\n      pop\n        /* \"#utility.yul\":13073:13166   */\n      tag_324\n        /* \"#utility.yul\":13162:13165   */\n      dup3\n        /* \"#utility.yul\":13073:13166   */\n      tag_218\n      jump\t// in\n    tag_324:\n        /* \"#utility.yul\":13191:13193   */\n      0x20\n        /* \"#utility.yul\":13186:13189   */\n      dup3\n        /* \"#utility.yul\":13182:13194   */\n      add\n        /* \"#utility.yul\":13175:13194   */\n      swap1\n      pop\n        /* \"#utility.yul\":12834:13200   */\n      swap2\n      swap1\n      pop\n      jump\t// out\n        /* \"#utility.yul\":13206:13625   */\n    tag_146:\n        /* \"#utility.yul\":13372:13376   */\n      0x00\n        /* \"#utility.yul\":13410:13412   */\n      0x20\n        /* \"#utility.yul\":13399:13408   */\n      dup3\n        /* \"#utility.yul\":13395:13413   */\n      add\n        /* \"#utility.yul\":13387:13413   */\n      swap1\n      pop\n        /* \"#utility.yul\":13459:13468   */\n      dup2\n        /* \"#utility.yul\":13453:13457   */\n      dup2\n        /* \"#utility.yul\":13449:13469   */\n      sub\n        /* \"#utility.yul\":13445:13446   */\n      0x00\n        /* \"#utility.yul\":13434:13443   */\n      dup4\n        /* \"#utility.yul\":13430:13447   */\n      add\n        /* \"#utility.yul\":13423:13470   */\n      mstore\n        /* \"#utility.yul\":13487:13618   */\n      tag_326\n        /* \"#utility.yul\":13613:13617   */\n      dup2\n        /* \"#utility.yul\":13487:13618   */\n      tag_219\n      jump\t// in\n    tag_326:\n        /* \"#utility.yul\":13479:13618   */\n      swap1\n      pop\n        /* \"#utility.yul\":13206:13625   */\n      swap2\n      swap1\n      pop\n      jump\t// out\n        /* \"#utility.yul\":13631:13853   */\n    tag_220:\n        /* \"#utility.yul\":13771:13805   */\n      0x436f6e747261637420616d6f756e742068617320746f207061696420696e2066\n        /* \"#utility.yul\":13767:13768   */\n      0x00\n        /* \"#utility.yul\":13759:13765   */\n      dup3\n        /* \"#utility.yul\":13755:13769   */\n      add\n        /* \"#utility.yul\":13748:13806   */\n      mstore\n        /* \"#utility.yul\":13840:13845   */\n      0x756c6c0000000000000000000000000000000000000000000000000000000000\n        /* \"#utility.yul\":13835:13837   */\n      0x20\n        /* \"#utility.yul\":13827:13833   */\n      dup3\n        /* \"#utility.yul\":13823:13838   */\n      add\n        /* \"#utility.yul\":13816:13846   */\n      mstore\n        /* \"#utility.yul\":13631:13853   */\n      pop\n      jump\t// out\n        /* \"#utility.yul\":13859:14225   */\n    tag_221:\n        /* \"#utility.yul\":14001:14004   */\n      0x00\n        /* \"#utility.yul\":14022:14089   */\n      tag_329\n        /* \"#utility.yul\":14086:14088   */\n      0x23\n        /* \"#utility.yul\":14081:14084   */\n      dup4\n        /* \"#utility.yul\":14022:14089   */\n      tag_197\n      jump\t// in\n    tag_329:\n        /* \"#utility.yul\":14015:14089   */\n      swap2\n      pop\n        /* \"#utility.yul\":14098:14191   */\n      tag_330\n        /* \"#utility.yul\":14187:14190   */\n      dup3\n        /* \"#utility.yul\":14098:14191   */\n      tag_220\n      jump\t// in\n    tag_330:\n        /* \"#utility.yul\":14216:14218   */\n      0x40\n        /* \"#utility.yul\":14211:14214   */\n      dup3\n        /* \"#utility.yul\":14207:14219   */\n      add\n        /* \"#utility.yul\":14200:14219   */\n      swap1\n      pop\n        /* \"#utility.yul\":13859:14225   */\n      swap2\n      swap1\n      pop\n      jump\t// out\n        /* \"#utility.yul\":14231:14650   */\n    tag_149:\n        /* \"#utility.yul\":14397:14401   */\n      0x00\n        /* \"#utility.yul\":14435:14437   */\n      0x20\n        /* \"#utility.yul\":14424:14433   */\n      dup3\n        /* \"#utility.yul\":14420:14438   */\n      add\n        /* \"#utility.yul\":14412:14438   */\n      swap1\n      pop\n        /* \"#utility.yul\":14484:14493   */\n      dup2\n        /* \"#utility.yul\":14478:14482   */\n      dup2\n        /* \"#utility.yul\":14474:14494   */\n      sub\n        /* \"#utility.yul\":14470:14471   */\n      0x00\n        /* \"#utility.yul\":14459:14468   */\n      dup4\n        /* \"#utility.yul\":14455:14472   */\n      add\n        /* \"#utility.yul\":14448:14495   */\n      mstore\n        /* \"#utility.yul\":14512:14643   */\n      tag_332\n        /* \"#utility.yul\":14638:14642   */\n      dup2\n        /* \"#utility.yul\":14512:14643   */\n      tag_221\n      jump\t// in\n    tag_332:\n        /* \"#utility.yul\":14504:14643   */\n      swap1\n      pop\n        /* \"#utility.yul\":14231:14650   */\n      swap2\n      swap1\n      pop\n      jump\t// out\n        /* \"#utility.yul\":14656:14834   */\n    tag_222:\n        /* \"#utility.yul\":14796:14826   */\n      0x4f6e6c792062757965722063616e206465706f7369742066756e647300000000\n        /* \"#utility.yul\":14792:14793   */\n      0x00\n        /* \"#utility.yul\":14784:14790   */\n      dup3\n        /* \"#utility.yul\":14780:14794   */\n      add\n        /* \"#utility.yul\":14773:14827   */\n      mstore\n        /* \"#utility.yul\":14656:14834   */\n      pop\n      jump\t// out\n        /* \"#utility.yul\":14840:15206   */\n    tag_223:\n        /* \"#utility.yul\":14982:14985   */\n      0x00\n        /* \"#utility.yul\":15003:15070   */\n      tag_335\n        /* \"#utility.yul\":15067:15069   */\n      0x1c\n        /* \"#utility.yul\":15062:15065   */\n      dup4\n        /* \"#utility.yul\":15003:15070   */\n      tag_197\n      jump\t// in\n    tag_335:\n        /* \"#utility.yul\":14996:15070   */\n      swap2\n      pop\n        /* \"#utility.yul\":15079:15172   */\n      tag_336\n        /* \"#utility.yul\":15168:15171   */\n      dup3\n        /* \"#utility.yul\":15079:15172   */\n      tag_222\n      jump\t// in\n    tag_336:\n        /* \"#utility.yul\":15197:15199   */\n      0x20\n        /* \"#utility.yul\":15192:15195   */\n      dup3\n        /* \"#utility.yul\":15188:15200   */\n      add\n        /* \"#utility.yul\":15181:15200   */\n      swap1\n      pop\n        /* \"#utility.yul\":14840:15206   */\n      swap2\n      swap1\n      pop\n      jump\t// out\n        /* \"#utility.yul\":15212:15631   */\n    tag_154:\n        /* \"#utility.yul\":15378:15382   */\n      0x00\n        /* \"#utility.yul\":15416:15418   */\n      0x20\n        /* \"#utility.yul\":15405:15414   */\n      dup3\n        /* \"#utility.yul\":15401:15419   */\n      add\n        /* \"#utility.yul\":15393:15419   */\n      swap1\n      pop\n        /* \"#utility.yul\":15465:15474   */\n      dup2\n        /* \"#utility.yul\":15459:15463   */\n      dup2\n        /* \"#utility.yul\":15455:15475   */\n      sub\n        /* \"#utility.yul\":15451:15452   */\n      0x00\n        /* \"#utility.yul\":15440:15449   */\n      dup4\n        /* \"#utility.yul\":15436:15453   */\n      add\n        /* \"#utility.yul\":15429:15476   */\n      mstore\n        /* \"#utility.yul\":15493:15624   */\n      tag_338\n        /* \"#utility.yul\":15619:15623   */\n      dup2\n        /* \"#utility.yul\":15493:15624   */\n      tag_223\n      jump\t// in\n    tag_338:\n        /* \"#utility.yul\":15485:15624   */\n      swap1\n      pop\n        /* \"#utility.yul\":15212:15631   */\n      swap2\n      swap1\n      pop\n      jump\t// out\n        /* \"#utility.yul\":15637:15873   */\n    tag_224:\n        /* \"#utility.yul\":15777:15811   */\n      0x436f6e7472616374206d75737420626520696e20616374697665207374617465\n        /* \"#utility.yul\":15773:15774   */\n      0x00\n        /* \"#utility.yul\":15765:15771   */\n      dup3\n        /* \"#utility.yul\":15761:15775   */\n      add\n        /* \"#utility.yul\":15754:15812   */\n      mstore\n        /* \"#utility.yul\":15846:15865   */\n      0x20746f206465706f7369742066756e6473000000000000000000000000000000\n        /* \"#utility.yul\":15841:15843   */\n      0x20\n        /* \"#utility.yul\":15833:15839   */\n      dup3\n        /* \"#utility.yul\":15829:15844   */\n      add\n        /* \"#utility.yul\":15822:15866   */\n      mstore\n        /* \"#utility.yul\":15637:15873   */\n      pop\n      jump\t// out\n        /* \"#utility.yul\":15879:16245   */\n    tag_225:\n        /* \"#utility.yul\":16021:16024   */\n      0x00\n        /* \"#utility.yul\":16042:16109   */\n      tag_341\n        /* \"#utility.yul\":16106:16108   */\n      0x31\n        /* \"#utility.yul\":16101:16104   */\n      dup4\n        /* \"#utility.yul\":16042:16109   */\n      tag_197\n      jump\t// in\n    tag_341:\n        /* \"#utility.yul\":16035:16109   */\n      swap2\n      pop\n        /* \"#utility.yul\":16118:16211   */\n      tag_342\n        /* \"#utility.yul\":16207:16210   */\n      dup3\n        /* \"#utility.yul\":16118:16211   */\n      tag_224\n      jump\t// in\n    tag_342:\n        /* \"#utility.yul\":16236:16238   */\n      0x40\n        /* \"#utility.yul\":16231:16234   */\n      dup3\n        /* \"#utility.yul\":16227:16239   */\n      add\n        /* \"#utility.yul\":16220:16239   */\n      swap1\n      pop\n        /* \"#utility.yul\":15879:16245   */\n      swap2\n      swap1\n      pop\n      jump\t// out\n        /* \"#utility.yul\":16251:16670   */\n    tag_161:\n        /* \"#utility.yul\":16417:16421   */\n      0x00\n        /* \"#utility.yul\":16455:16457   */\n      0x20\n        /* \"#utility.yul\":16444:16453   */\n      dup3\n        /* \"#utility.yul\":16440:16458   */\n      add\n        /* \"#utility.yul\":16432:16458   */\n      swap1\n      pop\n        /* \"#utility.yul\":16504:16513   */\n      dup2\n        /* \"#utility.yul\":16498:16502   */\n      dup2\n        /* \"#utility.yul\":16494:16514   */\n      sub\n        /* \"#utility.yul\":16490:16491   */\n      0x00\n        /* \"#utility.yul\":16479:16488   */\n      dup4\n        /* \"#utility.yul\":16475:16492   */\n      add\n        /* \"#utility.yul\":16468:16515   */\n      mstore\n        /* \"#utility.yul\":16532:16663   */\n      tag_344\n        /* \"#utility.yul\":16658:16662   */\n      dup2\n        /* \"#utility.yul\":16532:16663   */\n      tag_225\n      jump\t// in\n    tag_344:\n        /* \"#utility.yul\":16524:16663   */\n      swap1\n      pop\n        /* \"#utility.yul\":16251:16670   */\n      swap2\n      swap1\n      pop\n      jump\t// out\n        /* \"#utility.yul\":16676:16858   */\n    tag_226:\n        /* \"#utility.yul\":16816:16850   */\n      0x416d6f756e74206d7573742062652067726561746572207468616e207a65726f\n        /* \"#utility.yul\":16812:16813   */\n      0x00\n        /* \"#utility.yul\":16804:16810   */\n      dup3\n        /* \"#utility.yul\":16800:16814   */\n      add\n        /* \"#utility.yul\":16793:16851   */\n      mstore\n        /* \"#utility.yul\":16676:16858   */\n      pop\n      jump\t// out\n        /* \"#utility.yul\":16864:17230   */\n    tag_227:\n        /* \"#utility.yul\":17006:17009   */\n      0x00\n        /* \"#utility.yul\":17027:17094   */\n      tag_347\n        /* \"#utility.yul\":17091:17093   */\n      0x20\n        /* \"#utility.yul\":17086:17089   */\n      dup4\n        /* \"#utility.yul\":17027:17094   */\n      tag_197\n      jump\t// in\n    tag_347:\n        /* \"#utility.yul\":17020:17094   */\n      swap2\n      pop\n        /* \"#utility.yul\":17103:17196   */\n      tag_348\n        /* \"#utility.yul\":17192:17195   */\n      dup3\n        /* \"#utility.yul\":17103:17196   */\n      tag_226\n      jump\t// in\n    tag_348:\n        /* \"#utility.yul\":17221:17223   */\n      0x20\n        /* \"#utility.yul\":17216:17219   */\n      dup3\n        /* \"#utility.yul\":17212:17224   */\n      add\n        /* \"#utility.yul\":17205:17224   */\n      swap1\n      pop\n        /* \"#utility.yul\":16864:17230   */\n      swap2\n      swap1\n      pop\n      jump\t// out\n        /* \"#utility.yul\":17236:17655   */\n    tag_164:\n        /* \"#utility.yul\":17402:17406   */\n      0x00\n        /* \"#utility.yul\":17440:17442   */\n      0x20\n        /* \"#utility.yul\":17429:17438   */\n      dup3\n        /* \"#utility.yul\":17425:17443   */\n      add\n        /* \"#utility.yul\":17417:17443   */\n      swap1\n      pop\n        /* \"#utility.yul\":17489:17498   */\n      dup2\n        /* \"#utility.yul\":17483:17487   */\n      dup2\n        /* \"#utility.yul\":17479:17499   */\n      sub\n        /* \"#utility.yul\":17475:17476   */\n      0x00\n        /* \"#utility.yul\":17464:17473   */\n      dup4\n        /* \"#utility.yul\":17460:17477   */\n      add\n        /* \"#utility.yul\":17453:17500   */\n      mstore\n        /* \"#utility.yul\":17517:17648   */\n      tag_350\n        /* \"#utility.yul\":17643:17647   */\n      dup2\n        /* \"#utility.yul\":17517:17648   */\n      tag_227\n      jump\t// in\n    tag_350:\n        /* \"#utility.yul\":17509:17648   */\n      swap1\n      pop\n        /* \"#utility.yul\":17236:17655   */\n      swap2\n      swap1\n      pop\n      jump\t// out\n        /* \"#utility.yul\":17661:17833   */\n    tag_228:\n        /* \"#utility.yul\":17801:17825   */\n      0x436f6e7472616374206973206e6f742061637469766500000000000000000000\n        /* \"#utility.yul\":17797:17798   */\n      0x00\n        /* \"#utility.yul\":17789:17795   */\n      dup3\n        /* \"#utility.yul\":17785:17799   */\n      add\n        /* \"#utility.yul\":17778:17826   */\n      mstore\n        /* \"#utility.yul\":17661:17833   */\n      pop\n      jump\t// out\n        /* \"#utility.yul\":17839:18205   */\n    tag_229:\n        /* \"#utility.yul\":17981:17984   */\n      0x00\n        /* \"#utility.yul\":18002:18069   */\n      tag_353\n        /* \"#utility.yul\":18066:18068   */\n      0x16\n        /* \"#utility.yul\":18061:18064   */\n      dup4\n        /* \"#utility.yul\":18002:18069   */\n      tag_197\n      jump\t// in\n    tag_353:\n        /* \"#utility.yul\":17995:18069   */\n      swap2\n      pop\n        /* \"#utility.yul\":18078:18171   */\n      tag_354\n        /* \"#utility.yul\":18167:18170   */\n      dup3\n        /* \"#utility.yul\":18078:18171   */\n      tag_228\n      jump\t// in\n    tag_354:\n        /* \"#utility.yul\":18196:18198   */\n      0x20\n        /* \"#utility.yul\":18191:18194   */\n      dup3\n        /* \"#utility.yul\":18187:18199   */\n      add\n        /* \"#utility.yul\":18180:18199   */\n      swap1\n      pop\n        /* \"#utility.yul\":17839:18205   */\n      swap2\n      swap1\n      pop\n      jump\t// out\n        /* \"#utility.yul\":18211:18630   */\n    tag_177:\n        /* \"#utility.yul\":18377:18381   */\n      0x00\n        /* \"#utility.yul\":18415:18417   */\n      0x20\n        /* \"#utility.yul\":18404:18413   */\n      dup3\n        /* \"#utility.yul\":18400:18418   */\n      add\n        /* \"#utility.yul\":18392:18418   */\n      swap1\n      pop\n        /* \"#utility.yul\":18464:18473   */\n      dup2\n        /* \"#utility.yul\":18458:18462   */\n      dup2\n        /* \"#utility.yul\":18454:18474   */\n      sub\n        /* \"#utility.yul\":18450:18451   */\n      0x00\n        /* \"#utility.yul\":18439:18448   */\n      dup4\n        /* \"#utility.yul\":18435:18452   */\n      add\n        /* \"#utility.yul\":18428:18475   */\n      mstore\n        /* \"#utility.yul\":18492:18623   */\n      tag_356\n        /* \"#utility.yul\":18618:18622   */\n      dup2\n        /* \"#utility.yul\":18492:18623   */\n      tag_229\n      jump\t// in\n    tag_356:\n        /* \"#utility.yul\":18484:18623   */\n      swap1\n      pop\n        /* \"#utility.yul\":18211:18630   */\n      swap2\n      swap1\n      pop\n      jump\t// out\n\n    auxdata: 0xa264697066735822122028545da33683f155fc029bf6f33a15caea09842636c9b638fd8ede00c2d51e8d64736f6c63430008190033\n}\n",
				"bytecode": {
					"linkReferences": {},
					"object": "60806040525f600460026101000a81548160ff021916908360028111156026576025606f565b5b02179055503360025f6101000a81548173ffffffffffffffffffffffffffffffffffffffff021916908373ffffffffffffffffffffffffffffffffffffffff160217905550609c565b7f4e487b71000000000000000000000000000000000000000000000000000000005f52602160045260245ffd5b611726806100a95f395ff3fe6080604052600436106100f2575f3560e01c80635e10177b11610089578063c6f221aa11610058578063c6f221aa1461027a578063d0e30db0146102a4578063e1f6c098146102ae578063f6cb6ea8146102d8576100f2565b80635e10177b146101f25780637150d8ae146101fc578063995e770b14610226578063a001ecdd14610250576100f2565b806347a7846f116100c557806347a7846f1461018a57806348a1335a146101b4578063522e1177146101de5780635b39a33f146101e8576100f2565b806308551a53146100f65780630c3f6acf14610120578063166573e51461014a57806324e6d8b414610174575b5f80fd5b348015610101575f80fd5b5061010a610302565b6040516101179190610e73565b60405180910390f35b34801561012b575f80fd5b50610134610327565b6040516101419190610eff565b60405180910390f35b348015610155575f80fd5b5061015e61033a565b60405161016b9190610f30565b60405180910390f35b34801561017f575f80fd5b50610188610340565b005b348015610195575f80fd5b5061019e610466565b6040516101ab9190610f30565b60405180910390f35b3480156101bf575f80fd5b506101c861046c565b6040516101d59190610f63565b60405180910390f35b6101e661047e565b005b6101f0610766565b005b6101fa610948565b005b348015610207575f80fd5b50610210610ab5565b60405161021d9190610e73565b60405180910390f35b348015610231575f80fd5b5061023a610ad8565b6040516102479190610f30565b60405180910390f35b34801561025b575f80fd5b50610264610ade565b6040516102719190610f30565b60405180910390f35b348015610285575f80fd5b5061028e610ae4565b60405161029b9190610f30565b60405180910390f35b6102ac610aea565b005b3480156102b9575f80fd5b506102c2610c30565b6040516102cf9190610e73565b60405180910390f35b3480156102e3575f80fd5b506102ec610c55565b6040516102f99190610f63565b60405180910390f35b60015f9054906101000a900473ffffffffffffffffffffffffffffffffffffffff1681565b600460029054906101000a900460ff1681565b60055481565b5f8054906101000a900473ffffffffffffffffffffffffffffffffffffffff1673ffffffffffffffffffffffffffffffffffffffff163373ffffffffffffffffffffffffffffffffffffffff16146103cd576040517f08c379a00000000000000000000000000000000000000000000000000000000081526004016103c490610fd6565b60405180910390fd5b5f60028111156103e0576103df610e8c565b5b600460029054906101000a900460ff16600281111561040257610401610e8c565b5b14610442576040517f08c379a000000000000000000000000000000000000000000000000000000000815260040161043990611064565b60405180910390fd5b600160045f6101000a81548160ff021916908315150217905550610464610c68565b565b60035481565b60045f9054906101000a900460ff1681565b60015f9054906101000a900473ffffffffffffffffffffffffffffffffffffffff1673ffffffffffffffffffffffffffffffffffffffff163373ffffffffffffffffffffffffffffffffffffffff161461050d576040517f08c379a0000000000000000000000000000000000000000000000000000000008152600401610504906110cc565b60405180910390fd5b5f60028111156105205761051f610e8c565b5b600460029054906101000a900460ff16600281111561054257610541610e8c565b5b14610582576040517f08c379a000000000000000000000000000000000000000000000000000000000815260040161057990611134565b60405180910390fd5b60085434146105c6576040517f08c379a00000000000000000000000000000000000000000000000000000000081526004016105bd9061119c565b60405180910390fd5b600460019054906101000a900460ff16610615576040517f08c379a000000000000000000000000000000000000000000000000000000000815260040161060c9061122a565b60405180910390fd5b5f60055414610659576040517f08c379a000000000000000000000000000000000000000000000000000000000815260040161065090611292565b60405180910390fd5b60016005819055506001600460026101000a81548160ff0219169083600281111561068757610686610e8c565b5b021790555060015f9054906101000a900473ffffffffffffffffffffffffffffffffffffffff1673ffffffffffffffffffffffffffffffffffffffff166108fc60085490811502906040515f60405180830381858888f193505050501580156106f2573d5f803e3d5ffd5b5060015f9054906101000a900473ffffffffffffffffffffffffffffffffffffffff1673ffffffffffffffffffffffffffffffffffffffff167f221c08a06b07a64803b3787861a3f276212fcccb51c2e6234077a9b8cb13047a60085460405161075c9190610f30565b60405180910390a2565b5f8054906101000a900473ffffffffffffffffffffffffffffffffffffffff1673ffffffffffffffffffffffffffffffffffffffff163373ffffffffffffffffffffffffffffffffffffffff16146107f3576040517f08c379a00000000000000000000000000000000000000000000000000000000081526004016107ea906112fa565b60405180910390fd5b5f600281111561080657610805610e8c565b5b600460029054906101000a900460ff16600281111561082857610827610e8c565b5b14610868576040517f08c379a000000000000000000000000000000000000000000000000000000000815260040161085f90611134565b60405180910390fd5b60085434146108ac576040517f08c379a00000000000000000000000000000000000000000000000000000000081526004016108a39061119c565b60405180910390fd5b60045f9054906101000a900460ff166108fa576040517f08c379a00000000000000000000000000000000000000000000000000000000081526004016108f190611388565b60405180910390fd5b5f6005541461093e576040517f08c379a000000000000000000000000000000000000000000000000000000000815260040161093590611292565b60405180910390fd5b6001600581905550565b60015f9054906101000a900473ffffffffffffffffffffffffffffffffffffffff1673ffffffffffffffffffffffffffffffffffffffff163373ffffffffffffffffffffffffffffffffffffffff16146109d7576040517f08c379a00000000000000000000000000000000000000000000000000000000081526004016109ce90611416565b60405180910390fd5b5f60028111156109ea576109e9610e8c565b5b600460029054906101000a900460ff166002811115610a0c57610a0b610e8c565b5b14610a4c576040517f08c379a0000000000000000000000000000000000000000000000000000000008152600401610a439061147e565b60405180910390fd5b6003543414610a90576040517f08c379a0000000000000000000000000000000000000000000000000000000008152600401610a879061150c565b60405180910390fd5b6001600460016101000a81548160ff021916908315150217905550610ab3610c68565b565b5f8054906101000a900473ffffffffffffffffffffffffffffffffffffffff1681565b60085481565b60065481565b60075481565b5f8054906101000a900473ffffffffffffffffffffffffffffffffffffffff1673ffffffffffffffffffffffffffffffffffffffff163373ffffffffffffffffffffffffffffffffffffffff1614610b77576040517f08c379a0000000000000000000000000000000000000000000000000000000008152600401610b6e90611574565b60405180910390fd5b5f6002811115610b8a57610b89610e8c565b5b600460029054906101000a900460ff166002811115610bac57610bab610e8c565b5b14610bec576040517f08c379a0000000000000000000000000000000000000000000000000000000008152600401610be390611602565b60405180910390fd5b5f3411610c2e576040517f08c379a0000000000000000000000000000000000000000000000000000000008152600401610c259061166a565b60405180910390fd5b565b60025f9054906101000a900473ffffffffffffffffffffffffffffffffffffffff1681565b600460019054906101000a900460ff1681565b60045f9054906101000a900460ff168015610c8f5750600460019054906101000a900460ff165b15610c9d57610c9c610c9f565b5b565b5f6002811115610cb257610cb1610e8c565b5b600460029054906101000a900460ff166002811115610cd457610cd3610e8c565b5b14610d14576040517f08c379a0000000000000000000000000000000000000000000000000000000008152600401610d0b906116d2565b60405180910390fd5b60016002811115610d2857610d27610e8c565b5b600460029054906101000a900460ff166002811115610d4a57610d49610e8c565b5b14610d53575f80fd5b60015f9054906101000a900473ffffffffffffffffffffffffffffffffffffffff1673ffffffffffffffffffffffffffffffffffffffff166108fc60035490811502906040515f60405180830381858888f19350505050158015610db9573d5f803e3d5ffd5b505f60038190555060015f9054906101000a900473ffffffffffffffffffffffffffffffffffffffff1673ffffffffffffffffffffffffffffffffffffffff167f221c08a06b07a64803b3787861a3f276212fcccb51c2e6234077a9b8cb13047a600354604051610e2a9190610f30565b60405180910390a2565b5f73ffffffffffffffffffffffffffffffffffffffff82169050919050565b5f610e5d82610e34565b9050919050565b610e6d81610e53565b82525050565b5f602082019050610e865f830184610e64565b92915050565b7f4e487b71000000000000000000000000000000000000000000000000000000005f52602160045260245ffd5b60038110610eca57610ec9610e8c565b5b50565b5f819050610eda82610eb9565b919050565b5f610ee982610ecd565b9050919050565b610ef981610edf565b82525050565b5f602082019050610f125f830184610ef0565b92915050565b5f819050919050565b610f2a81610f18565b82525050565b5f602082019050610f435f830184610f21565b92915050565b5f8115159050919050565b610f5d81610f49565b82525050565b5f602082019050610f765f830184610f54565b92915050565b5f82825260208201905092915050565b7f4f6e6c792062757965722063616e20636f6e6669726d2064656c697665726c795f82015250565b5f610fc0602083610f7c565b9150610fcb82610f8c565b602082019050919050565b5f6020820190508181035f830152610fed81610fb4565b9050919050565b7f436f6e7472616374206d75737420626520696e206163746976652073746174655f8201527f20746f20636f6e6669726d2064656c697665726c790000000000000000000000602082015250565b5f61104e603583610f7c565b915061105982610ff4565b604082019050919050565b5f6020820190508181035f83015261107b81611042565b9050919050565b7f4f6e6c792073656c6c65722063616e20636f6d706c65746500000000000000005f82015250565b5f6110b6601883610f7c565b91506110c182611082565b602082019050919050565b5f6020820190508181035f8301526110e3816110aa565b9050919050565b7f436f6e7472616374206d757374206265206163746976650000000000000000005f82015250565b5f61111e601783610f7c565b9150611129826110ea565b602082019050919050565b5f6020820190508181035f83015261114b81611112565b9050919050565b7f416d6f756e74207061696420696e20657363726f77206d757374206d617463685f82015250565b5f611186602083610f7c565b915061119182611152565b602082019050919050565b5f6020820190508181035f8301526111b38161117a565b9050919050565b7f53656c6c6572206d757374206861766520636f6e6669726d65642064656c69765f8201527f6572790000000000000000000000000000000000000000000000000000000000602082015250565b5f611214602383610f7c565b915061121f826111ba565b604082019050919050565b5f6020820190508181035f83015261124181611208565b9050919050565b7f446973707574652068617665206265656e2072616973656400000000000000005f82015250565b5f61127c601883610f7c565b915061128782611248565b602082019050919050565b5f6020820190508181035f8301526112a981611270565b9050919050565b7f204f6e6c792062757965722063616e20646973707574650000000000000000005f82015250565b5f6112e4601783610f7c565b91506112ef826112b0565b602082019050919050565b5f6020820190508181035f830152611311816112d8565b9050919050565b7f4275796572206d757374206861766520636f6e6669726d65642064656c6976655f8201527f7279000000000000000000000000000000000000000000000000000000000000602082015250565b5f611372602283610f7c565b915061137d82611318565b604082019050919050565b5f6020820190508181035f83015261139f81611366565b9050919050565b7f4f6e6c792073656c6c65722063616e20636f6e6469726d2064656c697665726c5f8201527f7900000000000000000000000000000000000000000000000000000000000000602082015250565b5f611400602183610f7c565b915061140b826113a6565b604082019050919050565b5f6020820190508181035f83015261142d816113f4565b9050919050565b7f436f6e74726163742068617320746f20626520616374697665000000000000005f82015250565b5f611468601983610f7c565b915061147382611434565b602082019050919050565b5f6020820190508181035f8301526114958161145c565b9050919050565b7f436f6e747261637420616d6f756e742068617320746f207061696420696e20665f8201527f756c6c0000000000000000000000000000000000000000000000000000000000602082015250565b5f6114f6602383610f7c565b91506115018261149c565b604082019050919050565b5f6020820190508181035f830152611523816114ea565b9050919050565b7f4f6e6c792062757965722063616e206465706f7369742066756e6473000000005f82015250565b5f61155e601c83610f7c565b91506115698261152a565b602082019050919050565b5f6020820190508181035f83015261158b81611552565b9050919050565b7f436f6e7472616374206d75737420626520696e206163746976652073746174655f8201527f20746f206465706f7369742066756e6473000000000000000000000000000000602082015250565b5f6115ec603183610f7c565b91506115f782611592565b604082019050919050565b5f6020820190508181035f830152611619816115e0565b9050919050565b7f416d6f756e74206d7573742062652067726561746572207468616e207a65726f5f82015250565b5f611654602083610f7c565b915061165f82611620565b602082019050919050565b5f6020820190508181035f83015261168181611648565b9050919050565b7f436f6e7472616374206973206e6f7420616374697665000000000000000000005f82015250565b5f6116bc601683610f7c565b91506116c782611688565b602082019050919050565b5f6020820190508181035f8301526116e9816116b0565b905091905056fea264697066735822122028545da33683f155fc029bf6f33a15caea09842636c9b638fd8ede00c2d51e8d64736f6c63430008190033",
					"opcodes": "PUSH1 0x80 PUSH1 0x40 MSTORE PUSH0 PUSH1 0x4 PUSH1 0x2 PUSH2 0x100 EXP DUP2 SLOAD DUP2 PUSH1 0xFF MUL NOT AND SWAP1 DUP4 PUSH1 0x2 DUP2 GT ISZERO PUSH1 0x26 JUMPI PUSH1 0x25 PUSH1 0x6F JUMP JUMPDEST JUMPDEST MUL OR SWAP1 SSTORE POP CALLER PUSH1 0x2 PUSH0 PUSH2 0x100 EXP DUP2 SLOAD DUP2 PUSH20 0xFFFFFFFFFFFFFFFFFFFFFFFFFFFFFFFFFFFFFFFF MUL NOT AND SWAP1 DUP4 PUSH20 0xFFFFFFFFFFFFFFFFFFFFFFFFFFFFFFFFFFFFFFFF AND MUL OR SWAP1 SSTORE POP PUSH1 0x9C JUMP JUMPDEST PUSH32 0x4E487B7100000000000000000000000000000000000000000000000000000000 PUSH0 MSTORE PUSH1 0x21 PUSH1 0x4 MSTORE PUSH1 0x24 PUSH0 REVERT JUMPDEST PUSH2 0x1726 DUP1 PUSH2 0xA9 PUSH0 CODECOPY PUSH0 RETURN INVALID PUSH1 0x80 PUSH1 0x40 MSTORE PUSH1 0x4 CALLDATASIZE LT PUSH2 0xF2 JUMPI PUSH0 CALLDATALOAD PUSH1 0xE0 SHR DUP1 PUSH4 0x5E10177B GT PUSH2 0x89 JUMPI DUP1 PUSH4 0xC6F221AA GT PUSH2 0x58 JUMPI DUP1 PUSH4 0xC6F221AA EQ PUSH2 0x27A JUMPI DUP1 PUSH4 0xD0E30DB0 EQ PUSH2 0x2A4 JUMPI DUP1 PUSH4 0xE1F6C098 EQ PUSH2 0x2AE JUMPI DUP1 PUSH4 0xF6CB6EA8 EQ PUSH2 0x2D8 JUMPI PUSH2 0xF2 JUMP JUMPDEST DUP1 PUSH4 0x5E10177B EQ PUSH2 0x1F2 JUMPI DUP1 PUSH4 0x7150D8AE EQ PUSH2 0x1FC JUMPI DUP1 PUSH4 0x995E770B EQ PUSH2 0x226 JUMPI DUP1 PUSH4 0xA001ECDD EQ PUSH2 0x250 JUMPI PUSH2 0xF2 JUMP JUMPDEST DUP1 PUSH4 0x47A7846F GT PUSH2 0xC5 JUMPI DUP1 PUSH4 0x47A7846F EQ PUSH2 0x18A JUMPI DUP1 PUSH4 0x48A1335A EQ PUSH2 0x1B4 JUMPI DUP1 PUSH4 0x522E1177 EQ PUSH2 0x1DE JUMPI DUP1 PUSH4 0x5B39A33F EQ PUSH2 0x1E8 JUMPI PUSH2 0xF2 JUMP JUMPDEST DUP1 PUSH4 0x8551A53 EQ PUSH2 0xF6 JUMPI DUP1 PUSH4 0xC3F6ACF EQ PUSH2 0x120 JUMPI DUP1 PUSH4 0x166573E5 EQ PUSH2 0x14A JUMPI DUP1 PUSH4 0x24E6D8B4 EQ PUSH2 0x174 JUMPI JUMPDEST PUSH0 DUP1 REVERT JUMPDEST CALLVALUE DUP1 ISZERO PUSH2 0x101 JUMPI PUSH0 DUP1 REVERT JUMPDEST POP PUSH2 0x10A PUSH2 0x302 JUMP JUMPDEST PUSH1 0x40 MLOAD PUSH2 0x117 SWAP2 SWAP1 PUSH2 0xE73 JUMP JUMPDEST PUSH1 0x40 MLOAD DUP1 SWAP2 SUB SWAP1 RETURN JUMPDEST CALLVALUE DUP1 ISZERO PUSH2 0x12B JUMPI PUSH0 DUP1 REVERT JUMPDEST POP PUSH2 0x134 PUSH2 0x327 JUMP JUMPDEST PUSH1 0x40 MLOAD PUSH2 0x141 SWAP2 SWAP1 PUSH2 0xEFF JUMP JUMPDEST PUSH1 0x40 MLOAD DUP1 SWAP2 SUB SWAP1 RETURN JUMPDEST CALLVALUE DUP1 ISZERO PUSH2 0x155 JUMPI PUSH0 DUP1 REVERT JUMPDEST POP PUSH2 0x15E PUSH2 0x33A JUMP JUMPDEST PUSH1 0x40 MLOAD PUSH2 0x16B SWAP2 SWAP1 PUSH2 0xF30 JUMP JUMPDEST PUSH1 0x40 MLOAD DUP1 SWAP2 SUB SWAP1 RETURN JUMPDEST CALLVALUE DUP1 ISZERO PUSH2 0x17F JUMPI PUSH0 DUP1 REVERT JUMPDEST POP PUSH2 0x188 PUSH2 0x340 JUMP JUMPDEST STOP JUMPDEST CALLVALUE DUP1 ISZERO PUSH2 0x195 JUMPI PUSH0 DUP1 REVERT JUMPDEST POP PUSH2 0x19E PUSH2 0x466 JUMP JUMPDEST PUSH1 0x40 MLOAD PUSH2 0x1AB SWAP2 SWAP1 PUSH2 0xF30 JUMP JUMPDEST PUSH1 0x40 MLOAD DUP1 SWAP2 SUB SWAP1 RETURN JUMPDEST CALLVALUE DUP1 ISZERO PUSH2 0x1BF JUMPI PUSH0 DUP1 REVERT JUMPDEST POP PUSH2 0x1C8 PUSH2 0x46C JUMP JUMPDEST PUSH1 0x40 MLOAD PUSH2 0x1D5 SWAP2 SWAP1 PUSH2 0xF63 JUMP JUMPDEST PUSH1 0x40 MLOAD DUP1 SWAP2 SUB SWAP1 RETURN JUMPDEST PUSH2 0x1E6 PUSH2 0x47E JUMP JUMPDEST STOP JUMPDEST PUSH2 0x1F0 PUSH2 0x766 JUMP JUMPDEST STOP JUMPDEST PUSH2 0x1FA PUSH2 0x948 JUMP JUMPDEST STOP JUMPDEST CALLVALUE DUP1 ISZERO PUSH2 0x207 JUMPI PUSH0 DUP1 REVERT JUMPDEST POP PUSH2 0x210 PUSH2 0xAB5 JUMP JUMPDEST PUSH1 0x40 MLOAD PUSH2 0x21D SWAP2 SWAP1 PUSH2 0xE73 JUMP JUMPDEST PUSH1 0x40 MLOAD DUP1 SWAP2 SUB SWAP1 RETURN JUMPDEST CALLVALUE DUP1 ISZERO PUSH2 0x231 JUMPI PUSH0 DUP1 REVERT JUMPDEST POP PUSH2 0x23A PUSH2 0xAD8 JUMP JUMPDEST PUSH1 0x40 MLOAD PUSH2 0x247 SWAP2 SWAP1 PUSH2 0xF30 JUMP JUMPDEST PUSH1 0x40 MLOAD DUP1 SWAP2 SUB SWAP1 RETURN JUMPDEST CALLVALUE DUP1 ISZERO PUSH2 0x25B JUMPI PUSH0 DUP1 REVERT JUMPDEST POP PUSH2 0x264 PUSH2 0xADE JUMP JUMPDEST PUSH1 0x40 MLOAD PUSH2 0x271 SWAP2 SWAP1 PUSH2 0xF30 JUMP JUMPDEST PUSH1 0x40 MLOAD DUP1 SWAP2 SUB SWAP1 RETURN JUMPDEST CALLVALUE DUP1 ISZERO PUSH2 0x285 JUMPI PUSH0 DUP1 REVERT JUMPDEST POP PUSH2 0x28E PUSH2 0xAE4 JUMP JUMPDEST PUSH1 0x40 MLOAD PUSH2 0x29B SWAP2 SWAP1 PUSH2 0xF30 JUMP JUMPDEST PUSH1 0x40 MLOAD DUP1 SWAP2 SUB SWAP1 RETURN JUMPDEST PUSH2 0x2AC PUSH2 0xAEA JUMP JUMPDEST STOP JUMPDEST CALLVALUE DUP1 ISZERO PUSH2 0x2B9 JUMPI PUSH0 DUP1 REVERT JUMPDEST POP PUSH2 0x2C2 PUSH2 0xC30 JUMP JUMPDEST PUSH1 0x40 MLOAD PUSH2 0x2CF SWAP2 SWAP1 PUSH2 0xE73 JUMP JUMPDEST PUSH1 0x40 MLOAD DUP1 SWAP2 SUB SWAP1 RETURN JUMPDEST CALLVALUE DUP1 ISZERO PUSH2 0x2E3 JUMPI PUSH0 DUP1 REVERT JUMPDEST POP PUSH2 0x2EC PUSH2 0xC55 JUMP JUMPDEST PUSH1 0x40 MLOAD PUSH2 0x2F9 SWAP2 SWAP1 PUSH2 0xF63 JUMP JUMPDEST PUSH1 0x40 MLOAD DUP1 SWAP2 SUB SWAP1 RETURN JUMPDEST PUSH1 0x1 PUSH0 SWAP1 SLOAD SWAP1 PUSH2 0x100 EXP SWAP1 DIV PUSH20 0xFFFFFFFFFFFFFFFFFFFFFFFFFFFFFFFFFFFFFFFF AND DUP2 JUMP JUMPDEST PUSH1 0x4 PUSH1 0x2 SWAP1 SLOAD SWAP1 PUSH2 0x100 EXP SWAP1 DIV PUSH1 0xFF AND DUP2 JUMP JUMPDEST PUSH1 0x5 SLOAD DUP2 JUMP JUMPDEST PUSH0 DUP1 SLOAD SWAP1 PUSH2 0x100 EXP SWAP1 DIV PUSH20 0xFFFFFFFFFFFFFFFFFFFFFFFFFFFFFFFFFFFFFFFF AND PUSH20 0xFFFFFFFFFFFFFFFFFFFFFFFFFFFFFFFFFFFFFFFF AND CALLER PUSH20 0xFFFFFFFFFFFFFFFFFFFFFFFFFFFFFFFFFFFFFFFF AND EQ PUSH2 0x3CD JUMPI PUSH1 0x40 MLOAD PUSH32 0x8C379A000000000000000000000000000000000000000000000000000000000 DUP2 MSTORE PUSH1 0x4 ADD PUSH2 0x3C4 SWAP1 PUSH2 0xFD6 JUMP JUMPDEST PUSH1 0x40 MLOAD DUP1 SWAP2 SUB SWAP1 REVERT JUMPDEST PUSH0 PUSH1 0x2 DUP2 GT ISZERO PUSH2 0x3E0 JUMPI PUSH2 0x3DF PUSH2 0xE8C JUMP JUMPDEST JUMPDEST PUSH1 0x4 PUSH1 0x2 SWAP1 SLOAD SWAP1 PUSH2 0x100 EXP SWAP1 DIV PUSH1 0xFF AND PUSH1 0x2 DUP2 GT ISZERO PUSH2 0x402 JUMPI PUSH2 0x401 PUSH2 0xE8C JUMP JUMPDEST JUMPDEST EQ PUSH2 0x442 JUMPI PUSH1 0x40 MLOAD PUSH32 0x8C379A000000000000000000000000000000000000000000000000000000000 DUP2 MSTORE PUSH1 0x4 ADD PUSH2 0x439 SWAP1 PUSH2 0x1064 JUMP JUMPDEST PUSH1 0x40 MLOAD DUP1 SWAP2 SUB SWAP1 REVERT JUMPDEST PUSH1 0x1 PUSH1 0x4 PUSH0 PUSH2 0x100 EXP DUP2 SLOAD DUP2 PUSH1 0xFF MUL NOT AND SWAP1 DUP4 ISZERO ISZERO MUL OR SWAP1 SSTORE POP PUSH2 0x464 PUSH2 0xC68 JUMP JUMPDEST JUMP JUMPDEST PUSH1 0x3 SLOAD DUP2 JUMP JUMPDEST PUSH1 0x4 PUSH0 SWAP1 SLOAD SWAP1 PUSH2 0x100 EXP SWAP1 DIV PUSH1 0xFF AND DUP2 JUMP JUMPDEST PUSH1 0x1 PUSH0 SWAP1 SLOAD SWAP1 PUSH2 0x100 EXP SWAP1 DIV PUSH20 0xFFFFFFFFFFFFFFFFFFFFFFFFFFFFFFFFFFFFFFFF AND PUSH20 0xFFFFFFFFFFFFFFFFFFFFFFFFFFFFFFFFFFFFFFFF AND CALLER PUSH20 0xFFFFFFFFFFFFFFFFFFFFFFFFFFFFFFFFFFFFFFFF AND EQ PUSH2 0x50D JUMPI PUSH1 0x40 MLOAD PUSH32 0x8C379A000000000000000000000000000000000000000000000000000000000 DUP2 MSTORE PUSH1 0x4 ADD PUSH2 0x504 SWAP1 PUSH2 0x10CC JUMP JUMPDEST PUSH1 0x40 MLOAD DUP1 SWAP2 SUB SWAP1 REVERT JUMPDEST PUSH0 PUSH1 0x2 DUP2 GT ISZERO PUSH2 0x520 JUMPI PUSH2 0x51F PUSH2 0xE8C JUMP JUMPDEST JUMPDEST PUSH1 0x4 PUSH1 0x2 SWAP1 SLOAD SWAP1 PUSH2 0x100 EXP SWAP1 DIV PUSH1 0xFF AND PUSH1 0x2 DUP2 GT ISZERO PUSH2 0x542 JUMPI PUSH2 0x541 PUSH2 0xE8C JUMP JUMPDEST JUMPDEST EQ PUSH2 0x582 JUMPI PUSH1 0x40 MLOAD PUSH32 0x8C379A000000000000000000000000000000000000000000000000000000000 DUP2 MSTORE PUSH1 0x4 ADD PUSH2 0x579 SWAP1 PUSH2 0x1134 JUMP JUMPDEST PUSH1 0x40 MLOAD DUP1 SWAP2 SUB SWAP1 REVERT JUMPDEST PUSH1 0x8 SLOAD CALLVALUE EQ PUSH2 0x5C6 JUMPI PUSH1 0x40 MLOAD PUSH32 0x8C379A000000000000000000000000000000000000000000000000000000000 DUP2 MSTORE PUSH1 0x4 ADD PUSH2 0x5BD SWAP1 PUSH2 0x119C JUMP JUMPDEST PUSH1 0x40 MLOAD DUP1 SWAP2 SUB SWAP1 REVERT JUMPDEST PUSH1 0x4 PUSH1 0x1 SWAP1 SLOAD SWAP1 PUSH2 0x100 EXP SWAP1 DIV PUSH1 0xFF AND PUSH2 0x615 JUMPI PUSH1 0x40 MLOAD PUSH32 0x8C379A000000000000000000000000000000000000000000000000000000000 DUP2 MSTORE PUSH1 0x4 ADD PUSH2 0x60C SWAP1 PUSH2 0x122A JUMP JUMPDEST PUSH1 0x40 MLOAD DUP1 SWAP2 SUB SWAP1 REVERT JUMPDEST PUSH0 PUSH1 0x5 SLOAD EQ PUSH2 0x659 JUMPI PUSH1 0x40 MLOAD PUSH32 0x8C379A000000000000000000000000000000000000000000000000000000000 DUP2 MSTORE PUSH1 0x4 ADD PUSH2 0x650 SWAP1 PUSH2 0x1292 JUMP JUMPDEST PUSH1 0x40 MLOAD DUP1 SWAP2 SUB SWAP1 REVERT JUMPDEST PUSH1 0x1 PUSH1 0x5 DUP2 SWAP1 SSTORE POP PUSH1 0x1 PUSH1 0x4 PUSH1 0x2 PUSH2 0x100 EXP DUP2 SLOAD DUP2 PUSH1 0xFF MUL NOT AND SWAP1 DUP4 PUSH1 0x2 DUP2 GT ISZERO PUSH2 0x687 JUMPI PUSH2 0x686 PUSH2 0xE8C JUMP JUMPDEST JUMPDEST MUL OR SWAP1 SSTORE POP PUSH1 0x1 PUSH0 SWAP1 SLOAD SWAP1 PUSH2 0x100 EXP SWAP1 DIV PUSH20 0xFFFFFFFFFFFFFFFFFFFFFFFFFFFFFFFFFFFFFFFF AND PUSH20 0xFFFFFFFFFFFFFFFFFFFFFFFFFFFFFFFFFFFFFFFF AND PUSH2 0x8FC PUSH1 0x8 SLOAD SWAP1 DUP2 ISZERO MUL SWAP1 PUSH1 0x40 MLOAD PUSH0 PUSH1 0x40 MLOAD DUP1 DUP4 SUB DUP2 DUP6 DUP9 DUP9 CALL SWAP4 POP POP POP POP ISZERO DUP1 ISZERO PUSH2 0x6F2 JUMPI RETURNDATASIZE PUSH0 DUP1 RETURNDATACOPY RETURNDATASIZE PUSH0 REVERT JUMPDEST POP PUSH1 0x1 PUSH0 SWAP1 SLOAD SWAP1 PUSH2 0x100 EXP SWAP1 DIV PUSH20 0xFFFFFFFFFFFFFFFFFFFFFFFFFFFFFFFFFFFFFFFF AND PUSH20 0xFFFFFFFFFFFFFFFFFFFFFFFFFFFFFFFFFFFFFFFF AND PUSH32 0x221C08A06B07A64803B3787861A3F276212FCCCB51C2E6234077A9B8CB13047A PUSH1 0x8 SLOAD PUSH1 0x40 MLOAD PUSH2 0x75C SWAP2 SWAP1 PUSH2 0xF30 JUMP JUMPDEST PUSH1 0x40 MLOAD DUP1 SWAP2 SUB SWAP1 LOG2 JUMP JUMPDEST PUSH0 DUP1 SLOAD SWAP1 PUSH2 0x100 EXP SWAP1 DIV PUSH20 0xFFFFFFFFFFFFFFFFFFFFFFFFFFFFFFFFFFFFFFFF AND PUSH20 0xFFFFFFFFFFFFFFFFFFFFFFFFFFFFFFFFFFFFFFFF AND CALLER PUSH20 0xFFFFFFFFFFFFFFFFFFFFFFFFFFFFFFFFFFFFFFFF AND EQ PUSH2 0x7F3 JUMPI PUSH1 0x40 MLOAD PUSH32 0x8C379A000000000000000000000000000000000000000000000000000000000 DUP2 MSTORE PUSH1 0x4 ADD PUSH2 0x7EA SWAP1 PUSH2 0x12FA JUMP JUMPDEST PUSH1 0x40 MLOAD DUP1 SWAP2 SUB SWAP1 REVERT JUMPDEST PUSH0 PUSH1 0x2 DUP2 GT ISZERO PUSH2 0x806 JUMPI PUSH2 0x805 PUSH2 0xE8C JUMP JUMPDEST JUMPDEST PUSH1 0x4 PUSH1 0x2 SWAP1 SLOAD SWAP1 PUSH2 0x100 EXP SWAP1 DIV PUSH1 0xFF AND PUSH1 0x2 DUP2 GT ISZERO PUSH2 0x828 JUMPI PUSH2 0x827 PUSH2 0xE8C JUMP JUMPDEST JUMPDEST EQ PUSH2 0x868 JUMPI PUSH1 0x40 MLOAD PUSH32 0x8C379A000000000000000000000000000000000000000000000000000000000 DUP2 MSTORE PUSH1 0x4 ADD PUSH2 0x85F SWAP1 PUSH2 0x1134 JUMP JUMPDEST PUSH1 0x40 MLOAD DUP1 SWAP2 SUB SWAP1 REVERT JUMPDEST PUSH1 0x8 SLOAD CALLVALUE EQ PUSH2 0x8AC JUMPI PUSH1 0x40 MLOAD PUSH32 0x8C379A000000000000000000000000000000000000000000000000000000000 DUP2 MSTORE PUSH1 0x4 ADD PUSH2 0x8A3 SWAP1 PUSH2 0x119C JUMP JUMPDEST PUSH1 0x40 MLOAD DUP1 SWAP2 SUB SWAP1 REVERT JUMPDEST PUSH1 0x4 PUSH0 SWAP1 SLOAD SWAP1 PUSH2 0x100 EXP SWAP1 DIV PUSH1 0xFF AND PUSH2 0x8FA JUMPI PUSH1 0x40 MLOAD PUSH32 0x8C379A000000000000000000000000000000000000000000000000000000000 DUP2 MSTORE PUSH1 0x4 ADD PUSH2 0x8F1 SWAP1 PUSH2 0x1388 JUMP JUMPDEST PUSH1 0x40 MLOAD DUP1 SWAP2 SUB SWAP1 REVERT JUMPDEST PUSH0 PUSH1 0x5 SLOAD EQ PUSH2 0x93E JUMPI PUSH1 0x40 MLOAD PUSH32 0x8C379A000000000000000000000000000000000000000000000000000000000 DUP2 MSTORE PUSH1 0x4 ADD PUSH2 0x935 SWAP1 PUSH2 0x1292 JUMP JUMPDEST PUSH1 0x40 MLOAD DUP1 SWAP2 SUB SWAP1 REVERT JUMPDEST PUSH1 0x1 PUSH1 0x5 DUP2 SWAP1 SSTORE POP JUMP JUMPDEST PUSH1 0x1 PUSH0 SWAP1 SLOAD SWAP1 PUSH2 0x100 EXP SWAP1 DIV PUSH20 0xFFFFFFFFFFFFFFFFFFFFFFFFFFFFFFFFFFFFFFFF AND PUSH20 0xFFFFFFFFFFFFFFFFFFFFFFFFFFFFFFFFFFFFFFFF AND CALLER PUSH20 0xFFFFFFFFFFFFFFFFFFFFFFFFFFFFFFFFFFFFFFFF AND EQ PUSH2 0x9D7 JUMPI PUSH1 0x40 MLOAD PUSH32 0x8C379A000000000000000000000000000000000000000000000000000000000 DUP2 MSTORE PUSH1 0x4 ADD PUSH2 0x9CE SWAP1 PUSH2 0x1416 JUMP JUMPDEST PUSH1 0x40 MLOAD DUP1 SWAP2 SUB SWAP1 REVERT JUMPDEST PUSH0 PUSH1 0x2 DUP2 GT ISZERO PUSH2 0x9EA JUMPI PUSH2 0x9E9 PUSH2 0xE8C JUMP JUMPDEST JUMPDEST PUSH1 0x4 PUSH1 0x2 SWAP1 SLOAD SWAP1 PUSH2 0x100 EXP SWAP1 DIV PUSH1 0xFF AND PUSH1 0x2 DUP2 GT ISZERO PUSH2 0xA0C JUMPI PUSH2 0xA0B PUSH2 0xE8C JUMP JUMPDEST JUMPDEST EQ PUSH2 0xA4C JUMPI PUSH1 0x40 MLOAD PUSH32 0x8C379A000000000000000000000000000000000000000000000000000000000 DUP2 MSTORE PUSH1 0x4 ADD PUSH2 0xA43 SWAP1 PUSH2 0x147E JUMP JUMPDEST PUSH1 0x40 MLOAD DUP1 SWAP2 SUB SWAP1 REVERT JUMPDEST PUSH1 0x3 SLOAD CALLVALUE EQ PUSH2 0xA90 JUMPI PUSH1 0x40 MLOAD PUSH32 0x8C379A000000000000000000000000000000000000000000000000000000000 DUP2 MSTORE PUSH1 0x4 ADD PUSH2 0xA87 SWAP1 PUSH2 0x150C JUMP JUMPDEST PUSH1 0x40 MLOAD DUP1 SWAP2 SUB SWAP1 REVERT JUMPDEST PUSH1 0x1 PUSH1 0x4 PUSH1 0x1 PUSH2 0x100 EXP DUP2 SLOAD DUP2 PUSH1 0xFF MUL NOT AND SWAP1 DUP4 ISZERO ISZERO MUL OR SWAP1 SSTORE POP PUSH2 0xAB3 PUSH2 0xC68 JUMP JUMPDEST JUMP JUMPDEST PUSH0 DUP1 SLOAD SWAP1 PUSH2 0x100 EXP SWAP1 DIV PUSH20 0xFFFFFFFFFFFFFFFFFFFFFFFFFFFFFFFFFFFFFFFF AND DUP2 JUMP JUMPDEST PUSH1 0x8 SLOAD DUP2 JUMP JUMPDEST PUSH1 0x6 SLOAD DUP2 JUMP JUMPDEST PUSH1 0x7 SLOAD DUP2 JUMP JUMPDEST PUSH0 DUP1 SLOAD SWAP1 PUSH2 0x100 EXP SWAP1 DIV PUSH20 0xFFFFFFFFFFFFFFFFFFFFFFFFFFFFFFFFFFFFFFFF AND PUSH20 0xFFFFFFFFFFFFFFFFFFFFFFFFFFFFFFFFFFFFFFFF AND CALLER PUSH20 0xFFFFFFFFFFFFFFFFFFFFFFFFFFFFFFFFFFFFFFFF AND EQ PUSH2 0xB77 JUMPI PUSH1 0x40 MLOAD PUSH32 0x8C379A000000000000000000000000000000000000000000000000000000000 DUP2 MSTORE PUSH1 0x4 ADD PUSH2 0xB6E SWAP1 PUSH2 0x1574 JUMP JUMPDEST PUSH1 0x40 MLOAD DUP1 SWAP2 SUB SWAP1 REVERT JUMPDEST PUSH0 PUSH1 0x2 DUP2 GT ISZERO PUSH2 0xB8A JUMPI PUSH2 0xB89 PUSH2 0xE8C JUMP JUMPDEST JUMPDEST PUSH1 0x4 PUSH1 0x2 SWAP1 SLOAD SWAP1 PUSH2 0x100 EXP SWAP1 DIV PUSH1 0xFF AND PUSH1 0x2 DUP2 GT ISZERO PUSH2 0xBAC JUMPI PUSH2 0xBAB PUSH2 0xE8C JUMP JUMPDEST JUMPDEST EQ PUSH2 0xBEC JUMPI PUSH1 0x40 MLOAD PUSH32 0x8C379A000000000000000000000000000000000000000000000000000000000 DUP2 MSTORE PUSH1 0x4 ADD PUSH2 0xBE3 SWAP1 PUSH2 0x1602 JUMP JUMPDEST PUSH1 0x40 MLOAD DUP1 SWAP2 SUB SWAP1 REVERT JUMPDEST PUSH0 CALLVALUE GT PUSH2 0xC2E JUMPI PUSH1 0x40 MLOAD PUSH32 0x8C379A000000000000000000000000000000000000000000000000000000000 DUP2 MSTORE PUSH1 0x4 ADD PUSH2 0xC25 SWAP1 PUSH2 0x166A JUMP JUMPDEST PUSH1 0x40 MLOAD DUP1 SWAP2 SUB SWAP1 REVERT JUMPDEST JUMP JUMPDEST PUSH1 0x2 PUSH0 SWAP1 SLOAD SWAP1 PUSH2 0x100 EXP SWAP1 DIV PUSH20 0xFFFFFFFFFFFFFFFFFFFFFFFFFFFFFFFFFFFFFFFF AND DUP2 JUMP JUMPDEST PUSH1 0x4 PUSH1 0x1 SWAP1 SLOAD SWAP1 PUSH2 0x100 EXP SWAP1 DIV PUSH1 0xFF AND DUP2 JUMP JUMPDEST PUSH1 0x4 PUSH0 SWAP1 SLOAD SWAP1 PUSH2 0x100 EXP SWAP1 DIV PUSH1 0xFF AND DUP1 ISZERO PUSH2 0xC8F JUMPI POP PUSH1 0x4 PUSH1 0x1 SWAP1 SLOAD SWAP1 PUSH2 0x100 EXP SWAP1 DIV PUSH1 0xFF AND JUMPDEST ISZERO PUSH2 0xC9D JUMPI PUSH2 0xC9C PUSH2 0xC9F JUMP JUMPDEST JUMPDEST JUMP JUMPDEST PUSH0 PUSH1 0x2 DUP2 GT ISZERO PUSH2 0xCB2 JUMPI PUSH2 0xCB1 PUSH2 0xE8C JUMP JUMPDEST JUMPDEST PUSH1 0x4 PUSH1 0x2 SWAP1 SLOAD SWAP1 PUSH2 0x100 EXP SWAP1 DIV PUSH1 0xFF AND PUSH1 0x2 DUP2 GT ISZERO PUSH2 0xCD4 JUMPI PUSH2 0xCD3 PUSH2 0xE8C JUMP JUMPDEST JUMPDEST EQ PUSH2 0xD14 JUMPI PUSH1 0x40 MLOAD PUSH32 0x8C379A000000000000000000000000000000000000000000000000000000000 DUP2 MSTORE PUSH1 0x4 ADD PUSH2 0xD0B SWAP1 PUSH2 0x16D2 JUMP JUMPDEST PUSH1 0x40 MLOAD DUP1 SWAP2 SUB SWAP1 REVERT JUMPDEST PUSH1 0x1 PUSH1 0x2 DUP2 GT ISZERO PUSH2 0xD28 JUMPI PUSH2 0xD27 PUSH2 0xE8C JUMP JUMPDEST JUMPDEST PUSH1 0x4 PUSH1 0x2 SWAP1 SLOAD SWAP1 PUSH2 0x100 EXP SWAP1 DIV PUSH1 0xFF AND PUSH1 0x2 DUP2 GT ISZERO PUSH2 0xD4A JUMPI PUSH2 0xD49 PUSH2 0xE8C JUMP JUMPDEST JUMPDEST EQ PUSH2 0xD53 JUMPI PUSH0 DUP1 REVERT JUMPDEST PUSH1 0x1 PUSH0 SWAP1 SLOAD SWAP1 PUSH2 0x100 EXP SWAP1 DIV PUSH20 0xFFFFFFFFFFFFFFFFFFFFFFFFFFFFFFFFFFFFFFFF AND PUSH20 0xFFFFFFFFFFFFFFFFFFFFFFFFFFFFFFFFFFFFFFFF AND PUSH2 0x8FC PUSH1 0x3 SLOAD SWAP1 DUP2 ISZERO MUL SWAP1 PUSH1 0x40 MLOAD PUSH0 PUSH1 0x40 MLOAD DUP1 DUP4 SUB DUP2 DUP6 DUP9 DUP9 CALL SWAP4 POP POP POP POP ISZERO DUP1 ISZERO PUSH2 0xDB9 JUMPI RETURNDATASIZE PUSH0 DUP1 RETURNDATACOPY RETURNDATASIZE PUSH0 REVERT JUMPDEST POP PUSH0 PUSH1 0x3 DUP2 SWAP1 SSTORE POP PUSH1 0x1 PUSH0 SWAP1 SLOAD SWAP1 PUSH2 0x100 EXP SWAP1 DIV PUSH20 0xFFFFFFFFFFFFFFFFFFFFFFFFFFFFFFFFFFFFFFFF AND PUSH20 0xFFFFFFFFFFFFFFFFFFFFFFFFFFFFFFFFFFFFFFFF AND PUSH32 0x221C08A06B07A64803B3787861A3F276212FCCCB51C2E6234077A9B8CB13047A PUSH1 0x3 SLOAD PUSH1 0x40 MLOAD PUSH2 0xE2A SWAP2 SWAP1 PUSH2 0xF30 JUMP JUMPDEST PUSH1 0x40 MLOAD DUP1 SWAP2 SUB SWAP1 LOG2 JUMP JUMPDEST PUSH0 PUSH20 0xFFFFFFFFFFFFFFFFFFFFFFFFFFFFFFFFFFFFFFFF DUP3 AND SWAP1 POP SWAP2 SWAP1 POP JUMP JUMPDEST PUSH0 PUSH2 0xE5D DUP3 PUSH2 0xE34 JUMP JUMPDEST SWAP1 POP SWAP2 SWAP1 POP JUMP JUMPDEST PUSH2 0xE6D DUP2 PUSH2 0xE53 JUMP JUMPDEST DUP3 MSTORE POP POP JUMP JUMPDEST PUSH0 PUSH1 0x20 DUP3 ADD SWAP1 POP PUSH2 0xE86 PUSH0 DUP4 ADD DUP5 PUSH2 0xE64 JUMP JUMPDEST SWAP3 SWAP2 POP POP JUMP JUMPDEST PUSH32 0x4E487B7100000000000000000000000000000000000000000000000000000000 PUSH0 MSTORE PUSH1 0x21 PUSH1 0x4 MSTORE PUSH1 0x24 PUSH0 REVERT JUMPDEST PUSH1 0x3 DUP2 LT PUSH2 0xECA JUMPI PUSH2 0xEC9 PUSH2 0xE8C JUMP JUMPDEST JUMPDEST POP JUMP JUMPDEST PUSH0 DUP2 SWAP1 POP PUSH2 0xEDA DUP3 PUSH2 0xEB9 JUMP JUMPDEST SWAP2 SWAP1 POP JUMP JUMPDEST PUSH0 PUSH2 0xEE9 DUP3 PUSH2 0xECD JUMP JUMPDEST SWAP1 POP SWAP2 SWAP1 POP JUMP JUMPDEST PUSH2 0xEF9 DUP2 PUSH2 0xEDF JUMP JUMPDEST DUP3 MSTORE POP POP JUMP JUMPDEST PUSH0 PUSH1 0x20 DUP3 ADD SWAP1 POP PUSH2 0xF12 PUSH0 DUP4 ADD DUP5 PUSH2 0xEF0 JUMP JUMPDEST SWAP3 SWAP2 POP POP JUMP JUMPDEST PUSH0 DUP2 SWAP1 POP SWAP2 SWAP1 POP JUMP JUMPDEST PUSH2 0xF2A DUP2 PUSH2 0xF18 JUMP JUMPDEST DUP3 MSTORE POP POP JUMP JUMPDEST PUSH0 PUSH1 0x20 DUP3 ADD SWAP1 POP PUSH2 0xF43 PUSH0 DUP4 ADD DUP5 PUSH2 0xF21 JUMP JUMPDEST SWAP3 SWAP2 POP POP JUMP JUMPDEST PUSH0 DUP2 ISZERO ISZERO SWAP1 POP SWAP2 SWAP1 POP JUMP JUMPDEST PUSH2 0xF5D DUP2 PUSH2 0xF49 JUMP JUMPDEST DUP3 MSTORE POP POP JUMP JUMPDEST PUSH0 PUSH1 0x20 DUP3 ADD SWAP1 POP PUSH2 0xF76 PUSH0 DUP4 ADD DUP5 PUSH2 0xF54 JUMP JUMPDEST SWAP3 SWAP2 POP POP JUMP JUMPDEST PUSH0 DUP3 DUP3 MSTORE PUSH1 0x20 DUP3 ADD SWAP1 POP SWAP3 SWAP2 POP POP JUMP JUMPDEST PUSH32 0x4F6E6C792062757965722063616E20636F6E6669726D2064656C697665726C79 PUSH0 DUP3 ADD MSTORE POP JUMP JUMPDEST PUSH0 PUSH2 0xFC0 PUSH1 0x20 DUP4 PUSH2 0xF7C JUMP JUMPDEST SWAP2 POP PUSH2 0xFCB DUP3 PUSH2 0xF8C JUMP JUMPDEST PUSH1 0x20 DUP3 ADD SWAP1 POP SWAP2 SWAP1 POP JUMP JUMPDEST PUSH0 PUSH1 0x20 DUP3 ADD SWAP1 POP DUP2 DUP2 SUB PUSH0 DUP4 ADD MSTORE PUSH2 0xFED DUP2 PUSH2 0xFB4 JUMP JUMPDEST SWAP1 POP SWAP2 SWAP1 POP JUMP JUMPDEST PUSH32 0x436F6E7472616374206D75737420626520696E20616374697665207374617465 PUSH0 DUP3 ADD MSTORE PUSH32 0x20746F20636F6E6669726D2064656C697665726C790000000000000000000000 PUSH1 0x20 DUP3 ADD MSTORE POP JUMP JUMPDEST PUSH0 PUSH2 0x104E PUSH1 0x35 DUP4 PUSH2 0xF7C JUMP JUMPDEST SWAP2 POP PUSH2 0x1059 DUP3 PUSH2 0xFF4 JUMP JUMPDEST PUSH1 0x40 DUP3 ADD SWAP1 POP SWAP2 SWAP1 POP JUMP JUMPDEST PUSH0 PUSH1 0x20 DUP3 ADD SWAP1 POP DUP2 DUP2 SUB PUSH0 DUP4 ADD MSTORE PUSH2 0x107B DUP2 PUSH2 0x1042 JUMP JUMPDEST SWAP1 POP SWAP2 SWAP1 POP JUMP JUMPDEST PUSH32 0x4F6E6C792073656C6C65722063616E20636F6D706C6574650000000000000000 PUSH0 DUP3 ADD MSTORE POP JUMP JUMPDEST PUSH0 PUSH2 0x10B6 PUSH1 0x18 DUP4 PUSH2 0xF7C JUMP JUMPDEST SWAP2 POP PUSH2 0x10C1 DUP3 PUSH2 0x1082 JUMP JUMPDEST PUSH1 0x20 DUP3 ADD SWAP1 POP SWAP2 SWAP1 POP JUMP JUMPDEST PUSH0 PUSH1 0x20 DUP3 ADD SWAP1 POP DUP2 DUP2 SUB PUSH0 DUP4 ADD MSTORE PUSH2 0x10E3 DUP2 PUSH2 0x10AA JUMP JUMPDEST SWAP1 POP SWAP2 SWAP1 POP JUMP JUMPDEST PUSH32 0x436F6E7472616374206D75737420626520616374697665000000000000000000 PUSH0 DUP3 ADD MSTORE POP JUMP JUMPDEST PUSH0 PUSH2 0x111E PUSH1 0x17 DUP4 PUSH2 0xF7C JUMP JUMPDEST SWAP2 POP PUSH2 0x1129 DUP3 PUSH2 0x10EA JUMP JUMPDEST PUSH1 0x20 DUP3 ADD SWAP1 POP SWAP2 SWAP1 POP JUMP JUMPDEST PUSH0 PUSH1 0x20 DUP3 ADD SWAP1 POP DUP2 DUP2 SUB PUSH0 DUP4 ADD MSTORE PUSH2 0x114B DUP2 PUSH2 0x1112 JUMP JUMPDEST SWAP1 POP SWAP2 SWAP1 POP JUMP JUMPDEST PUSH32 0x416D6F756E74207061696420696E20657363726F77206D757374206D61746368 PUSH0 DUP3 ADD MSTORE POP JUMP JUMPDEST PUSH0 PUSH2 0x1186 PUSH1 0x20 DUP4 PUSH2 0xF7C JUMP JUMPDEST SWAP2 POP PUSH2 0x1191 DUP3 PUSH2 0x1152 JUMP JUMPDEST PUSH1 0x20 DUP3 ADD SWAP1 POP SWAP2 SWAP1 POP JUMP JUMPDEST PUSH0 PUSH1 0x20 DUP3 ADD SWAP1 POP DUP2 DUP2 SUB PUSH0 DUP4 ADD MSTORE PUSH2 0x11B3 DUP2 PUSH2 0x117A JUMP JUMPDEST SWAP1 POP SWAP2 SWAP1 POP JUMP JUMPDEST PUSH32 0x53656C6C6572206D757374206861766520636F6E6669726D65642064656C6976 PUSH0 DUP3 ADD MSTORE PUSH32 0x6572790000000000000000000000000000000000000000000000000000000000 PUSH1 0x20 DUP3 ADD MSTORE POP JUMP JUMPDEST PUSH0 PUSH2 0x1214 PUSH1 0x23 DUP4 PUSH2 0xF7C JUMP JUMPDEST SWAP2 POP PUSH2 0x121F DUP3 PUSH2 0x11BA JUMP JUMPDEST PUSH1 0x40 DUP3 ADD SWAP1 POP SWAP2 SWAP1 POP JUMP JUMPDEST PUSH0 PUSH1 0x20 DUP3 ADD SWAP1 POP DUP2 DUP2 SUB PUSH0 DUP4 ADD MSTORE PUSH2 0x1241 DUP2 PUSH2 0x1208 JUMP JUMPDEST SWAP1 POP SWAP2 SWAP1 POP JUMP JUMPDEST PUSH32 0x446973707574652068617665206265656E207261697365640000000000000000 PUSH0 DUP3 ADD MSTORE POP JUMP JUMPDEST PUSH0 PUSH2 0x127C PUSH1 0x18 DUP4 PUSH2 0xF7C JUMP JUMPDEST SWAP2 POP PUSH2 0x1287 DUP3 PUSH2 0x1248 JUMP JUMPDEST PUSH1 0x20 DUP3 ADD SWAP1 POP SWAP2 SWAP1 POP JUMP JUMPDEST PUSH0 PUSH1 0x20 DUP3 ADD SWAP1 POP DUP2 DUP2 SUB PUSH0 DUP4 ADD MSTORE PUSH2 0x12A9 DUP2 PUSH2 0x1270 JUMP JUMPDEST SWAP1 POP SWAP2 SWAP1 POP JUMP JUMPDEST PUSH32 0x204F6E6C792062757965722063616E2064697370757465000000000000000000 PUSH0 DUP3 ADD MSTORE POP JUMP JUMPDEST PUSH0 PUSH2 0x12E4 PUSH1 0x17 DUP4 PUSH2 0xF7C JUMP JUMPDEST SWAP2 POP PUSH2 0x12EF DUP3 PUSH2 0x12B0 JUMP JUMPDEST PUSH1 0x20 DUP3 ADD SWAP1 POP SWAP2 SWAP1 POP JUMP JUMPDEST PUSH0 PUSH1 0x20 DUP3 ADD SWAP1 POP DUP2 DUP2 SUB PUSH0 DUP4 ADD MSTORE PUSH2 0x1311 DUP2 PUSH2 0x12D8 JUMP JUMPDEST SWAP1 POP SWAP2 SWAP1 POP JUMP JUMPDEST PUSH32 0x4275796572206D757374206861766520636F6E6669726D65642064656C697665 PUSH0 DUP3 ADD MSTORE PUSH32 0x7279000000000000000000000000000000000000000000000000000000000000 PUSH1 0x20 DUP3 ADD MSTORE POP JUMP JUMPDEST PUSH0 PUSH2 0x1372 PUSH1 0x22 DUP4 PUSH2 0xF7C JUMP JUMPDEST SWAP2 POP PUSH2 0x137D DUP3 PUSH2 0x1318 JUMP JUMPDEST PUSH1 0x40 DUP3 ADD SWAP1 POP SWAP2 SWAP1 POP JUMP JUMPDEST PUSH0 PUSH1 0x20 DUP3 ADD SWAP1 POP DUP2 DUP2 SUB PUSH0 DUP4 ADD MSTORE PUSH2 0x139F DUP2 PUSH2 0x1366 JUMP JUMPDEST SWAP1 POP SWAP2 SWAP1 POP JUMP JUMPDEST PUSH32 0x4F6E6C792073656C6C65722063616E20636F6E6469726D2064656C697665726C PUSH0 DUP3 ADD MSTORE PUSH32 0x7900000000000000000000000000000000000000000000000000000000000000 PUSH1 0x20 DUP3 ADD MSTORE POP JUMP JUMPDEST PUSH0 PUSH2 0x1400 PUSH1 0x21 DUP4 PUSH2 0xF7C JUMP JUMPDEST SWAP2 POP PUSH2 0x140B DUP3 PUSH2 0x13A6 JUMP JUMPDEST PUSH1 0x40 DUP3 ADD SWAP1 POP SWAP2 SWAP1 POP JUMP JUMPDEST PUSH0 PUSH1 0x20 DUP3 ADD SWAP1 POP DUP2 DUP2 SUB PUSH0 DUP4 ADD MSTORE PUSH2 0x142D DUP2 PUSH2 0x13F4 JUMP JUMPDEST SWAP1 POP SWAP2 SWAP1 POP JUMP JUMPDEST PUSH32 0x436F6E74726163742068617320746F2062652061637469766500000000000000 PUSH0 DUP3 ADD MSTORE POP JUMP JUMPDEST PUSH0 PUSH2 0x1468 PUSH1 0x19 DUP4 PUSH2 0xF7C JUMP JUMPDEST SWAP2 POP PUSH2 0x1473 DUP3 PUSH2 0x1434 JUMP JUMPDEST PUSH1 0x20 DUP3 ADD SWAP1 POP SWAP2 SWAP1 POP JUMP JUMPDEST PUSH0 PUSH1 0x20 DUP3 ADD SWAP1 POP DUP2 DUP2 SUB PUSH0 DUP4 ADD MSTORE PUSH2 0x1495 DUP2 PUSH2 0x145C JUMP JUMPDEST SWAP1 POP SWAP2 SWAP1 POP JUMP JUMPDEST PUSH32 0x436F6E747261637420616D6F756E742068617320746F207061696420696E2066 PUSH0 DUP3 ADD MSTORE PUSH32 0x756C6C0000000000000000000000000000000000000000000000000000000000 PUSH1 0x20 DUP3 ADD MSTORE POP JUMP JUMPDEST PUSH0 PUSH2 0x14F6 PUSH1 0x23 DUP4 PUSH2 0xF7C JUMP JUMPDEST SWAP2 POP PUSH2 0x1501 DUP3 PUSH2 0x149C JUMP JUMPDEST PUSH1 0x40 DUP3 ADD SWAP1 POP SWAP2 SWAP1 POP JUMP JUMPDEST PUSH0 PUSH1 0x20 DUP3 ADD SWAP1 POP DUP2 DUP2 SUB PUSH0 DUP4 ADD MSTORE PUSH2 0x1523 DUP2 PUSH2 0x14EA JUMP JUMPDEST SWAP1 POP SWAP2 SWAP1 POP JUMP JUMPDEST PUSH32 0x4F6E6C792062757965722063616E206465706F7369742066756E647300000000 PUSH0 DUP3 ADD MSTORE POP JUMP JUMPDEST PUSH0 PUSH2 0x155E PUSH1 0x1C DUP4 PUSH2 0xF7C JUMP JUMPDEST SWAP2 POP PUSH2 0x1569 DUP3 PUSH2 0x152A JUMP JUMPDEST PUSH1 0x20 DUP3 ADD SWAP1 POP SWAP2 SWAP1 POP JUMP JUMPDEST PUSH0 PUSH1 0x20 DUP3 ADD SWAP1 POP DUP2 DUP2 SUB PUSH0 DUP4 ADD MSTORE PUSH2 0x158B DUP2 PUSH2 0x1552 JUMP JUMPDEST SWAP1 POP SWAP2 SWAP1 POP JUMP JUMPDEST PUSH32 0x436F6E7472616374206D75737420626520696E20616374697665207374617465 PUSH0 DUP3 ADD MSTORE PUSH32 0x20746F206465706F7369742066756E6473000000000000000000000000000000 PUSH1 0x20 DUP3 ADD MSTORE POP JUMP JUMPDEST PUSH0 PUSH2 0x15EC PUSH1 0x31 DUP4 PUSH2 0xF7C JUMP JUMPDEST SWAP2 POP PUSH2 0x15F7 DUP3 PUSH2 0x1592 JUMP JUMPDEST PUSH1 0x40 DUP3 ADD SWAP1 POP SWAP2 SWAP1 POP JUMP JUMPDEST PUSH0 PUSH1 0x20 DUP3 ADD SWAP1 POP DUP2 DUP2 SUB PUSH0 DUP4 ADD MSTORE PUSH2 0x1619 DUP2 PUSH2 0x15E0 JUMP JUMPDEST SWAP1 POP SWAP2 SWAP1 POP JUMP JUMPDEST PUSH32 0x416D6F756E74206D7573742062652067726561746572207468616E207A65726F PUSH0 DUP3 ADD MSTORE POP JUMP JUMPDEST PUSH0 PUSH2 0x1654 PUSH1 0x20 DUP4 PUSH2 0xF7C JUMP JUMPDEST SWAP2 POP PUSH2 0x165F DUP3 PUSH2 0x1620 JUMP JUMPDEST PUSH1 0x20 DUP3 ADD SWAP1 POP SWAP2 SWAP1 POP JUMP JUMPDEST PUSH0 PUSH1 0x20 DUP3 ADD SWAP1 POP DUP2 DUP2 SUB PUSH0 DUP4 ADD MSTORE PUSH2 0x1681 DUP2 PUSH2 0x1648 JUMP JUMPDEST SWAP1 POP SWAP2 SWAP1 POP JUMP JUMPDEST PUSH32 0x436F6E7472616374206973206E6F742061637469766500000000000000000000 PUSH0 DUP3 ADD MSTORE POP JUMP JUMPDEST PUSH0 PUSH2 0x16BC PUSH1 0x16 DUP4 PUSH2 0xF7C JUMP JUMPDEST SWAP2 POP PUSH2 0x16C7 DUP3 PUSH2 0x1688 JUMP JUMPDEST PUSH1 0x20 DUP3 ADD SWAP1 POP SWAP2 SWAP1 POP JUMP JUMPDEST PUSH0 PUSH1 0x20 DUP3 ADD SWAP1 POP DUP2 DUP2 SUB PUSH0 DUP4 ADD MSTORE PUSH2 0x16E9 DUP2 PUSH2 0x16B0 JUMP JUMPDEST SWAP1 POP SWAP2 SWAP1 POP JUMP INVALID LOG2 PUSH5 0x6970667358 0x22 SLT KECCAK256 0x28 SLOAD TSTORE LOG3 CALLDATASIZE DUP4 CALL SSTORE 0xFC MUL SWAP12 0xF6 RETURN GASPRICE ISZERO 0xCA 0xEA MULMOD DUP5 0x26 CALLDATASIZE 0xC9 0xB6 CODESIZE REVERT DUP15 0xDE STOP 0xC2 0xD5 0x1E DUP14 PUSH5 0x736F6C6343 STOP ADDMOD NOT STOP CALLER "
				},
				"gasEstimates": {
					"creation": {
						"codeDepositCost": "1185200",
						"executionCost": "49821",
						"totalCost": "1235021"
					},
					"external": {
						"Deadline()": "2447",
						"amountPaidInEscrow()": "2492",
						"buyer()": "2550",
						"buyerConfirmed()": "2511",
						"complete()": "infinite",
						"confirmDeliverlyByBuyer()": "infinite",
						"confirmDelivery()": "infinite",
						"currentState()": "2651",
						"deposit()": "4894",
						"escrowAgent()": "2574",
						"escrowAmount()": "2448",
						"feePercentage()": "2514",
						"isDispute()": "2493",
						"resolveDispute()": "33144",
						"seller()": "2532",
						"sellerConfirmed()": "2605"
					},
					"internal": {
						"finalizeTransaction()": "infinite",
						"tryToFinalize()": "infinite"
					}
				},
				"methodIdentifiers": {
					"Deadline()": "c6f221aa",
					"amountPaidInEscrow()": "995e770b",
					"buyer()": "7150d8ae",
					"buyerConfirmed()": "48a1335a",
					"complete()": "522e1177",
					"confirmDeliverlyByBuyer()": "24e6d8b4",
					"confirmDelivery()": "5e10177b",
					"currentState()": "0c3f6acf",
					"deposit()": "d0e30db0",
					"escrowAgent()": "e1f6c098",
					"escrowAmount()": "47a7846f",
					"feePercentage()": "a001ecdd",
					"isDispute()": "166573e5",
					"resolveDispute()": "5b39a33f",
					"seller()": "08551a53",
					"sellerConfirmed()": "f6cb6ea8"
				}
			},
			"storageLayout": {
				"storage": [
					{
						"astId": 3,
						"contract": "Escrow smart contract.sol:Escrow",
						"label": "buyer",
						"offset": 0,
						"slot": "0",
						"type": "t_address"
					},
					{
						"astId": 5,
						"contract": "Escrow smart contract.sol:Escrow",
						"label": "seller",
						"offset": 0,
						"slot": "1",
						"type": "t_address"
					},
					{
						"astId": 7,
						"contract": "Escrow smart contract.sol:Escrow",
						"label": "escrowAgent",
						"offset": 0,
						"slot": "2",
						"type": "t_address"
					},
					{
						"astId": 9,
						"contract": "Escrow smart contract.sol:Escrow",
						"label": "escrowAmount",
						"offset": 0,
						"slot": "3",
						"type": "t_uint256"
					},
					{
						"astId": 11,
						"contract": "Escrow smart contract.sol:Escrow",
						"label": "buyerConfirmed",
						"offset": 0,
						"slot": "4",
						"type": "t_bool"
					},
					{
						"astId": 13,
						"contract": "Escrow smart contract.sol:Escrow",
						"label": "sellerConfirmed",
						"offset": 1,
						"slot": "4",
						"type": "t_bool"
					},
					{
						"astId": 36,
						"contract": "Escrow smart contract.sol:Escrow",
						"label": "currentState",
						"offset": 2,
						"slot": "4",
						"type": "t_enum(contractState)33"
					},
					{
						"astId": 52,
						"contract": "Escrow smart contract.sol:Escrow",
						"label": "isDispute",
						"offset": 0,
						"slot": "5",
						"type": "t_uint256"
					},
					{
						"astId": 54,
						"contract": "Escrow smart contract.sol:Escrow",
						"label": "feePercentage",
						"offset": 0,
						"slot": "6",
						"type": "t_uint256"
					},
					{
						"astId": 56,
						"contract": "Escrow smart contract.sol:Escrow",
						"label": "Deadline",
						"offset": 0,
						"slot": "7",
						"type": "t_uint256"
					},
					{
						"astId": 58,
						"contract": "Escrow smart contract.sol:Escrow",
						"label": "amountPaidInEscrow",
						"offset": 0,
						"slot": "8",
						"type": "t_uint256"
					}
				],
				"types": {
					"t_address": {
						"encoding": "inplace",
						"label": "address",
						"numberOfBytes": "20"
					},
					"t_bool": {
						"encoding": "inplace",
						"label": "bool",
						"numberOfBytes": "1"
					},
					"t_enum(contractState)33": {
						"encoding": "inplace",
						"label": "enum Escrow.contractState",
						"numberOfBytes": "1"
					},
					"t_uint256": {
						"encoding": "inplace",
						"label": "uint256",
						"numberOfBytes": "32"
					}
				}
			},
			"userdoc": {
				"kind": "user",
				"methods": {},
				"version": 1
			}
		}
	}
}