{
	"Escrow smart contract.sol": {
		"Escrow": {
			"abi": [
				{
					"inputs": [],
					"stateMutability": "payable",
					"type": "constructor"
				},
				{
					"anonymous": false,
					"inputs": [
						{
							"indexed": true,
							"internalType": "address",
							"name": "by",
							"type": "address"
						}
					],
					"name": "DisputeRaised",
					"type": "event"
				},
				{
					"anonymous": false,
					"inputs": [
						{
							"indexed": true,
							"internalType": "address",
							"name": "winner",
							"type": "address"
						},
						{
							"indexed": false,
							"internalType": "uint256",
							"name": "amount",
							"type": "uint256"
						}
					],
					"name": "DisputeResolved",
					"type": "event"
				},
				{
					"anonymous": false,
					"inputs": [
						{
							"indexed": true,
							"internalType": "address",
							"name": "to",
							"type": "address"
						},
						{
							"indexed": false,
							"internalType": "uint256",
							"name": "amount",
							"type": "uint256"
						}
					],
					"name": "FundsReleased",
					"type": "event"
				},
				{
					"inputs": [],
					"name": "Deadline",
					"outputs": [
						{
							"internalType": "uint256",
							"name": "",
							"type": "uint256"
						}
					],
					"stateMutability": "view",
					"type": "function"
				},
				{
					"inputs": [],
					"name": "amountPaidInEscrow",
					"outputs": [
						{
							"internalType": "uint256",
							"name": "",
							"type": "uint256"
						}
					],
					"stateMutability": "view",
					"type": "function"
				},
				{
					"inputs": [],
					"name": "buyer",
					"outputs": [
						{
							"internalType": "address",
							"name": "",
							"type": "address"
						}
					],
					"stateMutability": "view",
					"type": "function"
				},
				{
					"inputs": [],
					"name": "buyerConfirmed",
					"outputs": [
						{
							"internalType": "bool",
							"name": "",
							"type": "bool"
						}
					],
					"stateMutability": "view",
					"type": "function"
				},
				{
					"inputs": [],
					"name": "confirmDeliverlyByBuyer",
					"outputs": [],
					"stateMutability": "nonpayable",
					"type": "function"
				},
				{
					"inputs": [],
					"name": "confirmDelivery",
					"outputs": [],
					"stateMutability": "payable",
					"type": "function"
				},
				{
					"inputs": [],
					"name": "currentState",
					"outputs": [
						{
							"internalType": "enum Escrow.contractState",
							"name": "",
							"type": "uint8"
						}
					],
					"stateMutability": "view",
					"type": "function"
				},
				{
					"inputs": [],
					"name": "deposit",
					"outputs": [],
					"stateMutability": "payable",
					"type": "function"
				},
				{
					"inputs": [],
					"name": "escrowAgent",
					"outputs": [
						{
							"internalType": "address",
							"name": "",
							"type": "address"
						}
					],
					"stateMutability": "view",
					"type": "function"
				},
				{
					"inputs": [],
					"name": "escrowAmount",
					"outputs": [
						{
							"internalType": "uint256",
							"name": "",
							"type": "uint256"
						}
					],
					"stateMutability": "view",
					"type": "function"
				},
				{
					"inputs": [],
					"name": "feePercentage",
					"outputs": [
						{
							"internalType": "uint256",
							"name": "",
							"type": "uint256"
						}
					],
					"stateMutability": "view",
					"type": "function"
				},
				{
					"inputs": [],
					"name": "isDispute",
					"outputs": [
						{
							"internalType": "uint256",
							"name": "",
							"type": "uint256"
						}
					],
					"stateMutability": "view",
					"type": "function"
				},
				{
					"inputs": [],
					"name": "seller",
					"outputs": [
						{
							"internalType": "address",
							"name": "",
							"type": "address"
						}
					],
					"stateMutability": "view",
					"type": "function"
				},
				{
					"inputs": [],
					"name": "sellerConfirmed",
					"outputs": [
						{
							"internalType": "bool",
							"name": "",
							"type": "bool"
						}
					],
					"stateMutability": "view",
					"type": "function"
				}
			],
			"devdoc": {
				"kind": "dev",
				"methods": {},
				"version": 1
			},
			"evm": {
				"assembly": "    /* \"Escrow smart contract.sol\":87:3643  contract Escrow {... */\n  mstore(0x40, 0x80)\n    /* \"Escrow smart contract.sol\":1183:1203  contractState.Active */\n  0x00\n    /* \"Escrow smart contract.sol\":1168:1180  currentState */\n  0x04\n  0x02\n    /* \"Escrow smart contract.sol\":1168:1203  currentState = contractState.Active */\n  0x0100\n  exp\n  dup2\n  sload\n  dup2\n  0xff\n  mul\n  not\n  and\n  swap1\n  dup4\n  0x02\n  dup2\n  gt\n  iszero\n  tag_3\n  jumpi\n  tag_4\n  tag_5\n  jump\t// in\ntag_4:\ntag_3:\n  mul\n  or\n  swap1\n  sstore\n  pop\n    /* \"Escrow smart contract.sol\":1264:1274  msg.sender */\n  caller\n    /* \"Escrow smart contract.sol\":1250:1261  escrowAgent */\n  0x02\n  0x00\n    /* \"Escrow smart contract.sol\":1250:1274  escrowAgent = msg.sender */\n  0x0100\n  exp\n  dup2\n  sload\n  dup2\n  0xffffffffffffffffffffffffffffffffffffffff\n  mul\n  not\n  and\n  swap1\n  dup4\n  0xffffffffffffffffffffffffffffffffffffffff\n  and\n  mul\n  or\n  swap1\n  sstore\n  pop\n    /* \"Escrow smart contract.sol\":87:3643  contract Escrow {... */\n  jump(tag_6)\n    /* \"#utility.yul\":7:187   */\ntag_5:\n    /* \"#utility.yul\":55:132   */\n  0x4e487b7100000000000000000000000000000000000000000000000000000000\n    /* \"#utility.yul\":52:53   */\n  0x00\n    /* \"#utility.yul\":45:133   */\n  mstore\n    /* \"#utility.yul\":152:156   */\n  0x21\n    /* \"#utility.yul\":149:150   */\n  0x04\n    /* \"#utility.yul\":142:157   */\n  mstore\n    /* \"#utility.yul\":176:180   */\n  0x24\n    /* \"#utility.yul\":173:174   */\n  0x00\n    /* \"#utility.yul\":166:181   */\n  revert\n    /* \"Escrow smart contract.sol\":87:3643  contract Escrow {... */\ntag_6:\n  dataSize(sub_0)\n  dup1\n  dataOffset(sub_0)\n  0x00\n  codecopy\n  0x00\n  return\nstop\n\nsub_0: assembly {\n        /* \"Escrow smart contract.sol\":87:3643  contract Escrow {... */\n      mstore(0x40, 0x80)\n      jumpi(tag_1, lt(calldatasize, 0x04))\n      shr(0xe0, calldataload(0x00))\n      dup1\n      0x7150d8ae\n      gt\n      tag_16\n      jumpi\n      dup1\n      0xc6f221aa\n      gt\n      tag_17\n      jumpi\n      dup1\n      0xc6f221aa\n      eq\n      tag_12\n      jumpi\n      dup1\n      0xd0e30db0\n      eq\n      tag_13\n      jumpi\n      dup1\n      0xe1f6c098\n      eq\n      tag_14\n      jumpi\n      dup1\n      0xf6cb6ea8\n      eq\n      tag_15\n      jumpi\n      jump(tag_1)\n    tag_17:\n      dup1\n      0x7150d8ae\n      eq\n      tag_9\n      jumpi\n      dup1\n      0x995e770b\n      eq\n      tag_10\n      jumpi\n      dup1\n      0xa001ecdd\n      eq\n      tag_11\n      jumpi\n      jump(tag_1)\n    tag_16:\n      dup1\n      0x24e6d8b4\n      gt\n      tag_18\n      jumpi\n      dup1\n      0x24e6d8b4\n      eq\n      tag_5\n      jumpi\n      dup1\n      0x47a7846f\n      eq\n      tag_6\n      jumpi\n      dup1\n      0x48a1335a\n      eq\n      tag_7\n      jumpi\n      dup1\n      0x5e10177b\n      eq\n      tag_8\n      jumpi\n      jump(tag_1)\n    tag_18:\n      dup1\n      0x08551a53\n      eq\n      tag_2\n      jumpi\n      dup1\n      0x0c3f6acf\n      eq\n      tag_3\n      jumpi\n      dup1\n      0x166573e5\n      eq\n      tag_4\n      jumpi\n    tag_1:\n      0x00\n      dup1\n      revert\n        /* \"Escrow smart contract.sol\":146:167  address public seller */\n    tag_2:\n      callvalue\n      dup1\n      iszero\n      tag_19\n      jumpi\n      0x00\n      dup1\n      revert\n    tag_19:\n      pop\n      tag_20\n      tag_21\n      jump\t// in\n    tag_20:\n      mload(0x40)\n      tag_22\n      swap2\n      swap1\n      tag_23\n      jump\t// in\n    tag_22:\n      mload(0x40)\n      dup1\n      swap2\n      sub\n      swap1\n      return\n        /* \"Escrow smart contract.sol\":870:903  contractState public currentState */\n    tag_3:\n      callvalue\n      dup1\n      iszero\n      tag_24\n      jumpi\n      0x00\n      dup1\n      revert\n    tag_24:\n      pop\n      tag_25\n      tag_26\n      jump\t// in\n    tag_25:\n      mload(0x40)\n      tag_27\n      swap2\n      swap1\n      tag_28\n      jump\t// in\n    tag_27:\n      mload(0x40)\n      dup1\n      swap2\n      sub\n      swap1\n      return\n        /* \"Escrow smart contract.sol\":1347:1368  uint public isDispute */\n    tag_4:\n      callvalue\n      dup1\n      iszero\n      tag_29\n      jumpi\n      0x00\n      dup1\n      revert\n    tag_29:\n      pop\n      tag_30\n      tag_31\n      jump\t// in\n    tag_30:\n      mload(0x40)\n      tag_32\n      swap2\n      swap1\n      tag_33\n      jump\t// in\n    tag_32:\n      mload(0x40)\n      dup1\n      swap2\n      sub\n      swap1\n      return\n        /* \"Escrow smart contract.sol\":2391:2894  function confirmDeliverlyByBuyer() external {... */\n    tag_5:\n      callvalue\n      dup1\n      iszero\n      tag_34\n      jumpi\n      0x00\n      dup1\n      revert\n    tag_34:\n      pop\n      tag_35\n      tag_36\n      jump\t// in\n    tag_35:\n      stop\n        /* \"Escrow smart contract.sol\":257:281  uint public escrowAmount */\n    tag_6:\n      callvalue\n      dup1\n      iszero\n      tag_37\n      jumpi\n      0x00\n      dup1\n      revert\n    tag_37:\n      pop\n      tag_38\n      tag_39\n      jump\t// in\n    tag_38:\n      mload(0x40)\n      tag_40\n      swap2\n      swap1\n      tag_33\n      jump\t// in\n    tag_40:\n      mload(0x40)\n      dup1\n      swap2\n      sub\n      swap1\n      return\n        /* \"Escrow smart contract.sol\":346:372  bool public buyerConfirmed */\n    tag_7:\n      callvalue\n      dup1\n      iszero\n      tag_41\n      jumpi\n      0x00\n      dup1\n      revert\n    tag_41:\n      pop\n      tag_42\n      tag_43\n      jump\t// in\n    tag_42:\n      mload(0x40)\n      tag_44\n      swap2\n      swap1\n      tag_45\n      jump\t// in\n    tag_44:\n      mload(0x40)\n      dup1\n      swap2\n      sub\n      swap1\n      return\n        /* \"Escrow smart contract.sol\":1941:2322  function confirmDelivery () external payable {... */\n    tag_8:\n      tag_46\n      tag_47\n      jump\t// in\n    tag_46:\n      stop\n        /* \"Escrow smart contract.sol\":114:135  address  public buyer */\n    tag_9:\n      callvalue\n      dup1\n      iszero\n      tag_48\n      jumpi\n      0x00\n      dup1\n      revert\n    tag_48:\n      pop\n      tag_49\n      tag_50\n      jump\t// in\n    tag_49:\n      mload(0x40)\n      tag_51\n      swap2\n      swap1\n      tag_23\n      jump\t// in\n    tag_51:\n      mload(0x40)\n      dup1\n      swap2\n      sub\n      swap1\n      return\n        /* \"Escrow smart contract.sol\":1464:1494  uint public amountPaidInEscrow */\n    tag_10:\n      callvalue\n      dup1\n      iszero\n      tag_52\n      jumpi\n      0x00\n      dup1\n      revert\n    tag_52:\n      pop\n      tag_53\n      tag_54\n      jump\t// in\n    tag_53:\n      mload(0x40)\n      tag_55\n      swap2\n      swap1\n      tag_33\n      jump\t// in\n    tag_55:\n      mload(0x40)\n      dup1\n      swap2\n      sub\n      swap1\n      return\n        /* \"Escrow smart contract.sol\":1385:1410  uint public feePercentage */\n    tag_11:\n      callvalue\n      dup1\n      iszero\n      tag_56\n      jumpi\n      0x00\n      dup1\n      revert\n    tag_56:\n      pop\n      tag_57\n      tag_58\n      jump\t// in\n    tag_57:\n      mload(0x40)\n      tag_59\n      swap2\n      swap1\n      tag_33\n      jump\t// in\n    tag_59:\n      mload(0x40)\n      dup1\n      swap2\n      sub\n      swap1\n      return\n        /* \"Escrow smart contract.sol\":1427:1447  uint public Deadline */\n    tag_12:\n      callvalue\n      dup1\n      iszero\n      tag_60\n      jumpi\n      0x00\n      dup1\n      revert\n    tag_60:\n      pop\n      tag_61\n      tag_62\n      jump\t// in\n    tag_61:\n      mload(0x40)\n      tag_63\n      swap2\n      swap1\n      tag_33\n      jump\t// in\n    tag_63:\n      mload(0x40)\n      dup1\n      swap2\n      sub\n      swap1\n      return\n        /* \"Escrow smart contract.sol\":1540:1871  function deposit () external  payable {... */\n    tag_13:\n      tag_64\n      tag_65\n      jump\t// in\n    tag_64:\n      stop\n        /* \"Escrow smart contract.sol\":178:204  address public escrowAgent */\n    tag_14:\n      callvalue\n      dup1\n      iszero\n      tag_66\n      jumpi\n      0x00\n      dup1\n      revert\n    tag_66:\n      pop\n      tag_67\n      tag_68\n      jump\t// in\n    tag_67:\n      mload(0x40)\n      tag_69\n      swap2\n      swap1\n      tag_23\n      jump\t// in\n    tag_69:\n      mload(0x40)\n      dup1\n      swap2\n      sub\n      swap1\n      return\n        /* \"Escrow smart contract.sol\":426:453  bool public sellerConfirmed */\n    tag_15:\n      callvalue\n      dup1\n      iszero\n      tag_70\n      jumpi\n      0x00\n      dup1\n      revert\n    tag_70:\n      pop\n      tag_71\n      tag_72\n      jump\t// in\n    tag_71:\n      mload(0x40)\n      tag_73\n      swap2\n      swap1\n      tag_45\n      jump\t// in\n    tag_73:\n      mload(0x40)\n      dup1\n      swap2\n      sub\n      swap1\n      return\n        /* \"Escrow smart contract.sol\":146:167  address public seller */\n    tag_21:\n      0x01\n      0x00\n      swap1\n      sload\n      swap1\n      0x0100\n      exp\n      swap1\n      div\n      0xffffffffffffffffffffffffffffffffffffffff\n      and\n      dup2\n      jump\t// out\n        /* \"Escrow smart contract.sol\":870:903  contractState public currentState */\n    tag_26:\n      0x04\n      0x02\n      swap1\n      sload\n      swap1\n      0x0100\n      exp\n      swap1\n      div\n      0xff\n      and\n      dup2\n      jump\t// out\n        /* \"Escrow smart contract.sol\":1347:1368  uint public isDispute */\n    tag_31:\n      sload(0x05)\n      dup2\n      jump\t// out\n        /* \"Escrow smart contract.sol\":2391:2894  function confirmDeliverlyByBuyer() external {... */\n    tag_36:\n        /* \"Escrow smart contract.sol\":2474:2479  buyer */\n      0x00\n      dup1\n      sload\n      swap1\n      0x0100\n      exp\n      swap1\n      div\n      0xffffffffffffffffffffffffffffffffffffffff\n      and\n        /* \"Escrow smart contract.sol\":2460:2479  msg.sender == buyer */\n      0xffffffffffffffffffffffffffffffffffffffff\n      and\n        /* \"Escrow smart contract.sol\":2460:2470  msg.sender */\n      caller\n        /* \"Escrow smart contract.sol\":2460:2479  msg.sender == buyer */\n      0xffffffffffffffffffffffffffffffffffffffff\n      and\n      eq\n        /* \"Escrow smart contract.sol\":2452:2515  require(msg.sender == buyer,\"Only buyer can confirm deliverly\") */\n      tag_75\n      jumpi\n      mload(0x40)\n      0x08c379a000000000000000000000000000000000000000000000000000000000\n      dup2\n      mstore\n      0x04\n      add\n      tag_76\n      swap1\n      tag_77\n      jump\t// in\n    tag_76:\n      mload(0x40)\n      dup1\n      swap2\n      sub\n      swap1\n      revert\n    tag_75:\n        /* \"Escrow smart contract.sol\":2557:2577  contractState.Active */\n      0x00\n        /* \"Escrow smart contract.sol\":2541:2577  currentState == contractState.Active */\n      0x02\n      dup2\n      gt\n      iszero\n      tag_78\n      jumpi\n      tag_79\n      tag_80\n      jump\t// in\n    tag_79:\n    tag_78:\n        /* \"Escrow smart contract.sol\":2541:2553  currentState */\n      0x04\n      0x02\n      swap1\n      sload\n      swap1\n      0x0100\n      exp\n      swap1\n      div\n      0xff\n      and\n        /* \"Escrow smart contract.sol\":2541:2577  currentState == contractState.Active */\n      0x02\n      dup2\n      gt\n      iszero\n      tag_81\n      jumpi\n      tag_82\n      tag_80\n      jump\t// in\n    tag_82:\n    tag_81:\n      eq\n        /* \"Escrow smart contract.sol\":2533:2635  require(currentState == contractState.Active, \"Contract must be in active state to confirm deliverly\") */\n      tag_83\n      jumpi\n      mload(0x40)\n      0x08c379a000000000000000000000000000000000000000000000000000000000\n      dup2\n      mstore\n      0x04\n      add\n      tag_84\n      swap1\n      tag_85\n      jump\t// in\n    tag_84:\n      mload(0x40)\n      dup1\n      swap2\n      sub\n      swap1\n      revert\n    tag_83:\n        /* \"Escrow smart contract.sol\":2853:2857  true */\n      0x01\n        /* \"Escrow smart contract.sol\":2836:2850  buyerConfirmed */\n      0x04\n      0x00\n        /* \"Escrow smart contract.sol\":2836:2857  buyerConfirmed = true */\n      0x0100\n      exp\n      dup2\n      sload\n      dup2\n      0xff\n      mul\n      not\n      and\n      swap1\n      dup4\n      iszero\n      iszero\n      mul\n      or\n      swap1\n      sstore\n      pop\n        /* \"Escrow smart contract.sol\":2868:2883  tryToFinalize() */\n      tag_86\n        /* \"Escrow smart contract.sol\":2868:2881  tryToFinalize */\n      tag_87\n        /* \"Escrow smart contract.sol\":2868:2883  tryToFinalize() */\n      jump\t// in\n    tag_86:\n        /* \"Escrow smart contract.sol\":2391:2894  function confirmDeliverlyByBuyer() external {... */\n      jump\t// out\n        /* \"Escrow smart contract.sol\":257:281  uint public escrowAmount */\n    tag_39:\n      sload(0x03)\n      dup2\n      jump\t// out\n        /* \"Escrow smart contract.sol\":346:372  bool public buyerConfirmed */\n    tag_43:\n      0x04\n      0x00\n      swap1\n      sload\n      swap1\n      0x0100\n      exp\n      swap1\n      div\n      0xff\n      and\n      dup2\n      jump\t// out\n        /* \"Escrow smart contract.sol\":1941:2322  function confirmDelivery () external payable {... */\n    tag_47:\n        /* \"Escrow smart contract.sol\":2025:2031  seller */\n      0x01\n      0x00\n      swap1\n      sload\n      swap1\n      0x0100\n      exp\n      swap1\n      div\n      0xffffffffffffffffffffffffffffffffffffffff\n      and\n        /* \"Escrow smart contract.sol\":2011:2031  msg.sender == seller */\n      0xffffffffffffffffffffffffffffffffffffffff\n      and\n        /* \"Escrow smart contract.sol\":2011:2021  msg.sender */\n      caller\n        /* \"Escrow smart contract.sol\":2011:2031  msg.sender == seller */\n      0xffffffffffffffffffffffffffffffffffffffff\n      and\n      eq\n        /* \"Escrow smart contract.sol\":2003:2068  require(msg.sender == seller,\"Only seller can condirm deliverly\") */\n      tag_89\n      jumpi\n      mload(0x40)\n      0x08c379a000000000000000000000000000000000000000000000000000000000\n      dup2\n      mstore\n      0x04\n      add\n      tag_90\n      swap1\n      tag_91\n      jump\t// in\n    tag_90:\n      mload(0x40)\n      dup1\n      swap2\n      sub\n      swap1\n      revert\n    tag_89:\n        /* \"Escrow smart contract.sol\":2108:2128  contractState.Active */\n      0x00\n        /* \"Escrow smart contract.sol\":2093:2128  currentState ==contractState.Active */\n      0x02\n      dup2\n      gt\n      iszero\n      tag_92\n      jumpi\n      tag_93\n      tag_80\n      jump\t// in\n    tag_93:\n    tag_92:\n        /* \"Escrow smart contract.sol\":2093:2105  currentState */\n      0x04\n      0x02\n      swap1\n      sload\n      swap1\n      0x0100\n      exp\n      swap1\n      div\n      0xff\n      and\n        /* \"Escrow smart contract.sol\":2093:2128  currentState ==contractState.Active */\n      0x02\n      dup2\n      gt\n      iszero\n      tag_94\n      jumpi\n      tag_95\n      tag_80\n      jump\t// in\n    tag_95:\n    tag_94:\n      eq\n        /* \"Escrow smart contract.sol\":2085:2158  require(currentState ==contractState.Active, \"Contract has to be active\") */\n      tag_96\n      jumpi\n      mload(0x40)\n      0x08c379a000000000000000000000000000000000000000000000000000000000\n      dup2\n      mstore\n      0x04\n      add\n      tag_97\n      swap1\n      tag_98\n      jump\t// in\n    tag_97:\n      mload(0x40)\n      dup1\n      swap2\n      sub\n      swap1\n      revert\n    tag_96:\n        /* \"Escrow smart contract.sol\":2195:2207  escrowAmount */\n      sload(0x03)\n        /* \"Escrow smart contract.sol\":2183:2192  msg.value */\n      callvalue\n        /* \"Escrow smart contract.sol\":2183:2207  msg.value ==escrowAmount */\n      eq\n        /* \"Escrow smart contract.sol\":2175:2246  require(msg.value ==escrowAmount,\"Contract amount has to paid in full\") */\n      tag_99\n      jumpi\n      mload(0x40)\n      0x08c379a000000000000000000000000000000000000000000000000000000000\n      dup2\n      mstore\n      0x04\n      add\n      tag_100\n      swap1\n      tag_101\n      jump\t// in\n    tag_100:\n      mload(0x40)\n      dup1\n      swap2\n      sub\n      swap1\n      revert\n    tag_99:\n        /* \"Escrow smart contract.sol\":2281:2285  true */\n      0x01\n        /* \"Escrow smart contract.sol\":2263:2278  sellerConfirmed */\n      0x04\n      0x01\n        /* \"Escrow smart contract.sol\":2263:2285  sellerConfirmed = true */\n      0x0100\n      exp\n      dup2\n      sload\n      dup2\n      0xff\n      mul\n      not\n      and\n      swap1\n      dup4\n      iszero\n      iszero\n      mul\n      or\n      swap1\n      sstore\n      pop\n        /* \"Escrow smart contract.sol\":2296:2311  tryToFinalize() */\n      tag_102\n        /* \"Escrow smart contract.sol\":2296:2309  tryToFinalize */\n      tag_87\n        /* \"Escrow smart contract.sol\":2296:2311  tryToFinalize() */\n      jump\t// in\n    tag_102:\n        /* \"Escrow smart contract.sol\":1941:2322  function confirmDelivery () external payable {... */\n      jump\t// out\n        /* \"Escrow smart contract.sol\":114:135  address  public buyer */\n    tag_50:\n      0x00\n      dup1\n      sload\n      swap1\n      0x0100\n      exp\n      swap1\n      div\n      0xffffffffffffffffffffffffffffffffffffffff\n      and\n      dup2\n      jump\t// out\n        /* \"Escrow smart contract.sol\":1464:1494  uint public amountPaidInEscrow */\n    tag_54:\n      sload(0x08)\n      dup2\n      jump\t// out\n        /* \"Escrow smart contract.sol\":1385:1410  uint public feePercentage */\n    tag_58:\n      sload(0x06)\n      dup2\n      jump\t// out\n        /* \"Escrow smart contract.sol\":1427:1447  uint public Deadline */\n    tag_62:\n      sload(0x07)\n      dup2\n      jump\t// out\n        /* \"Escrow smart contract.sol\":1540:1871  function deposit () external  payable {... */\n    tag_65:\n        /* \"Escrow smart contract.sol\":1618:1623  buyer */\n      0x00\n      dup1\n      sload\n      swap1\n      0x0100\n      exp\n      swap1\n      div\n      0xffffffffffffffffffffffffffffffffffffffff\n      and\n        /* \"Escrow smart contract.sol\":1604:1623  msg.sender == buyer */\n      0xffffffffffffffffffffffffffffffffffffffff\n      and\n        /* \"Escrow smart contract.sol\":1604:1614  msg.sender */\n      caller\n        /* \"Escrow smart contract.sol\":1604:1623  msg.sender == buyer */\n      0xffffffffffffffffffffffffffffffffffffffff\n      and\n      eq\n        /* \"Escrow smart contract.sol\":1595:1656  require (msg.sender == buyer, \"Only buyer can deposit funds\") */\n      tag_104\n      jumpi\n      mload(0x40)\n      0x08c379a000000000000000000000000000000000000000000000000000000000\n      dup2\n      mstore\n      0x04\n      add\n      tag_105\n      swap1\n      tag_106\n      jump\t// in\n    tag_105:\n      mload(0x40)\n      dup1\n      swap2\n      sub\n      swap1\n      revert\n    tag_104:\n        /* \"Escrow smart contract.sol\":1697:1717  contractState.Active */\n      0x00\n        /* \"Escrow smart contract.sol\":1681:1717  currentState == contractState.Active */\n      0x02\n      dup2\n      gt\n      iszero\n      tag_107\n      jumpi\n      tag_108\n      tag_80\n      jump\t// in\n    tag_108:\n    tag_107:\n        /* \"Escrow smart contract.sol\":1681:1693  currentState */\n      0x04\n      0x02\n      swap1\n      sload\n      swap1\n      0x0100\n      exp\n      swap1\n      div\n      0xff\n      and\n        /* \"Escrow smart contract.sol\":1681:1717  currentState == contractState.Active */\n      0x02\n      dup2\n      gt\n      iszero\n      tag_109\n      jumpi\n      tag_110\n      tag_80\n      jump\t// in\n    tag_110:\n    tag_109:\n      eq\n        /* \"Escrow smart contract.sol\":1673:1771  require(currentState == contractState.Active, \"Contract must be in active state to deposit funds\") */\n      tag_111\n      jumpi\n      mload(0x40)\n      0x08c379a000000000000000000000000000000000000000000000000000000000\n      dup2\n      mstore\n      0x04\n      add\n      tag_112\n      swap1\n      tag_113\n      jump\t// in\n    tag_112:\n      mload(0x40)\n      dup1\n      swap2\n      sub\n      swap1\n      revert\n    tag_111:\n        /* \"Escrow smart contract.sol\":1806:1807  0 */\n      0x00\n        /* \"Escrow smart contract.sol\":1796:1805  msg.value */\n      callvalue\n        /* \"Escrow smart contract.sol\":1796:1807  msg.value>0 */\n      gt\n        /* \"Escrow smart contract.sol\":1788:1844  require(msg.value>0, \"Amount must be greater than zero\") */\n      tag_114\n      jumpi\n      mload(0x40)\n      0x08c379a000000000000000000000000000000000000000000000000000000000\n      dup2\n      mstore\n      0x04\n      add\n      tag_115\n      swap1\n      tag_116\n      jump\t// in\n    tag_115:\n      mload(0x40)\n      dup1\n      swap2\n      sub\n      swap1\n      revert\n    tag_114:\n        /* \"Escrow smart contract.sol\":1540:1871  function deposit () external  payable {... */\n      jump\t// out\n        /* \"Escrow smart contract.sol\":178:204  address public escrowAgent */\n    tag_68:\n      0x02\n      0x00\n      swap1\n      sload\n      swap1\n      0x0100\n      exp\n      swap1\n      div\n      0xffffffffffffffffffffffffffffffffffffffff\n      and\n      dup2\n      jump\t// out\n        /* \"Escrow smart contract.sol\":426:453  bool public sellerConfirmed */\n    tag_72:\n      0x04\n      0x01\n      swap1\n      sload\n      swap1\n      0x0100\n      exp\n      swap1\n      div\n      0xff\n      and\n      dup2\n      jump\t// out\n        /* \"Escrow smart contract.sol\":2905:3100  function tryToFinalize() internal {... */\n    tag_87:\n        /* \"Escrow smart contract.sol\":2954:2968  buyerConfirmed */\n      0x04\n      0x00\n      swap1\n      sload\n      swap1\n      0x0100\n      exp\n      swap1\n      div\n      0xff\n      and\n        /* \"Escrow smart contract.sol\":2954:2987  buyerConfirmed && sellerConfirmed */\n      dup1\n      iszero\n      tag_118\n      jumpi\n      pop\n        /* \"Escrow smart contract.sol\":2972:2987  sellerConfirmed */\n      0x04\n      0x01\n      swap1\n      sload\n      swap1\n      0x0100\n      exp\n      swap1\n      div\n      0xff\n      and\n        /* \"Escrow smart contract.sol\":2954:2987  buyerConfirmed && sellerConfirmed */\n    tag_118:\n        /* \"Escrow smart contract.sol\":2950:3088  if (buyerConfirmed && sellerConfirmed) {... */\n      iszero\n      tag_119\n      jumpi\n        /* \"Escrow smart contract.sol\":3004:3025  finalizeTransaction() */\n      tag_120\n        /* \"Escrow smart contract.sol\":3004:3023  finalizeTransaction */\n      tag_121\n        /* \"Escrow smart contract.sol\":3004:3025  finalizeTransaction() */\n      jump\t// in\n    tag_120:\n        /* \"Escrow smart contract.sol\":2950:3088  if (buyerConfirmed && sellerConfirmed) {... */\n    tag_119:\n        /* \"Escrow smart contract.sol\":2905:3100  function tryToFinalize() internal {... */\n      jump\t// out\n        /* \"Escrow smart contract.sol\":3162:3613  function finalizeTransaction() internal {... */\n    tag_121:\n        /* \"Escrow smart contract.sol\":3237:3257  contractState.Active */\n      0x00\n        /* \"Escrow smart contract.sol\":3221:3257  currentState == contractState.Active */\n      0x02\n      dup2\n      gt\n      iszero\n      tag_123\n      jumpi\n      tag_124\n      tag_80\n      jump\t// in\n    tag_124:\n    tag_123:\n        /* \"Escrow smart contract.sol\":3221:3233  currentState */\n      0x04\n      0x02\n      swap1\n      sload\n      swap1\n      0x0100\n      exp\n      swap1\n      div\n      0xff\n      and\n        /* \"Escrow smart contract.sol\":3221:3257  currentState == contractState.Active */\n      0x02\n      dup2\n      gt\n      iszero\n      tag_125\n      jumpi\n      tag_126\n      tag_80\n      jump\t// in\n    tag_126:\n    tag_125:\n      eq\n        /* \"Escrow smart contract.sol\":3213:3284  require(currentState == contractState.Active, \"Contract is not active\") */\n      tag_127\n      jumpi\n      mload(0x40)\n      0x08c379a000000000000000000000000000000000000000000000000000000000\n      dup2\n      mstore\n      0x04\n      add\n      tag_128\n      swap1\n      tag_129\n      jump\t// in\n    tag_128:\n      mload(0x40)\n      dup1\n      swap2\n      sub\n      swap1\n      revert\n    tag_127:\n        /* \"Escrow smart contract.sol\":3366:3386  contractState.Closed */\n      0x01\n        /* \"Escrow smart contract.sol\":3350:3386  currentState == contractState.Closed */\n      0x02\n      dup2\n      gt\n      iszero\n      tag_130\n      jumpi\n      tag_131\n      tag_80\n      jump\t// in\n    tag_131:\n    tag_130:\n        /* \"Escrow smart contract.sol\":3350:3362  currentState */\n      0x04\n      0x02\n      swap1\n      sload\n      swap1\n      0x0100\n      exp\n      swap1\n      div\n      0xff\n      and\n        /* \"Escrow smart contract.sol\":3350:3386  currentState == contractState.Closed */\n      0x02\n      dup2\n      gt\n      iszero\n      tag_132\n      jumpi\n      tag_133\n      tag_80\n      jump\t// in\n    tag_133:\n    tag_132:\n      eq\n        /* \"Escrow smart contract.sol\":3342:3387  require(currentState == contractState.Closed) */\n      tag_134\n      jumpi\n      0x00\n      dup1\n      revert\n    tag_134:\n        /* \"Escrow smart contract.sol\":3406:3412  seller */\n      0x01\n      0x00\n      swap1\n      sload\n      swap1\n      0x0100\n      exp\n      swap1\n      div\n      0xffffffffffffffffffffffffffffffffffffffff\n      and\n        /* \"Escrow smart contract.sol\":3398:3422  payable(seller).transfer */\n      0xffffffffffffffffffffffffffffffffffffffff\n      and\n        /* \"Escrow smart contract.sol\":3398:3436  payable(seller).transfer(escrowAmount) */\n      0x08fc\n        /* \"Escrow smart contract.sol\":3423:3435  escrowAmount */\n      sload(0x03)\n        /* \"Escrow smart contract.sol\":3398:3436  payable(seller).transfer(escrowAmount) */\n      swap1\n      dup2\n      iszero\n      mul\n      swap1\n      mload(0x40)\n      0x00\n      mload(0x40)\n      dup1\n      dup4\n      sub\n      dup2\n      dup6\n      dup9\n      dup9\n      call\n      swap4\n      pop\n      pop\n      pop\n      pop\n      iszero\n      dup1\n      iszero\n      tag_136\n      jumpi\n      returndatasize\n      0x00\n      dup1\n      returndatacopy\n      revert(0x00, returndatasize)\n    tag_136:\n      pop\n        /* \"Escrow smart contract.sol\":3494:3495  0 */\n      0x00\n        /* \"Escrow smart contract.sol\":3479:3491  escrowAmount */\n      0x03\n        /* \"Escrow smart contract.sol\":3479:3495  escrowAmount = 0 */\n      dup2\n      swap1\n      sstore\n      pop\n        /* \"Escrow smart contract.sol\":3552:3558  seller */\n      0x01\n      0x00\n      swap1\n      sload\n      swap1\n      0x0100\n      exp\n      swap1\n      div\n      0xffffffffffffffffffffffffffffffffffffffff\n      and\n        /* \"Escrow smart contract.sol\":3538:3573  FundsReleased(seller, escrowAmount) */\n      0xffffffffffffffffffffffffffffffffffffffff\n      and\n      0x221c08a06b07a64803b3787861a3f276212fcccb51c2e6234077a9b8cb13047a\n        /* \"Escrow smart contract.sol\":3560:3572  escrowAmount */\n      sload(0x03)\n        /* \"Escrow smart contract.sol\":3538:3573  FundsReleased(seller, escrowAmount) */\n      mload(0x40)\n      tag_137\n      swap2\n      swap1\n      tag_33\n      jump\t// in\n    tag_137:\n      mload(0x40)\n      dup1\n      swap2\n      sub\n      swap1\n      log2\n        /* \"Escrow smart contract.sol\":3162:3613  function finalizeTransaction() internal {... */\n      jump\t// out\n        /* \"#utility.yul\":7:133   */\n    tag_138:\n        /* \"#utility.yul\":44:51   */\n      0x00\n        /* \"#utility.yul\":84:126   */\n      0xffffffffffffffffffffffffffffffffffffffff\n        /* \"#utility.yul\":77:82   */\n      dup3\n        /* \"#utility.yul\":73:127   */\n      and\n        /* \"#utility.yul\":62:127   */\n      swap1\n      pop\n        /* \"#utility.yul\":7:133   */\n      swap2\n      swap1\n      pop\n      jump\t// out\n        /* \"#utility.yul\":139:235   */\n    tag_139:\n        /* \"#utility.yul\":176:183   */\n      0x00\n        /* \"#utility.yul\":205:229   */\n      tag_171\n        /* \"#utility.yul\":223:228   */\n      dup3\n        /* \"#utility.yul\":205:229   */\n      tag_138\n      jump\t// in\n    tag_171:\n        /* \"#utility.yul\":194:229   */\n      swap1\n      pop\n        /* \"#utility.yul\":139:235   */\n      swap2\n      swap1\n      pop\n      jump\t// out\n        /* \"#utility.yul\":241:359   */\n    tag_140:\n        /* \"#utility.yul\":328:352   */\n      tag_173\n        /* \"#utility.yul\":346:351   */\n      dup2\n        /* \"#utility.yul\":328:352   */\n      tag_139\n      jump\t// in\n    tag_173:\n        /* \"#utility.yul\":323:326   */\n      dup3\n        /* \"#utility.yul\":316:353   */\n      mstore\n        /* \"#utility.yul\":241:359   */\n      pop\n      pop\n      jump\t// out\n        /* \"#utility.yul\":365:587   */\n    tag_23:\n        /* \"#utility.yul\":458:462   */\n      0x00\n        /* \"#utility.yul\":496:498   */\n      0x20\n        /* \"#utility.yul\":485:494   */\n      dup3\n        /* \"#utility.yul\":481:499   */\n      add\n        /* \"#utility.yul\":473:499   */\n      swap1\n      pop\n        /* \"#utility.yul\":509:580   */\n      tag_175\n        /* \"#utility.yul\":577:578   */\n      0x00\n        /* \"#utility.yul\":566:575   */\n      dup4\n        /* \"#utility.yul\":562:579   */\n      add\n        /* \"#utility.yul\":553:559   */\n      dup5\n        /* \"#utility.yul\":509:580   */\n      tag_140\n      jump\t// in\n    tag_175:\n        /* \"#utility.yul\":365:587   */\n      swap3\n      swap2\n      pop\n      pop\n      jump\t// out\n        /* \"#utility.yul\":593:773   */\n    tag_80:\n        /* \"#utility.yul\":641:718   */\n      0x4e487b7100000000000000000000000000000000000000000000000000000000\n        /* \"#utility.yul\":638:639   */\n      0x00\n        /* \"#utility.yul\":631:719   */\n      mstore\n        /* \"#utility.yul\":738:742   */\n      0x21\n        /* \"#utility.yul\":735:736   */\n      0x04\n        /* \"#utility.yul\":728:743   */\n      mstore\n        /* \"#utility.yul\":762:766   */\n      0x24\n        /* \"#utility.yul\":759:760   */\n      0x00\n        /* \"#utility.yul\":752:767   */\n      revert\n        /* \"#utility.yul\":779:900   */\n    tag_141:\n        /* \"#utility.yul\":868:869   */\n      0x03\n        /* \"#utility.yul\":861:866   */\n      dup2\n        /* \"#utility.yul\":858:870   */\n      lt\n        /* \"#utility.yul\":848:894   */\n      tag_178\n      jumpi\n        /* \"#utility.yul\":874:892   */\n      tag_179\n      tag_80\n      jump\t// in\n    tag_179:\n        /* \"#utility.yul\":848:894   */\n    tag_178:\n        /* \"#utility.yul\":779:900   */\n      pop\n      jump\t// out\n        /* \"#utility.yul\":906:1049   */\n    tag_142:\n        /* \"#utility.yul\":959:966   */\n      0x00\n        /* \"#utility.yul\":988:993   */\n      dup2\n        /* \"#utility.yul\":977:993   */\n      swap1\n      pop\n        /* \"#utility.yul\":994:1043   */\n      tag_181\n        /* \"#utility.yul\":1037:1042   */\n      dup3\n        /* \"#utility.yul\":994:1043   */\n      tag_141\n      jump\t// in\n    tag_181:\n        /* \"#utility.yul\":906:1049   */\n      swap2\n      swap1\n      pop\n      jump\t// out\n        /* \"#utility.yul\":1055:1198   */\n    tag_143:\n        /* \"#utility.yul\":1119:1128   */\n      0x00\n        /* \"#utility.yul\":1152:1192   */\n      tag_183\n        /* \"#utility.yul\":1186:1191   */\n      dup3\n        /* \"#utility.yul\":1152:1192   */\n      tag_142\n      jump\t// in\n    tag_183:\n        /* \"#utility.yul\":1139:1192   */\n      swap1\n      pop\n        /* \"#utility.yul\":1055:1198   */\n      swap2\n      swap1\n      pop\n      jump\t// out\n        /* \"#utility.yul\":1204:1363   */\n    tag_144:\n        /* \"#utility.yul\":1305:1356   */\n      tag_185\n        /* \"#utility.yul\":1350:1355   */\n      dup2\n        /* \"#utility.yul\":1305:1356   */\n      tag_143\n      jump\t// in\n    tag_185:\n        /* \"#utility.yul\":1300:1303   */\n      dup3\n        /* \"#utility.yul\":1293:1357   */\n      mstore\n        /* \"#utility.yul\":1204:1363   */\n      pop\n      pop\n      jump\t// out\n        /* \"#utility.yul\":1369:1619   */\n    tag_28:\n        /* \"#utility.yul\":1476:1480   */\n      0x00\n        /* \"#utility.yul\":1514:1516   */\n      0x20\n        /* \"#utility.yul\":1503:1512   */\n      dup3\n        /* \"#utility.yul\":1499:1517   */\n      add\n        /* \"#utility.yul\":1491:1517   */\n      swap1\n      pop\n        /* \"#utility.yul\":1527:1612   */\n      tag_187\n        /* \"#utility.yul\":1609:1610   */\n      0x00\n        /* \"#utility.yul\":1598:1607   */\n      dup4\n        /* \"#utility.yul\":1594:1611   */\n      add\n        /* \"#utility.yul\":1585:1591   */\n      dup5\n        /* \"#utility.yul\":1527:1612   */\n      tag_144\n      jump\t// in\n    tag_187:\n        /* \"#utility.yul\":1369:1619   */\n      swap3\n      swap2\n      pop\n      pop\n      jump\t// out\n        /* \"#utility.yul\":1625:1702   */\n    tag_145:\n        /* \"#utility.yul\":1662:1669   */\n      0x00\n        /* \"#utility.yul\":1691:1696   */\n      dup2\n        /* \"#utility.yul\":1680:1696   */\n      swap1\n      pop\n        /* \"#utility.yul\":1625:1702   */\n      swap2\n      swap1\n      pop\n      jump\t// out\n        /* \"#utility.yul\":1708:1826   */\n    tag_146:\n        /* \"#utility.yul\":1795:1819   */\n      tag_190\n        /* \"#utility.yul\":1813:1818   */\n      dup2\n        /* \"#utility.yul\":1795:1819   */\n      tag_145\n      jump\t// in\n    tag_190:\n        /* \"#utility.yul\":1790:1793   */\n      dup3\n        /* \"#utility.yul\":1783:1820   */\n      mstore\n        /* \"#utility.yul\":1708:1826   */\n      pop\n      pop\n      jump\t// out\n        /* \"#utility.yul\":1832:2054   */\n    tag_33:\n        /* \"#utility.yul\":1925:1929   */\n      0x00\n        /* \"#utility.yul\":1963:1965   */\n      0x20\n        /* \"#utility.yul\":1952:1961   */\n      dup3\n        /* \"#utility.yul\":1948:1966   */\n      add\n        /* \"#utility.yul\":1940:1966   */\n      swap1\n      pop\n        /* \"#utility.yul\":1976:2047   */\n      tag_192\n        /* \"#utility.yul\":2044:2045   */\n      0x00\n        /* \"#utility.yul\":2033:2042   */\n      dup4\n        /* \"#utility.yul\":2029:2046   */\n      add\n        /* \"#utility.yul\":2020:2026   */\n      dup5\n        /* \"#utility.yul\":1976:2047   */\n      tag_146\n      jump\t// in\n    tag_192:\n        /* \"#utility.yul\":1832:2054   */\n      swap3\n      swap2\n      pop\n      pop\n      jump\t// out\n        /* \"#utility.yul\":2060:2150   */\n    tag_147:\n        /* \"#utility.yul\":2094:2101   */\n      0x00\n        /* \"#utility.yul\":2137:2142   */\n      dup2\n        /* \"#utility.yul\":2130:2143   */\n      iszero\n        /* \"#utility.yul\":2123:2144   */\n      iszero\n        /* \"#utility.yul\":2112:2144   */\n      swap1\n      pop\n        /* \"#utility.yul\":2060:2150   */\n      swap2\n      swap1\n      pop\n      jump\t// out\n        /* \"#utility.yul\":2156:2265   */\n    tag_148:\n        /* \"#utility.yul\":2237:2258   */\n      tag_195\n        /* \"#utility.yul\":2252:2257   */\n      dup2\n        /* \"#utility.yul\":2237:2258   */\n      tag_147\n      jump\t// in\n    tag_195:\n        /* \"#utility.yul\":2232:2235   */\n      dup3\n        /* \"#utility.yul\":2225:2259   */\n      mstore\n        /* \"#utility.yul\":2156:2265   */\n      pop\n      pop\n      jump\t// out\n        /* \"#utility.yul\":2271:2481   */\n    tag_45:\n        /* \"#utility.yul\":2358:2362   */\n      0x00\n        /* \"#utility.yul\":2396:2398   */\n      0x20\n        /* \"#utility.yul\":2385:2394   */\n      dup3\n        /* \"#utility.yul\":2381:2399   */\n      add\n        /* \"#utility.yul\":2373:2399   */\n      swap1\n      pop\n        /* \"#utility.yul\":2409:2474   */\n      tag_197\n        /* \"#utility.yul\":2471:2472   */\n      0x00\n        /* \"#utility.yul\":2460:2469   */\n      dup4\n        /* \"#utility.yul\":2456:2473   */\n      add\n        /* \"#utility.yul\":2447:2453   */\n      dup5\n        /* \"#utility.yul\":2409:2474   */\n      tag_148\n      jump\t// in\n    tag_197:\n        /* \"#utility.yul\":2271:2481   */\n      swap3\n      swap2\n      pop\n      pop\n      jump\t// out\n        /* \"#utility.yul\":2487:2656   */\n    tag_149:\n        /* \"#utility.yul\":2571:2582   */\n      0x00\n        /* \"#utility.yul\":2605:2611   */\n      dup3\n        /* \"#utility.yul\":2600:2603   */\n      dup3\n        /* \"#utility.yul\":2593:2612   */\n      mstore\n        /* \"#utility.yul\":2645:2649   */\n      0x20\n        /* \"#utility.yul\":2640:2643   */\n      dup3\n        /* \"#utility.yul\":2636:2650   */\n      add\n        /* \"#utility.yul\":2621:2650   */\n      swap1\n      pop\n        /* \"#utility.yul\":2487:2656   */\n      swap3\n      swap2\n      pop\n      pop\n      jump\t// out\n        /* \"#utility.yul\":2662:2844   */\n    tag_150:\n        /* \"#utility.yul\":2802:2836   */\n      0x4f6e6c792062757965722063616e20636f6e6669726d2064656c697665726c79\n        /* \"#utility.yul\":2798:2799   */\n      0x00\n        /* \"#utility.yul\":2790:2796   */\n      dup3\n        /* \"#utility.yul\":2786:2800   */\n      add\n        /* \"#utility.yul\":2779:2837   */\n      mstore\n        /* \"#utility.yul\":2662:2844   */\n      pop\n      jump\t// out\n        /* \"#utility.yul\":2850:3216   */\n    tag_151:\n        /* \"#utility.yul\":2992:2995   */\n      0x00\n        /* \"#utility.yul\":3013:3080   */\n      tag_201\n        /* \"#utility.yul\":3077:3079   */\n      0x20\n        /* \"#utility.yul\":3072:3075   */\n      dup4\n        /* \"#utility.yul\":3013:3080   */\n      tag_149\n      jump\t// in\n    tag_201:\n        /* \"#utility.yul\":3006:3080   */\n      swap2\n      pop\n        /* \"#utility.yul\":3089:3182   */\n      tag_202\n        /* \"#utility.yul\":3178:3181   */\n      dup3\n        /* \"#utility.yul\":3089:3182   */\n      tag_150\n      jump\t// in\n    tag_202:\n        /* \"#utility.yul\":3207:3209   */\n      0x20\n        /* \"#utility.yul\":3202:3205   */\n      dup3\n        /* \"#utility.yul\":3198:3210   */\n      add\n        /* \"#utility.yul\":3191:3210   */\n      swap1\n      pop\n        /* \"#utility.yul\":2850:3216   */\n      swap2\n      swap1\n      pop\n      jump\t// out\n        /* \"#utility.yul\":3222:3641   */\n    tag_77:\n        /* \"#utility.yul\":3388:3392   */\n      0x00\n        /* \"#utility.yul\":3426:3428   */\n      0x20\n        /* \"#utility.yul\":3415:3424   */\n      dup3\n        /* \"#utility.yul\":3411:3429   */\n      add\n        /* \"#utility.yul\":3403:3429   */\n      swap1\n      pop\n        /* \"#utility.yul\":3475:3484   */\n      dup2\n        /* \"#utility.yul\":3469:3473   */\n      dup2\n        /* \"#utility.yul\":3465:3485   */\n      sub\n        /* \"#utility.yul\":3461:3462   */\n      0x00\n        /* \"#utility.yul\":3450:3459   */\n      dup4\n        /* \"#utility.yul\":3446:3463   */\n      add\n        /* \"#utility.yul\":3439:3486   */\n      mstore\n        /* \"#utility.yul\":3503:3634   */\n      tag_204\n        /* \"#utility.yul\":3629:3633   */\n      dup2\n        /* \"#utility.yul\":3503:3634   */\n      tag_151\n      jump\t// in\n    tag_204:\n        /* \"#utility.yul\":3495:3634   */\n      swap1\n      pop\n        /* \"#utility.yul\":3222:3641   */\n      swap2\n      swap1\n      pop\n      jump\t// out\n        /* \"#utility.yul\":3647:3887   */\n    tag_152:\n        /* \"#utility.yul\":3787:3821   */\n      0x436f6e7472616374206d75737420626520696e20616374697665207374617465\n        /* \"#utility.yul\":3783:3784   */\n      0x00\n        /* \"#utility.yul\":3775:3781   */\n      dup3\n        /* \"#utility.yul\":3771:3785   */\n      add\n        /* \"#utility.yul\":3764:3822   */\n      mstore\n        /* \"#utility.yul\":3856:3879   */\n      0x20746f20636f6e6669726d2064656c697665726c790000000000000000000000\n        /* \"#utility.yul\":3851:3853   */\n      0x20\n        /* \"#utility.yul\":3843:3849   */\n      dup3\n        /* \"#utility.yul\":3839:3854   */\n      add\n        /* \"#utility.yul\":3832:3880   */\n      mstore\n        /* \"#utility.yul\":3647:3887   */\n      pop\n      jump\t// out\n        /* \"#utility.yul\":3893:4259   */\n    tag_153:\n        /* \"#utility.yul\":4035:4038   */\n      0x00\n        /* \"#utility.yul\":4056:4123   */\n      tag_207\n        /* \"#utility.yul\":4120:4122   */\n      0x35\n        /* \"#utility.yul\":4115:4118   */\n      dup4\n        /* \"#utility.yul\":4056:4123   */\n      tag_149\n      jump\t// in\n    tag_207:\n        /* \"#utility.yul\":4049:4123   */\n      swap2\n      pop\n        /* \"#utility.yul\":4132:4225   */\n      tag_208\n        /* \"#utility.yul\":4221:4224   */\n      dup3\n        /* \"#utility.yul\":4132:4225   */\n      tag_152\n      jump\t// in\n    tag_208:\n        /* \"#utility.yul\":4250:4252   */\n      0x40\n        /* \"#utility.yul\":4245:4248   */\n      dup3\n        /* \"#utility.yul\":4241:4253   */\n      add\n        /* \"#utility.yul\":4234:4253   */\n      swap1\n      pop\n        /* \"#utility.yul\":3893:4259   */\n      swap2\n      swap1\n      pop\n      jump\t// out\n        /* \"#utility.yul\":4265:4684   */\n    tag_85:\n        /* \"#utility.yul\":4431:4435   */\n      0x00\n        /* \"#utility.yul\":4469:4471   */\n      0x20\n        /* \"#utility.yul\":4458:4467   */\n      dup3\n        /* \"#utility.yul\":4454:4472   */\n      add\n        /* \"#utility.yul\":4446:4472   */\n      swap1\n      pop\n        /* \"#utility.yul\":4518:4527   */\n      dup2\n        /* \"#utility.yul\":4512:4516   */\n      dup2\n        /* \"#utility.yul\":4508:4528   */\n      sub\n        /* \"#utility.yul\":4504:4505   */\n      0x00\n        /* \"#utility.yul\":4493:4502   */\n      dup4\n        /* \"#utility.yul\":4489:4506   */\n      add\n        /* \"#utility.yul\":4482:4529   */\n      mstore\n        /* \"#utility.yul\":4546:4677   */\n      tag_210\n        /* \"#utility.yul\":4672:4676   */\n      dup2\n        /* \"#utility.yul\":4546:4677   */\n      tag_153\n      jump\t// in\n    tag_210:\n        /* \"#utility.yul\":4538:4677   */\n      swap1\n      pop\n        /* \"#utility.yul\":4265:4684   */\n      swap2\n      swap1\n      pop\n      jump\t// out\n        /* \"#utility.yul\":4690:4910   */\n    tag_154:\n        /* \"#utility.yul\":4830:4864   */\n      0x4f6e6c792073656c6c65722063616e20636f6e6469726d2064656c697665726c\n        /* \"#utility.yul\":4826:4827   */\n      0x00\n        /* \"#utility.yul\":4818:4824   */\n      dup3\n        /* \"#utility.yul\":4814:4828   */\n      add\n        /* \"#utility.yul\":4807:4865   */\n      mstore\n        /* \"#utility.yul\":4899:4902   */\n      0x7900000000000000000000000000000000000000000000000000000000000000\n        /* \"#utility.yul\":4894:4896   */\n      0x20\n        /* \"#utility.yul\":4886:4892   */\n      dup3\n        /* \"#utility.yul\":4882:4897   */\n      add\n        /* \"#utility.yul\":4875:4903   */\n      mstore\n        /* \"#utility.yul\":4690:4910   */\n      pop\n      jump\t// out\n        /* \"#utility.yul\":4916:5282   */\n    tag_155:\n        /* \"#utility.yul\":5058:5061   */\n      0x00\n        /* \"#utility.yul\":5079:5146   */\n      tag_213\n        /* \"#utility.yul\":5143:5145   */\n      0x21\n        /* \"#utility.yul\":5138:5141   */\n      dup4\n        /* \"#utility.yul\":5079:5146   */\n      tag_149\n      jump\t// in\n    tag_213:\n        /* \"#utility.yul\":5072:5146   */\n      swap2\n      pop\n        /* \"#utility.yul\":5155:5248   */\n      tag_214\n        /* \"#utility.yul\":5244:5247   */\n      dup3\n        /* \"#utility.yul\":5155:5248   */\n      tag_154\n      jump\t// in\n    tag_214:\n        /* \"#utility.yul\":5273:5275   */\n      0x40\n        /* \"#utility.yul\":5268:5271   */\n      dup3\n        /* \"#utility.yul\":5264:5276   */\n      add\n        /* \"#utility.yul\":5257:5276   */\n      swap1\n      pop\n        /* \"#utility.yul\":4916:5282   */\n      swap2\n      swap1\n      pop\n      jump\t// out\n        /* \"#utility.yul\":5288:5707   */\n    tag_91:\n        /* \"#utility.yul\":5454:5458   */\n      0x00\n        /* \"#utility.yul\":5492:5494   */\n      0x20\n        /* \"#utility.yul\":5481:5490   */\n      dup3\n        /* \"#utility.yul\":5477:5495   */\n      add\n        /* \"#utility.yul\":5469:5495   */\n      swap1\n      pop\n        /* \"#utility.yul\":5541:5550   */\n      dup2\n        /* \"#utility.yul\":5535:5539   */\n      dup2\n        /* \"#utility.yul\":5531:5551   */\n      sub\n        /* \"#utility.yul\":5527:5528   */\n      0x00\n        /* \"#utility.yul\":5516:5525   */\n      dup4\n        /* \"#utility.yul\":5512:5529   */\n      add\n        /* \"#utility.yul\":5505:5552   */\n      mstore\n        /* \"#utility.yul\":5569:5700   */\n      tag_216\n        /* \"#utility.yul\":5695:5699   */\n      dup2\n        /* \"#utility.yul\":5569:5700   */\n      tag_155\n      jump\t// in\n    tag_216:\n        /* \"#utility.yul\":5561:5700   */\n      swap1\n      pop\n        /* \"#utility.yul\":5288:5707   */\n      swap2\n      swap1\n      pop\n      jump\t// out\n        /* \"#utility.yul\":5713:5888   */\n    tag_156:\n        /* \"#utility.yul\":5853:5880   */\n      0x436f6e74726163742068617320746f2062652061637469766500000000000000\n        /* \"#utility.yul\":5849:5850   */\n      0x00\n        /* \"#utility.yul\":5841:5847   */\n      dup3\n        /* \"#utility.yul\":5837:5851   */\n      add\n        /* \"#utility.yul\":5830:5881   */\n      mstore\n        /* \"#utility.yul\":5713:5888   */\n      pop\n      jump\t// out\n        /* \"#utility.yul\":5894:6260   */\n    tag_157:\n        /* \"#utility.yul\":6036:6039   */\n      0x00\n        /* \"#utility.yul\":6057:6124   */\n      tag_219\n        /* \"#utility.yul\":6121:6123   */\n      0x19\n        /* \"#utility.yul\":6116:6119   */\n      dup4\n        /* \"#utility.yul\":6057:6124   */\n      tag_149\n      jump\t// in\n    tag_219:\n        /* \"#utility.yul\":6050:6124   */\n      swap2\n      pop\n        /* \"#utility.yul\":6133:6226   */\n      tag_220\n        /* \"#utility.yul\":6222:6225   */\n      dup3\n        /* \"#utility.yul\":6133:6226   */\n      tag_156\n      jump\t// in\n    tag_220:\n        /* \"#utility.yul\":6251:6253   */\n      0x20\n        /* \"#utility.yul\":6246:6249   */\n      dup3\n        /* \"#utility.yul\":6242:6254   */\n      add\n        /* \"#utility.yul\":6235:6254   */\n      swap1\n      pop\n        /* \"#utility.yul\":5894:6260   */\n      swap2\n      swap1\n      pop\n      jump\t// out\n        /* \"#utility.yul\":6266:6685   */\n    tag_98:\n        /* \"#utility.yul\":6432:6436   */\n      0x00\n        /* \"#utility.yul\":6470:6472   */\n      0x20\n        /* \"#utility.yul\":6459:6468   */\n      dup3\n        /* \"#utility.yul\":6455:6473   */\n      add\n        /* \"#utility.yul\":6447:6473   */\n      swap1\n      pop\n        /* \"#utility.yul\":6519:6528   */\n      dup2\n        /* \"#utility.yul\":6513:6517   */\n      dup2\n        /* \"#utility.yul\":6509:6529   */\n      sub\n        /* \"#utility.yul\":6505:6506   */\n      0x00\n        /* \"#utility.yul\":6494:6503   */\n      dup4\n        /* \"#utility.yul\":6490:6507   */\n      add\n        /* \"#utility.yul\":6483:6530   */\n      mstore\n        /* \"#utility.yul\":6547:6678   */\n      tag_222\n        /* \"#utility.yul\":6673:6677   */\n      dup2\n        /* \"#utility.yul\":6547:6678   */\n      tag_157\n      jump\t// in\n    tag_222:\n        /* \"#utility.yul\":6539:6678   */\n      swap1\n      pop\n        /* \"#utility.yul\":6266:6685   */\n      swap2\n      swap1\n      pop\n      jump\t// out\n        /* \"#utility.yul\":6691:6913   */\n    tag_158:\n        /* \"#utility.yul\":6831:6865   */\n      0x436f6e747261637420616d6f756e742068617320746f207061696420696e2066\n        /* \"#utility.yul\":6827:6828   */\n      0x00\n        /* \"#utility.yul\":6819:6825   */\n      dup3\n        /* \"#utility.yul\":6815:6829   */\n      add\n        /* \"#utility.yul\":6808:6866   */\n      mstore\n        /* \"#utility.yul\":6900:6905   */\n      0x756c6c0000000000000000000000000000000000000000000000000000000000\n        /* \"#utility.yul\":6895:6897   */\n      0x20\n        /* \"#utility.yul\":6887:6893   */\n      dup3\n        /* \"#utility.yul\":6883:6898   */\n      add\n        /* \"#utility.yul\":6876:6906   */\n      mstore\n        /* \"#utility.yul\":6691:6913   */\n      pop\n      jump\t// out\n        /* \"#utility.yul\":6919:7285   */\n    tag_159:\n        /* \"#utility.yul\":7061:7064   */\n      0x00\n        /* \"#utility.yul\":7082:7149   */\n      tag_225\n        /* \"#utility.yul\":7146:7148   */\n      0x23\n        /* \"#utility.yul\":7141:7144   */\n      dup4\n        /* \"#utility.yul\":7082:7149   */\n      tag_149\n      jump\t// in\n    tag_225:\n        /* \"#utility.yul\":7075:7149   */\n      swap2\n      pop\n        /* \"#utility.yul\":7158:7251   */\n      tag_226\n        /* \"#utility.yul\":7247:7250   */\n      dup3\n        /* \"#utility.yul\":7158:7251   */\n      tag_158\n      jump\t// in\n    tag_226:\n        /* \"#utility.yul\":7276:7278   */\n      0x40\n        /* \"#utility.yul\":7271:7274   */\n      dup3\n        /* \"#utility.yul\":7267:7279   */\n      add\n        /* \"#utility.yul\":7260:7279   */\n      swap1\n      pop\n        /* \"#utility.yul\":6919:7285   */\n      swap2\n      swap1\n      pop\n      jump\t// out\n        /* \"#utility.yul\":7291:7710   */\n    tag_101:\n        /* \"#utility.yul\":7457:7461   */\n      0x00\n        /* \"#utility.yul\":7495:7497   */\n      0x20\n        /* \"#utility.yul\":7484:7493   */\n      dup3\n        /* \"#utility.yul\":7480:7498   */\n      add\n        /* \"#utility.yul\":7472:7498   */\n      swap1\n      pop\n        /* \"#utility.yul\":7544:7553   */\n      dup2\n        /* \"#utility.yul\":7538:7542   */\n      dup2\n        /* \"#utility.yul\":7534:7554   */\n      sub\n        /* \"#utility.yul\":7530:7531   */\n      0x00\n        /* \"#utility.yul\":7519:7528   */\n      dup4\n        /* \"#utility.yul\":7515:7532   */\n      add\n        /* \"#utility.yul\":7508:7555   */\n      mstore\n        /* \"#utility.yul\":7572:7703   */\n      tag_228\n        /* \"#utility.yul\":7698:7702   */\n      dup2\n        /* \"#utility.yul\":7572:7703   */\n      tag_159\n      jump\t// in\n    tag_228:\n        /* \"#utility.yul\":7564:7703   */\n      swap1\n      pop\n        /* \"#utility.yul\":7291:7710   */\n      swap2\n      swap1\n      pop\n      jump\t// out\n        /* \"#utility.yul\":7716:7894   */\n    tag_160:\n        /* \"#utility.yul\":7856:7886   */\n      0x4f6e6c792062757965722063616e206465706f7369742066756e647300000000\n        /* \"#utility.yul\":7852:7853   */\n      0x00\n        /* \"#utility.yul\":7844:7850   */\n      dup3\n        /* \"#utility.yul\":7840:7854   */\n      add\n        /* \"#utility.yul\":7833:7887   */\n      mstore\n        /* \"#utility.yul\":7716:7894   */\n      pop\n      jump\t// out\n        /* \"#utility.yul\":7900:8266   */\n    tag_161:\n        /* \"#utility.yul\":8042:8045   */\n      0x00\n        /* \"#utility.yul\":8063:8130   */\n      tag_231\n        /* \"#utility.yul\":8127:8129   */\n      0x1c\n        /* \"#utility.yul\":8122:8125   */\n      dup4\n        /* \"#utility.yul\":8063:8130   */\n      tag_149\n      jump\t// in\n    tag_231:\n        /* \"#utility.yul\":8056:8130   */\n      swap2\n      pop\n        /* \"#utility.yul\":8139:8232   */\n      tag_232\n        /* \"#utility.yul\":8228:8231   */\n      dup3\n        /* \"#utility.yul\":8139:8232   */\n      tag_160\n      jump\t// in\n    tag_232:\n        /* \"#utility.yul\":8257:8259   */\n      0x20\n        /* \"#utility.yul\":8252:8255   */\n      dup3\n        /* \"#utility.yul\":8248:8260   */\n      add\n        /* \"#utility.yul\":8241:8260   */\n      swap1\n      pop\n        /* \"#utility.yul\":7900:8266   */\n      swap2\n      swap1\n      pop\n      jump\t// out\n        /* \"#utility.yul\":8272:8691   */\n    tag_106:\n        /* \"#utility.yul\":8438:8442   */\n      0x00\n        /* \"#utility.yul\":8476:8478   */\n      0x20\n        /* \"#utility.yul\":8465:8474   */\n      dup3\n        /* \"#utility.yul\":8461:8479   */\n      add\n        /* \"#utility.yul\":8453:8479   */\n      swap1\n      pop\n        /* \"#utility.yul\":8525:8534   */\n      dup2\n        /* \"#utility.yul\":8519:8523   */\n      dup2\n        /* \"#utility.yul\":8515:8535   */\n      sub\n        /* \"#utility.yul\":8511:8512   */\n      0x00\n        /* \"#utility.yul\":8500:8509   */\n      dup4\n        /* \"#utility.yul\":8496:8513   */\n      add\n        /* \"#utility.yul\":8489:8536   */\n      mstore\n        /* \"#utility.yul\":8553:8684   */\n      tag_234\n        /* \"#utility.yul\":8679:8683   */\n      dup2\n        /* \"#utility.yul\":8553:8684   */\n      tag_161\n      jump\t// in\n    tag_234:\n        /* \"#utility.yul\":8545:8684   */\n      swap1\n      pop\n        /* \"#utility.yul\":8272:8691   */\n      swap2\n      swap1\n      pop\n      jump\t// out\n        /* \"#utility.yul\":8697:8933   */\n    tag_162:\n        /* \"#utility.yul\":8837:8871   */\n      0x436f6e7472616374206d75737420626520696e20616374697665207374617465\n        /* \"#utility.yul\":8833:8834   */\n      0x00\n        /* \"#utility.yul\":8825:8831   */\n      dup3\n        /* \"#utility.yul\":8821:8835   */\n      add\n        /* \"#utility.yul\":8814:8872   */\n      mstore\n        /* \"#utility.yul\":8906:8925   */\n      0x20746f206465706f7369742066756e6473000000000000000000000000000000\n        /* \"#utility.yul\":8901:8903   */\n      0x20\n        /* \"#utility.yul\":8893:8899   */\n      dup3\n        /* \"#utility.yul\":8889:8904   */\n      add\n        /* \"#utility.yul\":8882:8926   */\n      mstore\n        /* \"#utility.yul\":8697:8933   */\n      pop\n      jump\t// out\n        /* \"#utility.yul\":8939:9305   */\n    tag_163:\n        /* \"#utility.yul\":9081:9084   */\n      0x00\n        /* \"#utility.yul\":9102:9169   */\n      tag_237\n        /* \"#utility.yul\":9166:9168   */\n      0x31\n        /* \"#utility.yul\":9161:9164   */\n      dup4\n        /* \"#utility.yul\":9102:9169   */\n      tag_149\n      jump\t// in\n    tag_237:\n        /* \"#utility.yul\":9095:9169   */\n      swap2\n      pop\n        /* \"#utility.yul\":9178:9271   */\n      tag_238\n        /* \"#utility.yul\":9267:9270   */\n      dup3\n        /* \"#utility.yul\":9178:9271   */\n      tag_162\n      jump\t// in\n    tag_238:\n        /* \"#utility.yul\":9296:9298   */\n      0x40\n        /* \"#utility.yul\":9291:9294   */\n      dup3\n        /* \"#utility.yul\":9287:9299   */\n      add\n        /* \"#utility.yul\":9280:9299   */\n      swap1\n      pop\n        /* \"#utility.yul\":8939:9305   */\n      swap2\n      swap1\n      pop\n      jump\t// out\n        /* \"#utility.yul\":9311:9730   */\n    tag_113:\n        /* \"#utility.yul\":9477:9481   */\n      0x00\n        /* \"#utility.yul\":9515:9517   */\n      0x20\n        /* \"#utility.yul\":9504:9513   */\n      dup3\n        /* \"#utility.yul\":9500:9518   */\n      add\n        /* \"#utility.yul\":9492:9518   */\n      swap1\n      pop\n        /* \"#utility.yul\":9564:9573   */\n      dup2\n        /* \"#utility.yul\":9558:9562   */\n      dup2\n        /* \"#utility.yul\":9554:9574   */\n      sub\n        /* \"#utility.yul\":9550:9551   */\n      0x00\n        /* \"#utility.yul\":9539:9548   */\n      dup4\n        /* \"#utility.yul\":9535:9552   */\n      add\n        /* \"#utility.yul\":9528:9575   */\n      mstore\n        /* \"#utility.yul\":9592:9723   */\n      tag_240\n        /* \"#utility.yul\":9718:9722   */\n      dup2\n        /* \"#utility.yul\":9592:9723   */\n      tag_163\n      jump\t// in\n    tag_240:\n        /* \"#utility.yul\":9584:9723   */\n      swap1\n      pop\n        /* \"#utility.yul\":9311:9730   */\n      swap2\n      swap1\n      pop\n      jump\t// out\n        /* \"#utility.yul\":9736:9918   */\n    tag_164:\n        /* \"#utility.yul\":9876:9910   */\n      0x416d6f756e74206d7573742062652067726561746572207468616e207a65726f\n        /* \"#utility.yul\":9872:9873   */\n      0x00\n        /* \"#utility.yul\":9864:9870   */\n      dup3\n        /* \"#utility.yul\":9860:9874   */\n      add\n        /* \"#utility.yul\":9853:9911   */\n      mstore\n        /* \"#utility.yul\":9736:9918   */\n      pop\n      jump\t// out\n        /* \"#utility.yul\":9924:10290   */\n    tag_165:\n        /* \"#utility.yul\":10066:10069   */\n      0x00\n        /* \"#utility.yul\":10087:10154   */\n      tag_243\n        /* \"#utility.yul\":10151:10153   */\n      0x20\n        /* \"#utility.yul\":10146:10149   */\n      dup4\n        /* \"#utility.yul\":10087:10154   */\n      tag_149\n      jump\t// in\n    tag_243:\n        /* \"#utility.yul\":10080:10154   */\n      swap2\n      pop\n        /* \"#utility.yul\":10163:10256   */\n      tag_244\n        /* \"#utility.yul\":10252:10255   */\n      dup3\n        /* \"#utility.yul\":10163:10256   */\n      tag_164\n      jump\t// in\n    tag_244:\n        /* \"#utility.yul\":10281:10283   */\n      0x20\n        /* \"#utility.yul\":10276:10279   */\n      dup3\n        /* \"#utility.yul\":10272:10284   */\n      add\n        /* \"#utility.yul\":10265:10284   */\n      swap1\n      pop\n        /* \"#utility.yul\":9924:10290   */\n      swap2\n      swap1\n      pop\n      jump\t// out\n        /* \"#utility.yul\":10296:10715   */\n    tag_116:\n        /* \"#utility.yul\":10462:10466   */\n      0x00\n        /* \"#utility.yul\":10500:10502   */\n      0x20\n        /* \"#utility.yul\":10489:10498   */\n      dup3\n        /* \"#utility.yul\":10485:10503   */\n      add\n        /* \"#utility.yul\":10477:10503   */\n      swap1\n      pop\n        /* \"#utility.yul\":10549:10558   */\n      dup2\n        /* \"#utility.yul\":10543:10547   */\n      dup2\n        /* \"#utility.yul\":10539:10559   */\n      sub\n        /* \"#utility.yul\":10535:10536   */\n      0x00\n        /* \"#utility.yul\":10524:10533   */\n      dup4\n        /* \"#utility.yul\":10520:10537   */\n      add\n        /* \"#utility.yul\":10513:10560   */\n      mstore\n        /* \"#utility.yul\":10577:10708   */\n      tag_246\n        /* \"#utility.yul\":10703:10707   */\n      dup2\n        /* \"#utility.yul\":10577:10708   */\n      tag_165\n      jump\t// in\n    tag_246:\n        /* \"#utility.yul\":10569:10708   */\n      swap1\n      pop\n        /* \"#utility.yul\":10296:10715   */\n      swap2\n      swap1\n      pop\n      jump\t// out\n        /* \"#utility.yul\":10721:10893   */\n    tag_166:\n        /* \"#utility.yul\":10861:10885   */\n      0x436f6e7472616374206973206e6f742061637469766500000000000000000000\n        /* \"#utility.yul\":10857:10858   */\n      0x00\n        /* \"#utility.yul\":10849:10855   */\n      dup3\n        /* \"#utility.yul\":10845:10859   */\n      add\n        /* \"#utility.yul\":10838:10886   */\n      mstore\n        /* \"#utility.yul\":10721:10893   */\n      pop\n      jump\t// out\n        /* \"#utility.yul\":10899:11265   */\n    tag_167:\n        /* \"#utility.yul\":11041:11044   */\n      0x00\n        /* \"#utility.yul\":11062:11129   */\n      tag_249\n        /* \"#utility.yul\":11126:11128   */\n      0x16\n        /* \"#utility.yul\":11121:11124   */\n      dup4\n        /* \"#utility.yul\":11062:11129   */\n      tag_149\n      jump\t// in\n    tag_249:\n        /* \"#utility.yul\":11055:11129   */\n      swap2\n      pop\n        /* \"#utility.yul\":11138:11231   */\n      tag_250\n        /* \"#utility.yul\":11227:11230   */\n      dup3\n        /* \"#utility.yul\":11138:11231   */\n      tag_166\n      jump\t// in\n    tag_250:\n        /* \"#utility.yul\":11256:11258   */\n      0x20\n        /* \"#utility.yul\":11251:11254   */\n      dup3\n        /* \"#utility.yul\":11247:11259   */\n      add\n        /* \"#utility.yul\":11240:11259   */\n      swap1\n      pop\n        /* \"#utility.yul\":10899:11265   */\n      swap2\n      swap1\n      pop\n      jump\t// out\n        /* \"#utility.yul\":11271:11690   */\n    tag_129:\n        /* \"#utility.yul\":11437:11441   */\n      0x00\n        /* \"#utility.yul\":11475:11477   */\n      0x20\n        /* \"#utility.yul\":11464:11473   */\n      dup3\n        /* \"#utility.yul\":11460:11478   */\n      add\n        /* \"#utility.yul\":11452:11478   */\n      swap1\n      pop\n        /* \"#utility.yul\":11524:11533   */\n      dup2\n        /* \"#utility.yul\":11518:11522   */\n      dup2\n        /* \"#utility.yul\":11514:11534   */\n      sub\n        /* \"#utility.yul\":11510:11511   */\n      0x00\n        /* \"#utility.yul\":11499:11508   */\n      dup4\n        /* \"#utility.yul\":11495:11512   */\n      add\n        /* \"#utility.yul\":11488:11535   */\n      mstore\n        /* \"#utility.yul\":11552:11683   */\n      tag_252\n        /* \"#utility.yul\":11678:11682   */\n      dup2\n        /* \"#utility.yul\":11552:11683   */\n      tag_167\n      jump\t// in\n    tag_252:\n        /* \"#utility.yul\":11544:11683   */\n      swap1\n      pop\n        /* \"#utility.yul\":11271:11690   */\n      swap2\n      swap1\n      pop\n      jump\t// out\n\n    auxdata: 0xa2646970667358221220026c66cc539eff825ce15d8ac97cbf17f575e085d5b6d49e83754a48370c86f464736f6c63430008190033\n}\n",
				"bytecode": {
					"linkReferences": {},
					"object": "60806040525f600460026101000a81548160ff021916908360028111156026576025606f565b5b02179055503360025f6101000a81548173ffffffffffffffffffffffffffffffffffffffff021916908373ffffffffffffffffffffffffffffffffffffffff160217905550609c565b7f4e487b71000000000000000000000000000000000000000000000000000000005f52602160045260245ffd5b610f0e806100a95f395ff3fe6080604052600436106100dc575f3560e01c80637150d8ae1161007e578063c6f221aa11610058578063c6f221aa14610250578063d0e30db01461027a578063e1f6c09814610284578063f6cb6ea8146102ae576100dc565b80637150d8ae146101d2578063995e770b146101fc578063a001ecdd14610226576100dc565b806324e6d8b4116100ba57806324e6d8b41461015e57806347a7846f1461017457806348a1335a1461019e5780635e10177b146101c8576100dc565b806308551a53146100e05780630c3f6acf1461010a578063166573e514610134575b5f80fd5b3480156100eb575f80fd5b506100f46102d8565b604051610101919061097f565b60405180910390f35b348015610115575f80fd5b5061011e6102fd565b60405161012b9190610a0b565b60405180910390f35b34801561013f575f80fd5b50610148610310565b6040516101559190610a3c565b60405180910390f35b348015610169575f80fd5b50610172610316565b005b34801561017f575f80fd5b5061018861043c565b6040516101959190610a3c565b60405180910390f35b3480156101a9575f80fd5b506101b2610442565b6040516101bf9190610a6f565b60405180910390f35b6101d0610454565b005b3480156101dd575f80fd5b506101e66105c1565b6040516101f3919061097f565b60405180910390f35b348015610207575f80fd5b506102106105e4565b60405161021d9190610a3c565b60405180910390f35b348015610231575f80fd5b5061023a6105ea565b6040516102479190610a3c565b60405180910390f35b34801561025b575f80fd5b506102646105f0565b6040516102719190610a3c565b60405180910390f35b6102826105f6565b005b34801561028f575f80fd5b5061029861073c565b6040516102a5919061097f565b60405180910390f35b3480156102b9575f80fd5b506102c2610761565b6040516102cf9190610a6f565b60405180910390f35b60015f9054906101000a900473ffffffffffffffffffffffffffffffffffffffff1681565b600460029054906101000a900460ff1681565b60055481565b5f8054906101000a900473ffffffffffffffffffffffffffffffffffffffff1673ffffffffffffffffffffffffffffffffffffffff163373ffffffffffffffffffffffffffffffffffffffff16146103a3576040517f08c379a000000000000000000000000000000000000000000000000000000000815260040161039a90610ae2565b60405180910390fd5b5f60028111156103b6576103b5610998565b5b600460029054906101000a900460ff1660028111156103d8576103d7610998565b5b14610418576040517f08c379a000000000000000000000000000000000000000000000000000000000815260040161040f90610b70565b60405180910390fd5b600160045f6101000a81548160ff02191690831515021790555061043a610774565b565b60035481565b60045f9054906101000a900460ff1681565b60015f9054906101000a900473ffffffffffffffffffffffffffffffffffffffff1673ffffffffffffffffffffffffffffffffffffffff163373ffffffffffffffffffffffffffffffffffffffff16146104e3576040517f08c379a00000000000000000000000000000000000000000000000000000000081526004016104da90610bfe565b60405180910390fd5b5f60028111156104f6576104f5610998565b5b600460029054906101000a900460ff16600281111561051857610517610998565b5b14610558576040517f08c379a000000000000000000000000000000000000000000000000000000000815260040161054f90610c66565b60405180910390fd5b600354341461059c576040517f08c379a000000000000000000000000000000000000000000000000000000000815260040161059390610cf4565b60405180910390fd5b6001600460016101000a81548160ff0219169083151502179055506105bf610774565b565b5f8054906101000a900473ffffffffffffffffffffffffffffffffffffffff1681565b60085481565b60065481565b60075481565b5f8054906101000a900473ffffffffffffffffffffffffffffffffffffffff1673ffffffffffffffffffffffffffffffffffffffff163373ffffffffffffffffffffffffffffffffffffffff1614610683576040517f08c379a000000000000000000000000000000000000000000000000000000000815260040161067a90610d5c565b60405180910390fd5b5f600281111561069657610695610998565b5b600460029054906101000a900460ff1660028111156106b8576106b7610998565b5b146106f8576040517f08c379a00000000000000000000000000000000000000000000000000000000081526004016106ef90610dea565b60405180910390fd5b5f341161073a576040517f08c379a000000000000000000000000000000000000000000000000000000000815260040161073190610e52565b60405180910390fd5b565b60025f9054906101000a900473ffffffffffffffffffffffffffffffffffffffff1681565b600460019054906101000a900460ff1681565b60045f9054906101000a900460ff16801561079b5750600460019054906101000a900460ff165b156107a9576107a86107ab565b5b565b5f60028111156107be576107bd610998565b5b600460029054906101000a900460ff1660028111156107e0576107df610998565b5b14610820576040517f08c379a000000000000000000000000000000000000000000000000000000000815260040161081790610eba565b60405180910390fd5b6001600281111561083457610833610998565b5b600460029054906101000a900460ff16600281111561085657610855610998565b5b1461085f575f80fd5b60015f9054906101000a900473ffffffffffffffffffffffffffffffffffffffff1673ffffffffffffffffffffffffffffffffffffffff166108fc60035490811502906040515f60405180830381858888f193505050501580156108c5573d5f803e3d5ffd5b505f60038190555060015f9054906101000a900473ffffffffffffffffffffffffffffffffffffffff1673ffffffffffffffffffffffffffffffffffffffff167f221c08a06b07a64803b3787861a3f276212fcccb51c2e6234077a9b8cb13047a6003546040516109369190610a3c565b60405180910390a2565b5f73ffffffffffffffffffffffffffffffffffffffff82169050919050565b5f61096982610940565b9050919050565b6109798161095f565b82525050565b5f6020820190506109925f830184610970565b92915050565b7f4e487b71000000000000000000000000000000000000000000000000000000005f52602160045260245ffd5b600381106109d6576109d5610998565b5b50565b5f8190506109e6826109c5565b919050565b5f6109f5826109d9565b9050919050565b610a05816109eb565b82525050565b5f602082019050610a1e5f8301846109fc565b92915050565b5f819050919050565b610a3681610a24565b82525050565b5f602082019050610a4f5f830184610a2d565b92915050565b5f8115159050919050565b610a6981610a55565b82525050565b5f602082019050610a825f830184610a60565b92915050565b5f82825260208201905092915050565b7f4f6e6c792062757965722063616e20636f6e6669726d2064656c697665726c795f82015250565b5f610acc602083610a88565b9150610ad782610a98565b602082019050919050565b5f6020820190508181035f830152610af981610ac0565b9050919050565b7f436f6e7472616374206d75737420626520696e206163746976652073746174655f8201527f20746f20636f6e6669726d2064656c697665726c790000000000000000000000602082015250565b5f610b5a603583610a88565b9150610b6582610b00565b604082019050919050565b5f6020820190508181035f830152610b8781610b4e565b9050919050565b7f4f6e6c792073656c6c65722063616e20636f6e6469726d2064656c697665726c5f8201527f7900000000000000000000000000000000000000000000000000000000000000602082015250565b5f610be8602183610a88565b9150610bf382610b8e565b604082019050919050565b5f6020820190508181035f830152610c1581610bdc565b9050919050565b7f436f6e74726163742068617320746f20626520616374697665000000000000005f82015250565b5f610c50601983610a88565b9150610c5b82610c1c565b602082019050919050565b5f6020820190508181035f830152610c7d81610c44565b9050919050565b7f436f6e747261637420616d6f756e742068617320746f207061696420696e20665f8201527f756c6c0000000000000000000000000000000000000000000000000000000000602082015250565b5f610cde602383610a88565b9150610ce982610c84565b604082019050919050565b5f6020820190508181035f830152610d0b81610cd2565b9050919050565b7f4f6e6c792062757965722063616e206465706f7369742066756e6473000000005f82015250565b5f610d46601c83610a88565b9150610d5182610d12565b602082019050919050565b5f6020820190508181035f830152610d7381610d3a565b9050919050565b7f436f6e7472616374206d75737420626520696e206163746976652073746174655f8201527f20746f206465706f7369742066756e6473000000000000000000000000000000602082015250565b5f610dd4603183610a88565b9150610ddf82610d7a565b604082019050919050565b5f6020820190508181035f830152610e0181610dc8565b9050919050565b7f416d6f756e74206d7573742062652067726561746572207468616e207a65726f5f82015250565b5f610e3c602083610a88565b9150610e4782610e08565b602082019050919050565b5f6020820190508181035f830152610e6981610e30565b9050919050565b7f436f6e7472616374206973206e6f7420616374697665000000000000000000005f82015250565b5f610ea4601683610a88565b9150610eaf82610e70565b602082019050919050565b5f6020820190508181035f830152610ed181610e98565b905091905056fea2646970667358221220026c66cc539eff825ce15d8ac97cbf17f575e085d5b6d49e83754a48370c86f464736f6c63430008190033",
					"opcodes": "PUSH1 0x80 PUSH1 0x40 MSTORE PUSH0 PUSH1 0x4 PUSH1 0x2 PUSH2 0x100 EXP DUP2 SLOAD DUP2 PUSH1 0xFF MUL NOT AND SWAP1 DUP4 PUSH1 0x2 DUP2 GT ISZERO PUSH1 0x26 JUMPI PUSH1 0x25 PUSH1 0x6F JUMP JUMPDEST JUMPDEST MUL OR SWAP1 SSTORE POP CALLER PUSH1 0x2 PUSH0 PUSH2 0x100 EXP DUP2 SLOAD DUP2 PUSH20 0xFFFFFFFFFFFFFFFFFFFFFFFFFFFFFFFFFFFFFFFF MUL NOT AND SWAP1 DUP4 PUSH20 0xFFFFFFFFFFFFFFFFFFFFFFFFFFFFFFFFFFFFFFFF AND MUL OR SWAP1 SSTORE POP PUSH1 0x9C JUMP JUMPDEST PUSH32 0x4E487B7100000000000000000000000000000000000000000000000000000000 PUSH0 MSTORE PUSH1 0x21 PUSH1 0x4 MSTORE PUSH1 0x24 PUSH0 REVERT JUMPDEST PUSH2 0xF0E DUP1 PUSH2 0xA9 PUSH0 CODECOPY PUSH0 RETURN INVALID PUSH1 0x80 PUSH1 0x40 MSTORE PUSH1 0x4 CALLDATASIZE LT PUSH2 0xDC JUMPI PUSH0 CALLDATALOAD PUSH1 0xE0 SHR DUP1 PUSH4 0x7150D8AE GT PUSH2 0x7E JUMPI DUP1 PUSH4 0xC6F221AA GT PUSH2 0x58 JUMPI DUP1 PUSH4 0xC6F221AA EQ PUSH2 0x250 JUMPI DUP1 PUSH4 0xD0E30DB0 EQ PUSH2 0x27A JUMPI DUP1 PUSH4 0xE1F6C098 EQ PUSH2 0x284 JUMPI DUP1 PUSH4 0xF6CB6EA8 EQ PUSH2 0x2AE JUMPI PUSH2 0xDC JUMP JUMPDEST DUP1 PUSH4 0x7150D8AE EQ PUSH2 0x1D2 JUMPI DUP1 PUSH4 0x995E770B EQ PUSH2 0x1FC JUMPI DUP1 PUSH4 0xA001ECDD EQ PUSH2 0x226 JUMPI PUSH2 0xDC JUMP JUMPDEST DUP1 PUSH4 0x24E6D8B4 GT PUSH2 0xBA JUMPI DUP1 PUSH4 0x24E6D8B4 EQ PUSH2 0x15E JUMPI DUP1 PUSH4 0x47A7846F EQ PUSH2 0x174 JUMPI DUP1 PUSH4 0x48A1335A EQ PUSH2 0x19E JUMPI DUP1 PUSH4 0x5E10177B EQ PUSH2 0x1C8 JUMPI PUSH2 0xDC JUMP JUMPDEST DUP1 PUSH4 0x8551A53 EQ PUSH2 0xE0 JUMPI DUP1 PUSH4 0xC3F6ACF EQ PUSH2 0x10A JUMPI DUP1 PUSH4 0x166573E5 EQ PUSH2 0x134 JUMPI JUMPDEST PUSH0 DUP1 REVERT JUMPDEST CALLVALUE DUP1 ISZERO PUSH2 0xEB JUMPI PUSH0 DUP1 REVERT JUMPDEST POP PUSH2 0xF4 PUSH2 0x2D8 JUMP JUMPDEST PUSH1 0x40 MLOAD PUSH2 0x101 SWAP2 SWAP1 PUSH2 0x97F JUMP JUMPDEST PUSH1 0x40 MLOAD DUP1 SWAP2 SUB SWAP1 RETURN JUMPDEST CALLVALUE DUP1 ISZERO PUSH2 0x115 JUMPI PUSH0 DUP1 REVERT JUMPDEST POP PUSH2 0x11E PUSH2 0x2FD JUMP JUMPDEST PUSH1 0x40 MLOAD PUSH2 0x12B SWAP2 SWAP1 PUSH2 0xA0B JUMP JUMPDEST PUSH1 0x40 MLOAD DUP1 SWAP2 SUB SWAP1 RETURN JUMPDEST CALLVALUE DUP1 ISZERO PUSH2 0x13F JUMPI PUSH0 DUP1 REVERT JUMPDEST POP PUSH2 0x148 PUSH2 0x310 JUMP JUMPDEST PUSH1 0x40 MLOAD PUSH2 0x155 SWAP2 SWAP1 PUSH2 0xA3C JUMP JUMPDEST PUSH1 0x40 MLOAD DUP1 SWAP2 SUB SWAP1 RETURN JUMPDEST CALLVALUE DUP1 ISZERO PUSH2 0x169 JUMPI PUSH0 DUP1 REVERT JUMPDEST POP PUSH2 0x172 PUSH2 0x316 JUMP JUMPDEST STOP JUMPDEST CALLVALUE DUP1 ISZERO PUSH2 0x17F JUMPI PUSH0 DUP1 REVERT JUMPDEST POP PUSH2 0x188 PUSH2 0x43C JUMP JUMPDEST PUSH1 0x40 MLOAD PUSH2 0x195 SWAP2 SWAP1 PUSH2 0xA3C JUMP JUMPDEST PUSH1 0x40 MLOAD DUP1 SWAP2 SUB SWAP1 RETURN JUMPDEST CALLVALUE DUP1 ISZERO PUSH2 0x1A9 JUMPI PUSH0 DUP1 REVERT JUMPDEST POP PUSH2 0x1B2 PUSH2 0x442 JUMP JUMPDEST PUSH1 0x40 MLOAD PUSH2 0x1BF SWAP2 SWAP1 PUSH2 0xA6F JUMP JUMPDEST PUSH1 0x40 MLOAD DUP1 SWAP2 SUB SWAP1 RETURN JUMPDEST PUSH2 0x1D0 PUSH2 0x454 JUMP JUMPDEST STOP JUMPDEST CALLVALUE DUP1 ISZERO PUSH2 0x1DD JUMPI PUSH0 DUP1 REVERT JUMPDEST POP PUSH2 0x1E6 PUSH2 0x5C1 JUMP JUMPDEST PUSH1 0x40 MLOAD PUSH2 0x1F3 SWAP2 SWAP1 PUSH2 0x97F JUMP JUMPDEST PUSH1 0x40 MLOAD DUP1 SWAP2 SUB SWAP1 RETURN JUMPDEST CALLVALUE DUP1 ISZERO PUSH2 0x207 JUMPI PUSH0 DUP1 REVERT JUMPDEST POP PUSH2 0x210 PUSH2 0x5E4 JUMP JUMPDEST PUSH1 0x40 MLOAD PUSH2 0x21D SWAP2 SWAP1 PUSH2 0xA3C JUMP JUMPDEST PUSH1 0x40 MLOAD DUP1 SWAP2 SUB SWAP1 RETURN JUMPDEST CALLVALUE DUP1 ISZERO PUSH2 0x231 JUMPI PUSH0 DUP1 REVERT JUMPDEST POP PUSH2 0x23A PUSH2 0x5EA JUMP JUMPDEST PUSH1 0x40 MLOAD PUSH2 0x247 SWAP2 SWAP1 PUSH2 0xA3C JUMP JUMPDEST PUSH1 0x40 MLOAD DUP1 SWAP2 SUB SWAP1 RETURN JUMPDEST CALLVALUE DUP1 ISZERO PUSH2 0x25B JUMPI PUSH0 DUP1 REVERT JUMPDEST POP PUSH2 0x264 PUSH2 0x5F0 JUMP JUMPDEST PUSH1 0x40 MLOAD PUSH2 0x271 SWAP2 SWAP1 PUSH2 0xA3C JUMP JUMPDEST PUSH1 0x40 MLOAD DUP1 SWAP2 SUB SWAP1 RETURN JUMPDEST PUSH2 0x282 PUSH2 0x5F6 JUMP JUMPDEST STOP JUMPDEST CALLVALUE DUP1 ISZERO PUSH2 0x28F JUMPI PUSH0 DUP1 REVERT JUMPDEST POP PUSH2 0x298 PUSH2 0x73C JUMP JUMPDEST PUSH1 0x40 MLOAD PUSH2 0x2A5 SWAP2 SWAP1 PUSH2 0x97F JUMP JUMPDEST PUSH1 0x40 MLOAD DUP1 SWAP2 SUB SWAP1 RETURN JUMPDEST CALLVALUE DUP1 ISZERO PUSH2 0x2B9 JUMPI PUSH0 DUP1 REVERT JUMPDEST POP PUSH2 0x2C2 PUSH2 0x761 JUMP JUMPDEST PUSH1 0x40 MLOAD PUSH2 0x2CF SWAP2 SWAP1 PUSH2 0xA6F JUMP JUMPDEST PUSH1 0x40 MLOAD DUP1 SWAP2 SUB SWAP1 RETURN JUMPDEST PUSH1 0x1 PUSH0 SWAP1 SLOAD SWAP1 PUSH2 0x100 EXP SWAP1 DIV PUSH20 0xFFFFFFFFFFFFFFFFFFFFFFFFFFFFFFFFFFFFFFFF AND DUP2 JUMP JUMPDEST PUSH1 0x4 PUSH1 0x2 SWAP1 SLOAD SWAP1 PUSH2 0x100 EXP SWAP1 DIV PUSH1 0xFF AND DUP2 JUMP JUMPDEST PUSH1 0x5 SLOAD DUP2 JUMP JUMPDEST PUSH0 DUP1 SLOAD SWAP1 PUSH2 0x100 EXP SWAP1 DIV PUSH20 0xFFFFFFFFFFFFFFFFFFFFFFFFFFFFFFFFFFFFFFFF AND PUSH20 0xFFFFFFFFFFFFFFFFFFFFFFFFFFFFFFFFFFFFFFFF AND CALLER PUSH20 0xFFFFFFFFFFFFFFFFFFFFFFFFFFFFFFFFFFFFFFFF AND EQ PUSH2 0x3A3 JUMPI PUSH1 0x40 MLOAD PUSH32 0x8C379A000000000000000000000000000000000000000000000000000000000 DUP2 MSTORE PUSH1 0x4 ADD PUSH2 0x39A SWAP1 PUSH2 0xAE2 JUMP JUMPDEST PUSH1 0x40 MLOAD DUP1 SWAP2 SUB SWAP1 REVERT JUMPDEST PUSH0 PUSH1 0x2 DUP2 GT ISZERO PUSH2 0x3B6 JUMPI PUSH2 0x3B5 PUSH2 0x998 JUMP JUMPDEST JUMPDEST PUSH1 0x4 PUSH1 0x2 SWAP1 SLOAD SWAP1 PUSH2 0x100 EXP SWAP1 DIV PUSH1 0xFF AND PUSH1 0x2 DUP2 GT ISZERO PUSH2 0x3D8 JUMPI PUSH2 0x3D7 PUSH2 0x998 JUMP JUMPDEST JUMPDEST EQ PUSH2 0x418 JUMPI PUSH1 0x40 MLOAD PUSH32 0x8C379A000000000000000000000000000000000000000000000000000000000 DUP2 MSTORE PUSH1 0x4 ADD PUSH2 0x40F SWAP1 PUSH2 0xB70 JUMP JUMPDEST PUSH1 0x40 MLOAD DUP1 SWAP2 SUB SWAP1 REVERT JUMPDEST PUSH1 0x1 PUSH1 0x4 PUSH0 PUSH2 0x100 EXP DUP2 SLOAD DUP2 PUSH1 0xFF MUL NOT AND SWAP1 DUP4 ISZERO ISZERO MUL OR SWAP1 SSTORE POP PUSH2 0x43A PUSH2 0x774 JUMP JUMPDEST JUMP JUMPDEST PUSH1 0x3 SLOAD DUP2 JUMP JUMPDEST PUSH1 0x4 PUSH0 SWAP1 SLOAD SWAP1 PUSH2 0x100 EXP SWAP1 DIV PUSH1 0xFF AND DUP2 JUMP JUMPDEST PUSH1 0x1 PUSH0 SWAP1 SLOAD SWAP1 PUSH2 0x100 EXP SWAP1 DIV PUSH20 0xFFFFFFFFFFFFFFFFFFFFFFFFFFFFFFFFFFFFFFFF AND PUSH20 0xFFFFFFFFFFFFFFFFFFFFFFFFFFFFFFFFFFFFFFFF AND CALLER PUSH20 0xFFFFFFFFFFFFFFFFFFFFFFFFFFFFFFFFFFFFFFFF AND EQ PUSH2 0x4E3 JUMPI PUSH1 0x40 MLOAD PUSH32 0x8C379A000000000000000000000000000000000000000000000000000000000 DUP2 MSTORE PUSH1 0x4 ADD PUSH2 0x4DA SWAP1 PUSH2 0xBFE JUMP JUMPDEST PUSH1 0x40 MLOAD DUP1 SWAP2 SUB SWAP1 REVERT JUMPDEST PUSH0 PUSH1 0x2 DUP2 GT ISZERO PUSH2 0x4F6 JUMPI PUSH2 0x4F5 PUSH2 0x998 JUMP JUMPDEST JUMPDEST PUSH1 0x4 PUSH1 0x2 SWAP1 SLOAD SWAP1 PUSH2 0x100 EXP SWAP1 DIV PUSH1 0xFF AND PUSH1 0x2 DUP2 GT ISZERO PUSH2 0x518 JUMPI PUSH2 0x517 PUSH2 0x998 JUMP JUMPDEST JUMPDEST EQ PUSH2 0x558 JUMPI PUSH1 0x40 MLOAD PUSH32 0x8C379A000000000000000000000000000000000000000000000000000000000 DUP2 MSTORE PUSH1 0x4 ADD PUSH2 0x54F SWAP1 PUSH2 0xC66 JUMP JUMPDEST PUSH1 0x40 MLOAD DUP1 SWAP2 SUB SWAP1 REVERT JUMPDEST PUSH1 0x3 SLOAD CALLVALUE EQ PUSH2 0x59C JUMPI PUSH1 0x40 MLOAD PUSH32 0x8C379A000000000000000000000000000000000000000000000000000000000 DUP2 MSTORE PUSH1 0x4 ADD PUSH2 0x593 SWAP1 PUSH2 0xCF4 JUMP JUMPDEST PUSH1 0x40 MLOAD DUP1 SWAP2 SUB SWAP1 REVERT JUMPDEST PUSH1 0x1 PUSH1 0x4 PUSH1 0x1 PUSH2 0x100 EXP DUP2 SLOAD DUP2 PUSH1 0xFF MUL NOT AND SWAP1 DUP4 ISZERO ISZERO MUL OR SWAP1 SSTORE POP PUSH2 0x5BF PUSH2 0x774 JUMP JUMPDEST JUMP JUMPDEST PUSH0 DUP1 SLOAD SWAP1 PUSH2 0x100 EXP SWAP1 DIV PUSH20 0xFFFFFFFFFFFFFFFFFFFFFFFFFFFFFFFFFFFFFFFF AND DUP2 JUMP JUMPDEST PUSH1 0x8 SLOAD DUP2 JUMP JUMPDEST PUSH1 0x6 SLOAD DUP2 JUMP JUMPDEST PUSH1 0x7 SLOAD DUP2 JUMP JUMPDEST PUSH0 DUP1 SLOAD SWAP1 PUSH2 0x100 EXP SWAP1 DIV PUSH20 0xFFFFFFFFFFFFFFFFFFFFFFFFFFFFFFFFFFFFFFFF AND PUSH20 0xFFFFFFFFFFFFFFFFFFFFFFFFFFFFFFFFFFFFFFFF AND CALLER PUSH20 0xFFFFFFFFFFFFFFFFFFFFFFFFFFFFFFFFFFFFFFFF AND EQ PUSH2 0x683 JUMPI PUSH1 0x40 MLOAD PUSH32 0x8C379A000000000000000000000000000000000000000000000000000000000 DUP2 MSTORE PUSH1 0x4 ADD PUSH2 0x67A SWAP1 PUSH2 0xD5C JUMP JUMPDEST PUSH1 0x40 MLOAD DUP1 SWAP2 SUB SWAP1 REVERT JUMPDEST PUSH0 PUSH1 0x2 DUP2 GT ISZERO PUSH2 0x696 JUMPI PUSH2 0x695 PUSH2 0x998 JUMP JUMPDEST JUMPDEST PUSH1 0x4 PUSH1 0x2 SWAP1 SLOAD SWAP1 PUSH2 0x100 EXP SWAP1 DIV PUSH1 0xFF AND PUSH1 0x2 DUP2 GT ISZERO PUSH2 0x6B8 JUMPI PUSH2 0x6B7 PUSH2 0x998 JUMP JUMPDEST JUMPDEST EQ PUSH2 0x6F8 JUMPI PUSH1 0x40 MLOAD PUSH32 0x8C379A000000000000000000000000000000000000000000000000000000000 DUP2 MSTORE PUSH1 0x4 ADD PUSH2 0x6EF SWAP1 PUSH2 0xDEA JUMP JUMPDEST PUSH1 0x40 MLOAD DUP1 SWAP2 SUB SWAP1 REVERT JUMPDEST PUSH0 CALLVALUE GT PUSH2 0x73A JUMPI PUSH1 0x40 MLOAD PUSH32 0x8C379A000000000000000000000000000000000000000000000000000000000 DUP2 MSTORE PUSH1 0x4 ADD PUSH2 0x731 SWAP1 PUSH2 0xE52 JUMP JUMPDEST PUSH1 0x40 MLOAD DUP1 SWAP2 SUB SWAP1 REVERT JUMPDEST JUMP JUMPDEST PUSH1 0x2 PUSH0 SWAP1 SLOAD SWAP1 PUSH2 0x100 EXP SWAP1 DIV PUSH20 0xFFFFFFFFFFFFFFFFFFFFFFFFFFFFFFFFFFFFFFFF AND DUP2 JUMP JUMPDEST PUSH1 0x4 PUSH1 0x1 SWAP1 SLOAD SWAP1 PUSH2 0x100 EXP SWAP1 DIV PUSH1 0xFF AND DUP2 JUMP JUMPDEST PUSH1 0x4 PUSH0 SWAP1 SLOAD SWAP1 PUSH2 0x100 EXP SWAP1 DIV PUSH1 0xFF AND DUP1 ISZERO PUSH2 0x79B JUMPI POP PUSH1 0x4 PUSH1 0x1 SWAP1 SLOAD SWAP1 PUSH2 0x100 EXP SWAP1 DIV PUSH1 0xFF AND JUMPDEST ISZERO PUSH2 0x7A9 JUMPI PUSH2 0x7A8 PUSH2 0x7AB JUMP JUMPDEST JUMPDEST JUMP JUMPDEST PUSH0 PUSH1 0x2 DUP2 GT ISZERO PUSH2 0x7BE JUMPI PUSH2 0x7BD PUSH2 0x998 JUMP JUMPDEST JUMPDEST PUSH1 0x4 PUSH1 0x2 SWAP1 SLOAD SWAP1 PUSH2 0x100 EXP SWAP1 DIV PUSH1 0xFF AND PUSH1 0x2 DUP2 GT ISZERO PUSH2 0x7E0 JUMPI PUSH2 0x7DF PUSH2 0x998 JUMP JUMPDEST JUMPDEST EQ PUSH2 0x820 JUMPI PUSH1 0x40 MLOAD PUSH32 0x8C379A000000000000000000000000000000000000000000000000000000000 DUP2 MSTORE PUSH1 0x4 ADD PUSH2 0x817 SWAP1 PUSH2 0xEBA JUMP JUMPDEST PUSH1 0x40 MLOAD DUP1 SWAP2 SUB SWAP1 REVERT JUMPDEST PUSH1 0x1 PUSH1 0x2 DUP2 GT ISZERO PUSH2 0x834 JUMPI PUSH2 0x833 PUSH2 0x998 JUMP JUMPDEST JUMPDEST PUSH1 0x4 PUSH1 0x2 SWAP1 SLOAD SWAP1 PUSH2 0x100 EXP SWAP1 DIV PUSH1 0xFF AND PUSH1 0x2 DUP2 GT ISZERO PUSH2 0x856 JUMPI PUSH2 0x855 PUSH2 0x998 JUMP JUMPDEST JUMPDEST EQ PUSH2 0x85F JUMPI PUSH0 DUP1 REVERT JUMPDEST PUSH1 0x1 PUSH0 SWAP1 SLOAD SWAP1 PUSH2 0x100 EXP SWAP1 DIV PUSH20 0xFFFFFFFFFFFFFFFFFFFFFFFFFFFFFFFFFFFFFFFF AND PUSH20 0xFFFFFFFFFFFFFFFFFFFFFFFFFFFFFFFFFFFFFFFF AND PUSH2 0x8FC PUSH1 0x3 SLOAD SWAP1 DUP2 ISZERO MUL SWAP1 PUSH1 0x40 MLOAD PUSH0 PUSH1 0x40 MLOAD DUP1 DUP4 SUB DUP2 DUP6 DUP9 DUP9 CALL SWAP4 POP POP POP POP ISZERO DUP1 ISZERO PUSH2 0x8C5 JUMPI RETURNDATASIZE PUSH0 DUP1 RETURNDATACOPY RETURNDATASIZE PUSH0 REVERT JUMPDEST POP PUSH0 PUSH1 0x3 DUP2 SWAP1 SSTORE POP PUSH1 0x1 PUSH0 SWAP1 SLOAD SWAP1 PUSH2 0x100 EXP SWAP1 DIV PUSH20 0xFFFFFFFFFFFFFFFFFFFFFFFFFFFFFFFFFFFFFFFF AND PUSH20 0xFFFFFFFFFFFFFFFFFFFFFFFFFFFFFFFFFFFFFFFF AND PUSH32 0x221C08A06B07A64803B3787861A3F276212FCCCB51C2E6234077A9B8CB13047A PUSH1 0x3 SLOAD PUSH1 0x40 MLOAD PUSH2 0x936 SWAP2 SWAP1 PUSH2 0xA3C JUMP JUMPDEST PUSH1 0x40 MLOAD DUP1 SWAP2 SUB SWAP1 LOG2 JUMP JUMPDEST PUSH0 PUSH20 0xFFFFFFFFFFFFFFFFFFFFFFFFFFFFFFFFFFFFFFFF DUP3 AND SWAP1 POP SWAP2 SWAP1 POP JUMP JUMPDEST PUSH0 PUSH2 0x969 DUP3 PUSH2 0x940 JUMP JUMPDEST SWAP1 POP SWAP2 SWAP1 POP JUMP JUMPDEST PUSH2 0x979 DUP2 PUSH2 0x95F JUMP JUMPDEST DUP3 MSTORE POP POP JUMP JUMPDEST PUSH0 PUSH1 0x20 DUP3 ADD SWAP1 POP PUSH2 0x992 PUSH0 DUP4 ADD DUP5 PUSH2 0x970 JUMP JUMPDEST SWAP3 SWAP2 POP POP JUMP JUMPDEST PUSH32 0x4E487B7100000000000000000000000000000000000000000000000000000000 PUSH0 MSTORE PUSH1 0x21 PUSH1 0x4 MSTORE PUSH1 0x24 PUSH0 REVERT JUMPDEST PUSH1 0x3 DUP2 LT PUSH2 0x9D6 JUMPI PUSH2 0x9D5 PUSH2 0x998 JUMP JUMPDEST JUMPDEST POP JUMP JUMPDEST PUSH0 DUP2 SWAP1 POP PUSH2 0x9E6 DUP3 PUSH2 0x9C5 JUMP JUMPDEST SWAP2 SWAP1 POP JUMP JUMPDEST PUSH0 PUSH2 0x9F5 DUP3 PUSH2 0x9D9 JUMP JUMPDEST SWAP1 POP SWAP2 SWAP1 POP JUMP JUMPDEST PUSH2 0xA05 DUP2 PUSH2 0x9EB JUMP JUMPDEST DUP3 MSTORE POP POP JUMP JUMPDEST PUSH0 PUSH1 0x20 DUP3 ADD SWAP1 POP PUSH2 0xA1E PUSH0 DUP4 ADD DUP5 PUSH2 0x9FC JUMP JUMPDEST SWAP3 SWAP2 POP POP JUMP JUMPDEST PUSH0 DUP2 SWAP1 POP SWAP2 SWAP1 POP JUMP JUMPDEST PUSH2 0xA36 DUP2 PUSH2 0xA24 JUMP JUMPDEST DUP3 MSTORE POP POP JUMP JUMPDEST PUSH0 PUSH1 0x20 DUP3 ADD SWAP1 POP PUSH2 0xA4F PUSH0 DUP4 ADD DUP5 PUSH2 0xA2D JUMP JUMPDEST SWAP3 SWAP2 POP POP JUMP JUMPDEST PUSH0 DUP2 ISZERO ISZERO SWAP1 POP SWAP2 SWAP1 POP JUMP JUMPDEST PUSH2 0xA69 DUP2 PUSH2 0xA55 JUMP JUMPDEST DUP3 MSTORE POP POP JUMP JUMPDEST PUSH0 PUSH1 0x20 DUP3 ADD SWAP1 POP PUSH2 0xA82 PUSH0 DUP4 ADD DUP5 PUSH2 0xA60 JUMP JUMPDEST SWAP3 SWAP2 POP POP JUMP JUMPDEST PUSH0 DUP3 DUP3 MSTORE PUSH1 0x20 DUP3 ADD SWAP1 POP SWAP3 SWAP2 POP POP JUMP JUMPDEST PUSH32 0x4F6E6C792062757965722063616E20636F6E6669726D2064656C697665726C79 PUSH0 DUP3 ADD MSTORE POP JUMP JUMPDEST PUSH0 PUSH2 0xACC PUSH1 0x20 DUP4 PUSH2 0xA88 JUMP JUMPDEST SWAP2 POP PUSH2 0xAD7 DUP3 PUSH2 0xA98 JUMP JUMPDEST PUSH1 0x20 DUP3 ADD SWAP1 POP SWAP2 SWAP1 POP JUMP JUMPDEST PUSH0 PUSH1 0x20 DUP3 ADD SWAP1 POP DUP2 DUP2 SUB PUSH0 DUP4 ADD MSTORE PUSH2 0xAF9 DUP2 PUSH2 0xAC0 JUMP JUMPDEST SWAP1 POP SWAP2 SWAP1 POP JUMP JUMPDEST PUSH32 0x436F6E7472616374206D75737420626520696E20616374697665207374617465 PUSH0 DUP3 ADD MSTORE PUSH32 0x20746F20636F6E6669726D2064656C697665726C790000000000000000000000 PUSH1 0x20 DUP3 ADD MSTORE POP JUMP JUMPDEST PUSH0 PUSH2 0xB5A PUSH1 0x35 DUP4 PUSH2 0xA88 JUMP JUMPDEST SWAP2 POP PUSH2 0xB65 DUP3 PUSH2 0xB00 JUMP JUMPDEST PUSH1 0x40 DUP3 ADD SWAP1 POP SWAP2 SWAP1 POP JUMP JUMPDEST PUSH0 PUSH1 0x20 DUP3 ADD SWAP1 POP DUP2 DUP2 SUB PUSH0 DUP4 ADD MSTORE PUSH2 0xB87 DUP2 PUSH2 0xB4E JUMP JUMPDEST SWAP1 POP SWAP2 SWAP1 POP JUMP JUMPDEST PUSH32 0x4F6E6C792073656C6C65722063616E20636F6E6469726D2064656C697665726C PUSH0 DUP3 ADD MSTORE PUSH32 0x7900000000000000000000000000000000000000000000000000000000000000 PUSH1 0x20 DUP3 ADD MSTORE POP JUMP JUMPDEST PUSH0 PUSH2 0xBE8 PUSH1 0x21 DUP4 PUSH2 0xA88 JUMP JUMPDEST SWAP2 POP PUSH2 0xBF3 DUP3 PUSH2 0xB8E JUMP JUMPDEST PUSH1 0x40 DUP3 ADD SWAP1 POP SWAP2 SWAP1 POP JUMP JUMPDEST PUSH0 PUSH1 0x20 DUP3 ADD SWAP1 POP DUP2 DUP2 SUB PUSH0 DUP4 ADD MSTORE PUSH2 0xC15 DUP2 PUSH2 0xBDC JUMP JUMPDEST SWAP1 POP SWAP2 SWAP1 POP JUMP JUMPDEST PUSH32 0x436F6E74726163742068617320746F2062652061637469766500000000000000 PUSH0 DUP3 ADD MSTORE POP JUMP JUMPDEST PUSH0 PUSH2 0xC50 PUSH1 0x19 DUP4 PUSH2 0xA88 JUMP JUMPDEST SWAP2 POP PUSH2 0xC5B DUP3 PUSH2 0xC1C JUMP JUMPDEST PUSH1 0x20 DUP3 ADD SWAP1 POP SWAP2 SWAP1 POP JUMP JUMPDEST PUSH0 PUSH1 0x20 DUP3 ADD SWAP1 POP DUP2 DUP2 SUB PUSH0 DUP4 ADD MSTORE PUSH2 0xC7D DUP2 PUSH2 0xC44 JUMP JUMPDEST SWAP1 POP SWAP2 SWAP1 POP JUMP JUMPDEST PUSH32 0x436F6E747261637420616D6F756E742068617320746F207061696420696E2066 PUSH0 DUP3 ADD MSTORE PUSH32 0x756C6C0000000000000000000000000000000000000000000000000000000000 PUSH1 0x20 DUP3 ADD MSTORE POP JUMP JUMPDEST PUSH0 PUSH2 0xCDE PUSH1 0x23 DUP4 PUSH2 0xA88 JUMP JUMPDEST SWAP2 POP PUSH2 0xCE9 DUP3 PUSH2 0xC84 JUMP JUMPDEST PUSH1 0x40 DUP3 ADD SWAP1 POP SWAP2 SWAP1 POP JUMP JUMPDEST PUSH0 PUSH1 0x20 DUP3 ADD SWAP1 POP DUP2 DUP2 SUB PUSH0 DUP4 ADD MSTORE PUSH2 0xD0B DUP2 PUSH2 0xCD2 JUMP JUMPDEST SWAP1 POP SWAP2 SWAP1 POP JUMP JUMPDEST PUSH32 0x4F6E6C792062757965722063616E206465706F7369742066756E647300000000 PUSH0 DUP3 ADD MSTORE POP JUMP JUMPDEST PUSH0 PUSH2 0xD46 PUSH1 0x1C DUP4 PUSH2 0xA88 JUMP JUMPDEST SWAP2 POP PUSH2 0xD51 DUP3 PUSH2 0xD12 JUMP JUMPDEST PUSH1 0x20 DUP3 ADD SWAP1 POP SWAP2 SWAP1 POP JUMP JUMPDEST PUSH0 PUSH1 0x20 DUP3 ADD SWAP1 POP DUP2 DUP2 SUB PUSH0 DUP4 ADD MSTORE PUSH2 0xD73 DUP2 PUSH2 0xD3A JUMP JUMPDEST SWAP1 POP SWAP2 SWAP1 POP JUMP JUMPDEST PUSH32 0x436F6E7472616374206D75737420626520696E20616374697665207374617465 PUSH0 DUP3 ADD MSTORE PUSH32 0x20746F206465706F7369742066756E6473000000000000000000000000000000 PUSH1 0x20 DUP3 ADD MSTORE POP JUMP JUMPDEST PUSH0 PUSH2 0xDD4 PUSH1 0x31 DUP4 PUSH2 0xA88 JUMP JUMPDEST SWAP2 POP PUSH2 0xDDF DUP3 PUSH2 0xD7A JUMP JUMPDEST PUSH1 0x40 DUP3 ADD SWAP1 POP SWAP2 SWAP1 POP JUMP JUMPDEST PUSH0 PUSH1 0x20 DUP3 ADD SWAP1 POP DUP2 DUP2 SUB PUSH0 DUP4 ADD MSTORE PUSH2 0xE01 DUP2 PUSH2 0xDC8 JUMP JUMPDEST SWAP1 POP SWAP2 SWAP1 POP JUMP JUMPDEST PUSH32 0x416D6F756E74206D7573742062652067726561746572207468616E207A65726F PUSH0 DUP3 ADD MSTORE POP JUMP JUMPDEST PUSH0 PUSH2 0xE3C PUSH1 0x20 DUP4 PUSH2 0xA88 JUMP JUMPDEST SWAP2 POP PUSH2 0xE47 DUP3 PUSH2 0xE08 JUMP JUMPDEST PUSH1 0x20 DUP3 ADD SWAP1 POP SWAP2 SWAP1 POP JUMP JUMPDEST PUSH0 PUSH1 0x20 DUP3 ADD SWAP1 POP DUP2 DUP2 SUB PUSH0 DUP4 ADD MSTORE PUSH2 0xE69 DUP2 PUSH2 0xE30 JUMP JUMPDEST SWAP1 POP SWAP2 SWAP1 POP JUMP JUMPDEST PUSH32 0x436F6E7472616374206973206E6F742061637469766500000000000000000000 PUSH0 DUP3 ADD MSTORE POP JUMP JUMPDEST PUSH0 PUSH2 0xEA4 PUSH1 0x16 DUP4 PUSH2 0xA88 JUMP JUMPDEST SWAP2 POP PUSH2 0xEAF DUP3 PUSH2 0xE70 JUMP JUMPDEST PUSH1 0x20 DUP3 ADD SWAP1 POP SWAP2 SWAP1 POP JUMP JUMPDEST PUSH0 PUSH1 0x20 DUP3 ADD SWAP1 POP DUP2 DUP2 SUB PUSH0 DUP4 ADD MSTORE PUSH2 0xED1 DUP2 PUSH2 0xE98 JUMP JUMPDEST SWAP1 POP SWAP2 SWAP1 POP JUMP INVALID LOG2 PUSH5 0x6970667358 0x22 SLT KECCAK256 MUL PUSH13 0x66CC539EFF825CE15D8AC97CBF OR CREATE2 PUSH22 0xE085D5B6D49E83754A48370C86F464736F6C63430008 NOT STOP CALLER "
				},
				"gasEstimates": {
					"creation": {
						"codeDepositCost": "770800",
						"executionCost": "49392",
						"totalCost": "820192"
					},
					"external": {
						"Deadline()": "2447",
						"amountPaidInEscrow()": "2470",
						"buyer()": "2528",
						"buyerConfirmed()": "2533",
						"confirmDeliverlyByBuyer()": "infinite",
						"confirmDelivery()": "infinite",
						"currentState()": "2651",
						"deposit()": "4894",
						"escrowAgent()": "2574",
						"escrowAmount()": "2470",
						"feePercentage()": "2492",
						"isDispute()": "2493",
						"seller()": "2532",
						"sellerConfirmed()": "2605"
					},
					"internal": {
						"finalizeTransaction()": "infinite",
						"tryToFinalize()": "infinite"
					}
				},
				"methodIdentifiers": {
					"Deadline()": "c6f221aa",
					"amountPaidInEscrow()": "995e770b",
					"buyer()": "7150d8ae",
					"buyerConfirmed()": "48a1335a",
					"confirmDeliverlyByBuyer()": "24e6d8b4",
					"confirmDelivery()": "5e10177b",
					"currentState()": "0c3f6acf",
					"deposit()": "d0e30db0",
					"escrowAgent()": "e1f6c098",
					"escrowAmount()": "47a7846f",
					"feePercentage()": "a001ecdd",
					"isDispute()": "166573e5",
					"seller()": "08551a53",
					"sellerConfirmed()": "f6cb6ea8"
				}
			},
			"storageLayout": {
				"storage": [
					{
						"astId": 3,
						"contract": "Escrow smart contract.sol:Escrow",
						"label": "buyer",
						"offset": 0,
						"slot": "0",
						"type": "t_address"
					},
					{
						"astId": 5,
						"contract": "Escrow smart contract.sol:Escrow",
						"label": "seller",
						"offset": 0,
						"slot": "1",
						"type": "t_address"
					},
					{
						"astId": 7,
						"contract": "Escrow smart contract.sol:Escrow",
						"label": "escrowAgent",
						"offset": 0,
						"slot": "2",
						"type": "t_address"
					},
					{
						"astId": 9,
						"contract": "Escrow smart contract.sol:Escrow",
						"label": "escrowAmount",
						"offset": 0,
						"slot": "3",
						"type": "t_uint256"
					},
					{
						"astId": 11,
						"contract": "Escrow smart contract.sol:Escrow",
						"label": "buyerConfirmed",
						"offset": 0,
						"slot": "4",
						"type": "t_bool"
					},
					{
						"astId": 13,
						"contract": "Escrow smart contract.sol:Escrow",
						"label": "sellerConfirmed",
						"offset": 1,
						"slot": "4",
						"type": "t_bool"
					},
					{
						"astId": 36,
						"contract": "Escrow smart contract.sol:Escrow",
						"label": "currentState",
						"offset": 2,
						"slot": "4",
						"type": "t_enum(contractState)33"
					},
					{
						"astId": 52,
						"contract": "Escrow smart contract.sol:Escrow",
						"label": "isDispute",
						"offset": 0,
						"slot": "5",
						"type": "t_uint256"
					},
					{
						"astId": 54,
						"contract": "Escrow smart contract.sol:Escrow",
						"label": "feePercentage",
						"offset": 0,
						"slot": "6",
						"type": "t_uint256"
					},
					{
						"astId": 56,
						"contract": "Escrow smart contract.sol:Escrow",
						"label": "Deadline",
						"offset": 0,
						"slot": "7",
						"type": "t_uint256"
					},
					{
						"astId": 58,
						"contract": "Escrow smart contract.sol:Escrow",
						"label": "amountPaidInEscrow",
						"offset": 0,
						"slot": "8",
						"type": "t_uint256"
					}
				],
				"types": {
					"t_address": {
						"encoding": "inplace",
						"label": "address",
						"numberOfBytes": "20"
					},
					"t_bool": {
						"encoding": "inplace",
						"label": "bool",
						"numberOfBytes": "1"
					},
					"t_enum(contractState)33": {
						"encoding": "inplace",
						"label": "enum Escrow.contractState",
						"numberOfBytes": "1"
					},
					"t_uint256": {
						"encoding": "inplace",
						"label": "uint256",
						"numberOfBytes": "32"
					}
				}
			},
			"userdoc": {
				"kind": "user",
				"methods": {},
				"version": 1
			}
		}
	}
}