{
	"data": {
		"bytecode": {
			"linkReferences": {},
			"object": "608060405234801561000f575f80fd5b506104638061001d5f395ff3fe608060405234801561000f575f80fd5b5060043610610034575f3560e01c8063673626e8146100385780637ecebe0014610054575b5f80fd5b610052600480360381019061004d91906102bd565b610084565b005b61006e60048036038101906100699190610362565b6100cf565b60405161007b919061039c565b60405180910390f35b814211156100c7576040517f08c379a00000000000000000000000000000000000000000000000000000000081526004016100be9061040f565b60405180910390fd5b505050505050565b5f602052805f5260405f205f915090505481565b5f604051905090565b5f80fd5b5f80fd5b5f73ffffffffffffffffffffffffffffffffffffffff82169050919050565b5f61011d826100f4565b9050919050565b61012d81610113565b8114610137575f80fd5b50565b5f8135905061014881610124565b92915050565b5f819050919050565b6101608161014e565b811461016a575f80fd5b50565b5f8135905061017b81610157565b92915050565b5f80fd5b5f80fd5b5f601f19601f8301169050919050565b7f4e487b71000000000000000000000000000000000000000000000000000000005f52604160045260245ffd5b6101cf82610189565b810181811067ffffffffffffffff821117156101ee576101ed610199565b5b80604052505050565b5f6102006100e3565b905061020c82826101c6565b919050565b5f67ffffffffffffffff82111561022b5761022a610199565b5b61023482610189565b9050602081019050919050565b828183375f83830152505050565b5f61026161025c84610211565b6101f7565b90508281526020810184848401111561027d5761027c610185565b5b610288848285610241565b509392505050565b5f82601f8301126102a4576102a3610181565b5b81356102b484826020860161024f565b91505092915050565b5f805f805f8060c087890312156102d7576102d66100ec565b5b5f6102e489828a0161013a565b96505060206102f589828a0161013a565b955050604061030689828a0161016d565b945050606061031789828a0161016d565b935050608061032889828a0161016d565b92505060a087013567ffffffffffffffff811115610349576103486100f0565b5b61035589828a01610290565b9150509295509295509295565b5f60208284031215610377576103766100ec565b5b5f6103848482850161013a565b91505092915050565b6103968161014e565b82525050565b5f6020820190506103af5f83018461038d565b92915050565b5f82825260208201905092915050565b7f5369676e617475726520686173206578706972656400000000000000000000005f82015250565b5f6103f96015836103b5565b9150610404826103c5565b602082019050919050565b5f6020820190508181035f830152610426816103ed565b905091905056fea26469706673582212201f9f80155a42ec9f6e36817ff6595a04e1a4c2be2991dbf84346a0906a90e22764736f6c63430008180033",
			"opcodes": "PUSH1 0x80 PUSH1 0x40 MSTORE CALLVALUE DUP1 ISZERO PUSH2 0xF JUMPI PUSH0 DUP1 REVERT JUMPDEST POP PUSH2 0x463 DUP1 PUSH2 0x1D PUSH0 CODECOPY PUSH0 RETURN INVALID PUSH1 0x80 PUSH1 0x40 MSTORE CALLVALUE DUP1 ISZERO PUSH2 0xF JUMPI PUSH0 DUP1 REVERT JUMPDEST POP PUSH1 0x4 CALLDATASIZE LT PUSH2 0x34 JUMPI PUSH0 CALLDATALOAD PUSH1 0xE0 SHR DUP1 PUSH4 0x673626E8 EQ PUSH2 0x38 JUMPI DUP1 PUSH4 0x7ECEBE00 EQ PUSH2 0x54 JUMPI JUMPDEST PUSH0 DUP1 REVERT JUMPDEST PUSH2 0x52 PUSH1 0x4 DUP1 CALLDATASIZE SUB DUP2 ADD SWAP1 PUSH2 0x4D SWAP2 SWAP1 PUSH2 0x2BD JUMP JUMPDEST PUSH2 0x84 JUMP JUMPDEST STOP JUMPDEST PUSH2 0x6E PUSH1 0x4 DUP1 CALLDATASIZE SUB DUP2 ADD SWAP1 PUSH2 0x69 SWAP2 SWAP1 PUSH2 0x362 JUMP JUMPDEST PUSH2 0xCF JUMP JUMPDEST PUSH1 0x40 MLOAD PUSH2 0x7B SWAP2 SWAP1 PUSH2 0x39C JUMP JUMPDEST PUSH1 0x40 MLOAD DUP1 SWAP2 SUB SWAP1 RETURN JUMPDEST DUP2 TIMESTAMP GT ISZERO PUSH2 0xC7 JUMPI PUSH1 0x40 MLOAD PUSH32 0x8C379A000000000000000000000000000000000000000000000000000000000 DUP2 MSTORE PUSH1 0x4 ADD PUSH2 0xBE SWAP1 PUSH2 0x40F JUMP JUMPDEST PUSH1 0x40 MLOAD DUP1 SWAP2 SUB SWAP1 REVERT JUMPDEST POP POP POP POP POP POP JUMP JUMPDEST PUSH0 PUSH1 0x20 MSTORE DUP1 PUSH0 MSTORE PUSH1 0x40 PUSH0 KECCAK256 PUSH0 SWAP2 POP SWAP1 POP SLOAD DUP2 JUMP JUMPDEST PUSH0 PUSH1 0x40 MLOAD SWAP1 POP SWAP1 JUMP JUMPDEST PUSH0 DUP1 REVERT JUMPDEST PUSH0 DUP1 REVERT JUMPDEST PUSH0 PUSH20 0xFFFFFFFFFFFFFFFFFFFFFFFFFFFFFFFFFFFFFFFF DUP3 AND SWAP1 POP SWAP2 SWAP1 POP JUMP JUMPDEST PUSH0 PUSH2 0x11D DUP3 PUSH2 0xF4 JUMP JUMPDEST SWAP1 POP SWAP2 SWAP1 POP JUMP JUMPDEST PUSH2 0x12D DUP2 PUSH2 0x113 JUMP JUMPDEST DUP2 EQ PUSH2 0x137 JUMPI PUSH0 DUP1 REVERT JUMPDEST POP JUMP JUMPDEST PUSH0 DUP2 CALLDATALOAD SWAP1 POP PUSH2 0x148 DUP2 PUSH2 0x124 JUMP JUMPDEST SWAP3 SWAP2 POP POP JUMP JUMPDEST PUSH0 DUP2 SWAP1 POP SWAP2 SWAP1 POP JUMP JUMPDEST PUSH2 0x160 DUP2 PUSH2 0x14E JUMP JUMPDEST DUP2 EQ PUSH2 0x16A JUMPI PUSH0 DUP1 REVERT JUMPDEST POP JUMP JUMPDEST PUSH0 DUP2 CALLDATALOAD SWAP1 POP PUSH2 0x17B DUP2 PUSH2 0x157 JUMP JUMPDEST SWAP3 SWAP2 POP POP JUMP JUMPDEST PUSH0 DUP1 REVERT JUMPDEST PUSH0 DUP1 REVERT JUMPDEST PUSH0 PUSH1 0x1F NOT PUSH1 0x1F DUP4 ADD AND SWAP1 POP SWAP2 SWAP1 POP JUMP JUMPDEST PUSH32 0x4E487B7100000000000000000000000000000000000000000000000000000000 PUSH0 MSTORE PUSH1 0x41 PUSH1 0x4 MSTORE PUSH1 0x24 PUSH0 REVERT JUMPDEST PUSH2 0x1CF DUP3 PUSH2 0x189 JUMP JUMPDEST DUP2 ADD DUP2 DUP2 LT PUSH8 0xFFFFFFFFFFFFFFFF DUP3 GT OR ISZERO PUSH2 0x1EE JUMPI PUSH2 0x1ED PUSH2 0x199 JUMP JUMPDEST JUMPDEST DUP1 PUSH1 0x40 MSTORE POP POP POP JUMP JUMPDEST PUSH0 PUSH2 0x200 PUSH2 0xE3 JUMP JUMPDEST SWAP1 POP PUSH2 0x20C DUP3 DUP3 PUSH2 0x1C6 JUMP JUMPDEST SWAP2 SWAP1 POP JUMP JUMPDEST PUSH0 PUSH8 0xFFFFFFFFFFFFFFFF DUP3 GT ISZERO PUSH2 0x22B JUMPI PUSH2 0x22A PUSH2 0x199 JUMP JUMPDEST JUMPDEST PUSH2 0x234 DUP3 PUSH2 0x189 JUMP JUMPDEST SWAP1 POP PUSH1 0x20 DUP2 ADD SWAP1 POP SWAP2 SWAP1 POP JUMP JUMPDEST DUP3 DUP2 DUP4 CALLDATACOPY PUSH0 DUP4 DUP4 ADD MSTORE POP POP POP JUMP JUMPDEST PUSH0 PUSH2 0x261 PUSH2 0x25C DUP5 PUSH2 0x211 JUMP JUMPDEST PUSH2 0x1F7 JUMP JUMPDEST SWAP1 POP DUP3 DUP2 MSTORE PUSH1 0x20 DUP2 ADD DUP5 DUP5 DUP5 ADD GT ISZERO PUSH2 0x27D JUMPI PUSH2 0x27C PUSH2 0x185 JUMP JUMPDEST JUMPDEST PUSH2 0x288 DUP5 DUP3 DUP6 PUSH2 0x241 JUMP JUMPDEST POP SWAP4 SWAP3 POP POP POP JUMP JUMPDEST PUSH0 DUP3 PUSH1 0x1F DUP4 ADD SLT PUSH2 0x2A4 JUMPI PUSH2 0x2A3 PUSH2 0x181 JUMP JUMPDEST JUMPDEST DUP2 CALLDATALOAD PUSH2 0x2B4 DUP5 DUP3 PUSH1 0x20 DUP7 ADD PUSH2 0x24F JUMP JUMPDEST SWAP2 POP POP SWAP3 SWAP2 POP POP JUMP JUMPDEST PUSH0 DUP1 PUSH0 DUP1 PUSH0 DUP1 PUSH1 0xC0 DUP8 DUP10 SUB SLT ISZERO PUSH2 0x2D7 JUMPI PUSH2 0x2D6 PUSH2 0xEC JUMP JUMPDEST JUMPDEST PUSH0 PUSH2 0x2E4 DUP10 DUP3 DUP11 ADD PUSH2 0x13A JUMP JUMPDEST SWAP7 POP POP PUSH1 0x20 PUSH2 0x2F5 DUP10 DUP3 DUP11 ADD PUSH2 0x13A JUMP JUMPDEST SWAP6 POP POP PUSH1 0x40 PUSH2 0x306 DUP10 DUP3 DUP11 ADD PUSH2 0x16D JUMP JUMPDEST SWAP5 POP POP PUSH1 0x60 PUSH2 0x317 DUP10 DUP3 DUP11 ADD PUSH2 0x16D JUMP JUMPDEST SWAP4 POP POP PUSH1 0x80 PUSH2 0x328 DUP10 DUP3 DUP11 ADD PUSH2 0x16D JUMP JUMPDEST SWAP3 POP POP PUSH1 0xA0 DUP8 ADD CALLDATALOAD PUSH8 0xFFFFFFFFFFFFFFFF DUP2 GT ISZERO PUSH2 0x349 JUMPI PUSH2 0x348 PUSH2 0xF0 JUMP JUMPDEST JUMPDEST PUSH2 0x355 DUP10 DUP3 DUP11 ADD PUSH2 0x290 JUMP JUMPDEST SWAP2 POP POP SWAP3 SWAP6 POP SWAP3 SWAP6 POP SWAP3 SWAP6 JUMP JUMPDEST PUSH0 PUSH1 0x20 DUP3 DUP5 SUB SLT ISZERO PUSH2 0x377 JUMPI PUSH2 0x376 PUSH2 0xEC JUMP JUMPDEST JUMPDEST PUSH0 PUSH2 0x384 DUP5 DUP3 DUP6 ADD PUSH2 0x13A JUMP JUMPDEST SWAP2 POP POP SWAP3 SWAP2 POP POP JUMP JUMPDEST PUSH2 0x396 DUP2 PUSH2 0x14E JUMP JUMPDEST DUP3 MSTORE POP POP JUMP JUMPDEST PUSH0 PUSH1 0x20 DUP3 ADD SWAP1 POP PUSH2 0x3AF PUSH0 DUP4 ADD DUP5 PUSH2 0x38D JUMP JUMPDEST SWAP3 SWAP2 POP POP JUMP JUMPDEST PUSH0 DUP3 DUP3 MSTORE PUSH1 0x20 DUP3 ADD SWAP1 POP SWAP3 SWAP2 POP POP JUMP JUMPDEST PUSH32 0x5369676E61747572652068617320657870697265640000000000000000000000 PUSH0 DUP3 ADD MSTORE POP JUMP JUMPDEST PUSH0 PUSH2 0x3F9 PUSH1 0x15 DUP4 PUSH2 0x3B5 JUMP JUMPDEST SWAP2 POP PUSH2 0x404 DUP3 PUSH2 0x3C5 JUMP JUMPDEST PUSH1 0x20 DUP3 ADD SWAP1 POP SWAP2 SWAP1 POP JUMP JUMPDEST PUSH0 PUSH1 0x20 DUP3 ADD SWAP1 POP DUP2 DUP2 SUB PUSH0 DUP4 ADD MSTORE PUSH2 0x426 DUP2 PUSH2 0x3ED JUMP JUMPDEST SWAP1 POP SWAP2 SWAP1 POP JUMP INVALID LOG2 PUSH5 0x6970667358 0x22 SLT KECCAK256 0x1F SWAP16 DUP1 ISZERO GAS TIMESTAMP 0xEC SWAP16 PUSH15 0x36817FF6595A04E1A4C2BE2991DBF8 NUMBER CHAINID LOG0 SWAP1 PUSH11 0x90E22764736F6C63430008 XOR STOP CALLER "
		},
		"gasEstimates": {
			"creation": {
				"codeDepositCost": "224600",
				"executionCost": "267",
				"totalCost": "224867"
			},
			"external": {
				"ClaimEther(address,address,uint256,uint256,uint256,bytes)": "infinite",
				"nonces(address)": "2801"
			}
		},
		"methodIdentifiers": {
			"ClaimEther(address,address,uint256,uint256,uint256,bytes)": "673626e8",
			"nonces(address)": "7ecebe00"
		}
	},
	"abi": [
		{
			"anonymous": false,
			"inputs": [
				{
					"indexed": true,
					"internalType": "address",
					"name": "sender",
					"type": "address"
				},
				{
					"indexed": true,
					"internalType": "address",
					"name": "receipient",
					"type": "address"
				},
				{
					"indexed": false,
					"internalType": "uint256",
					"name": "amount",
					"type": "uint256"
				}
			],
			"name": "EtherClaimed",
			"type": "event"
		},
		{
			"inputs": [
				{
					"internalType": "address",
					"name": "sender",
					"type": "address"
				},
				{
					"internalType": "address",
					"name": "recepient",
					"type": "address"
				},
				{
					"internalType": "uint256",
					"name": "amount",
					"type": "uint256"
				},
				{
					"internalType": "uint256",
					"name": "nonce",
					"type": "uint256"
				},
				{
					"internalType": "uint256",
					"name": "expiration",
					"type": "uint256"
				},
				{
					"internalType": "bytes",
					"name": "signature",
					"type": "bytes"
				}
			],
			"name": "ClaimEther",
			"outputs": [],
			"stateMutability": "nonpayable",
			"type": "function"
		},
		{
			"inputs": [
				{
					"internalType": "address",
					"name": "",
					"type": "address"
				}
			],
			"name": "nonces",
			"outputs": [
				{
					"internalType": "uint256",
					"name": "",
					"type": "uint256"
				}
			],
			"stateMutability": "view",
			"type": "function"
		}
	]
}